:020000040800F2
:10000000F00D0020A501000829420008C73E0008A5
:1000100025420008C11600081D4F0008000000001E
:10002000000000000000000000000000E94500089A
:100030001117000800000000BD450008EB4500084E
:10004000BF010008BF010008BF010008BF01000890
:10005000BF010008BF010008BF010008BF01000880
:10006000BF010008BF010008BF010008BF01000870
:10007000C5160008D5160008BF010008BF0100081A
:10008000BF010008BF010008BF010008BF01000850
:10009000BF010008BF010008BF010008BF01000840
:1000A000BF0100085D460008BF010008BF0100084D
:1000B0006D4600087D460008BF010008BF0100082A
:1000C000BF010008BF010008BF010008BF01000810
:1000D000BF010008BF010008FD4E00080D4F0008D9
:1000E000BF010008BF010008BF01000800F002F8CE
:1000F00000F048F80AA090E8000C82448344AAF17A
:100100000107DA4501D100F03DF8AFF2090EBAE877
:100110000F0013F0010F18BFFB1A43F0010318473B
:10012000F467000014680000103A24BF78C878C152
:10013000FAD8520724BF30C830C144BF04680C60ED
:10014000704700000023002400250026103A28BF35
:1001500078C1FBD8520728BF30C148BF0B60704739
:100160001FB500F023FC04000020002105F020FD55
:10017000401C60600020002105F004FDE0601FBD10
:1001800010B510BD00F01EF91146FFF7E9FF05F0AC
:100190009FF800F0C1FB03B4FFF7F2FF03BC00F0CF
:1001A000A5FE00000948804709480047FEE7FEE732
:1001B000FEE7FEE7FEE7FEE7FEE7FEE7FEE7FEE717
:1001C00004480549054A064B704700005946000897
:1001D000ED000008F0070020F00D0020F0090020DD
:1001E000F0090020002800DA4042704710B5203A9C
:1001F000C0F00B80B1E81850203AA0E81850B1E8E0
:100200001850A0E81850BFF4F5AF5FEA027C24BF95
:10021000B1E81850A0E8185044BF18C918C0BDE88C
:1002200010405FEA827C24BF51F8043B40F8043B55
:1002300008BF7047D20728BF31F8023B48BF11F80A
:10024000012B28BF20F8023B48BF00F8012B704764
:100250004FF0000200B5134694469646203922BF5F
:10026000A0E80C50A0E80C50B1F12001BFF4F7AFAA
:10027000090728BFA0E80C5048BF0CC05DF804EB8C
:10028000890028BF40F8042B08BF704748BF20F8FA
:10029000022B11F0804F18BF00F8012B70477047F8
:1002A0007047704710B500F05BF8006810BD10B5DE
:1002B000044600F055F8046010BD00000FB40023A0
:1002C00000B589B00CA900910B99CB60214B7B4400
:1002D0000693214B7B44079304236FF00042CDE942
:1002E00001321E4A7A446B4608920246002006F00C
:1002F00093FA09B05DF814FB70B506464FF0FF3075
:1003000015460C46324686B00091CDE9010169469A
:100310000020049004A8FFF7D1FF0246049821189A
:1003200025B108B1084600E020462860049800285E
:100330000DD0002A02DD0098884208D03246081B02
:1003400069460094CDE9010404A8FFF7B7FF06B0A1
:1003500070BD0000A9000000C10000008100000085
:10036000004870478C07002010B5044600F050F894
:100370000068005D00F0010010BD426842B10168F4
:1003800011F8013B23B1521EC0E900121846704714
:100390000121C160881E704742685AB1C368016874
:1003A00043B983688B4205D0491E521CC0E9001234
:1003B000002070474FF0FF30704700000048704742
:1003C0008C0700207546FFF7F9FFAE460500694629
:1003D000534620F00700854618B020B5FFF7F0FE21
:1003E000BDE820404FF000064FF000074FF0000836
:1003F0004FF0000B21F00701AC46ACE8C009ACE8B7
:10040000C009ACE8C009ACE8C0098D4670470000DF
:1004100010B500F0CBFA001D10BD00BF95570000CD
:100420002DE9FF4F06468BB00878FF2806D0491CFF
:100430002D2805D000244FF0000908E000200CE032
:100440000124F8E709EB8903491C00EB430908780C
:10045000FF28F7D114B1C9F10000814610780025BA
:100460002C46AA4629462D2801D02B2804D1521CFF
:100470002D2813D0002082468B461078FF280FD0FD
:100480004FF0000C0A21521CA5FB017804FB0181EE
:1004900005FB0C11C5194BEB0104EEE70120EAE75F
:1004A000002108464FF00000BAF1000F02D000EB27
:1004B00080004008C0F38157012F01DD4FF0FF3766
:1004C0000E9955EA040009EB01080BD04FF0020920
:1004D00018F5FA7F16DA4FEACA70002F706008DD4F
:1004E000012007E04FEACA70C6E900B00FB0BDE8CE
:1004F000F08F00203060FFF733FFC0F80090182124
:10050000084616E0B8F5FA7F18DD002F02DAF74842
:10051000784401E0F6487844D0E90010C6E90010BC
:1005200040EACA707060FFF71BFFC0F8009014210A
:1005300008460FB0BDE8F04F06F00BB900210846A1
:100540004FF00000B8F10001099002DAC7F1000293
:1005500000E03A4601DAC8F1000106A800F02AFAE4
:1005600006AB93E8070003AB83E8070044F23E00C4
:100570005BEA04010090584604D144F21E012C4667
:100580005D460091210C0904014306D10099240421
:1005900044EA15442D041039009104F07F410143D1
:1005A00006D10099240244EA15642D02083900910D
:1005B00004F07041014306D10099240144EA157406
:1005C0002D01091F009104F04041014306D100991B
:1005D000A40044EA9574AD00891E009104F0004126
:1005E000084304D100986D196441401E00904FF0FB
:1005F00001033A466846B8F1000FCDE9014503A969
:1006000002DD00F026FF01E000F0F9FEBAF1000F74
:1006100004460D4601D084F00044002108464FF006
:100620000000099940F2FF77484010F00C0F07D105
:1006300024F00040284303D0C4F30A50B84212D13A
:10064000FFF78EFEC0F80090C4F30A50B8420AD1FA
:10065000A8487844D0E90010C6E9001004F0004131
:100660000843706042E7C6E900543FE72DE9FF4FB9
:100670001F464FF0000A4FF0FF38454691B0D7E9CA
:100680000146CDF83CA000F091F9C0680168405CDB
:100690001090B96912986D1C8847396A814688475D
:1006A0000028F6D1B9F1FF3F0AD0002E24F4D0641F
:1006B00011DDB9F12B0F08D0B9F12D0F0BD102E0EC
:1006C000404615B013E744F48064B96912986D1C74
:1006D0008847761E8146600504A901D52D2000E0DB
:1006E0002B20002E01F1010B0DF130088DF81000C8
:1006F0003FDDB9F1690F08D0B9F1490F05D0B9F163
:100700006E0F02D0B9F14E0F1CD13B4601A80095E7
:1007100080E85002DDE912126FF0020006F080F866
:10072000C11CCED10EE0B96912986D1C8847814674
:100730001398761E44F4007405600F98401C002E38
:100740000F9016DDB9F1300FEDD0B9F1780F02D06E
:10075000B9F1580F0DD10F9801280AD13B46CDE9C8
:100760000054DDE91212001F029606F057F8C11C72
:10077000A7D1109989453ED144F0800406E0139931
:10078000681CAAF1010A44F400740860B9696D1C80
:100790001298761E884730288146F0D02BE01099B9
:1007A000894505D1200603D4761E44F0800418E064
:1007B000484604F052FC08B3761E0DF123018B4528
:1007C00044F4007408D2A9F130000BF8010B2006A4
:1007D00007D5AAF1010003E0200602D40AF10100C6
:1007E0008246A00502D51399681C0860B969129861
:1007F0006D1C88478146002ED1DC53E0002E51DD70
:10080000B9F1650F02D0B9F1450F4BD1A00549D51B
:10081000B9696D1C1298761E24F440748847002E26
:1008200081460CDD2B2804D0B9F12D0F07D144F4FB
:100830008074B96912986D1C8847761E8146E00560
:1008400001D52D2100E02B2108F8011BCDF80080F7
:1008500021E0761E0DF13901884544F400740CD274
:10086000A9F1300010F0FF0088F8000002D10099D3
:10087000884509D908F1010806E0E00501D51E48C0
:1008800001E042F20F708246B96912986D1C8847E8
:10089000814613980560002E04DD484604F0DDFB18
:1008A0000028D6D1F96912988847FF2053468BF863
:1008B000000088F8000000200A900B9004AA0CA900
:1008C0000AA8FFF7ADFDA00502D46FF00100F8E61D
:1008D00014F0240F12D0E0071CD13868DDE90A12A9
:1008E000031D3B600068C0E9001213E028640000AB
:1008F0001A640000DE620000F1D8FFFF0AA9684612
:1009000004F03AFBE00705D13868009A011D396010
:10091000006802602846D4E610B50446AFF30080B4
:100920002046BDE81040FFF736BC00004FF0013C08
:1009300050F8042B51F8043B9A4221D1A2EB0C034E
:10094000934313EACC1317D150F8042B51F8043B0E
:100950009A4215D1A2EB0C03934313EACC130BD1AB
:1009600050F8042B51F8043B9A4209D1A2EB0C0336
:10097000934313EACC13DBD04FF00000704700BF65
:10098000D01A01BAB1FA81F101F0180122FA01F08E
:10099000CB40C1F12001DBB2C0B2C01A2CFA01F386
:1009A000D11A914311EAC311E6D17047004870474C
:1009B000AC0700202DE9F047814616468AB035483D
:1009C00078440DC88DE80D0032487844801C03AC93
:1009D0000DC884E80D0041F69B300844372190FB98
:1009E000F1F290FBF1F5A5F1800501FB12041B3C2F
:1009F00002D56442012000E00020DFF898A0804684
:100A00000027FA44AAF1BE0A0EE0E0070AD03246F7
:100A1000684607EB470101230AEB810100F004FD62
:100A20008DE8070064107F1C002CEED1194F7F4425
:100A3000AE3F19E0E80715D007EB04100DF1180AD6
:100A400090E80E008AE80E00C068F04201D19819C3
:100A500008903246012306A903A800F0E5FC03AB89
:100A600083E807006D10641C002DE3D14FF00103F3
:100A700032466946B8F1000F03A802D000F0AAFC84
:100A800001E000F0D1FCC9E90001C9F808200AB072
:100A9000BDE8F087385F00002DE9FF4F1F464FF09B
:100AA0003C0987B04FF00042DDE9141001F1010864
:100AB000DDF858A002EA40500390002005908346DC
:100AC000054604460490B969461E08988847AAF16D
:100AD000010A0290BAF1000F3BDD02982E2815D0D2
:100AE000102100F01CFA00282EDB4FF0010B0599B5
:100AF000014317D0B9F1000F0BDB4A46C11700F0D4
:100B0000FBF905430C43A9F1040905E00120049019
:100B10000BE008B145F0010501200590049820B9CB
:100B2000361D02E0049800B1361FB969089808F133
:100B300001088847BBF1000FAAF1010A0290C9D051
:100B40000999C1F80080C5E70298702808D050289C
:100B500006D0F96908988847BBF1000F14D04FE020
:100B6000002002900120BBF1000F049009D0B96968
:100B7000089808F101088847AAF10109B9F1000FA6
:100B800007DCF969089888476FF001000BB0BDE8F1
:100B9000F08F2B2804D02D280CD14FF0FF3004907B
:100BA000B969089808F101088847A9F10109B9F164
:100BB000000FE6DD411CE4D00A2100F0B0F9002866
:100BC000DFDB029908F1010801EB810100EB410034
:100BD0000290B969089888470A2100F0A0F9099A9B
:100BE000A9F10109B9F1000FC2F8008001DD002868
:100BF000E7DAF969089888470499029800FB0166CA
:100C000055EA040004D004F04041090002D006E097
:100C1000039898E0A40044EA9574AD00B61E04F071
:100C20000041080002D16D196441761E159810F03C
:100C3000240F03D04FF00B095C4803E04FF0280964
:100C40006FF07D008246564507DAAAEB060189441B
:100C5000B9F1410F01DD4FF0410901200021A9F157
:100C6000010200F049F9024628400B4621400843A2
:100C700001D0012100E00021501E029143F1FF311B
:100C800028402140084301D0012000E000200299C3
:100C9000834651EA0B014FD0002108464FF0000077
:100CA000039900F4400039B100EB80004FF440019B
:100CB00000EBD07001EA60008015012802DD4FF0E2
:100CC000FF3000E013D0401C36D0029860B3BBF177
:100CD000000F0CD14A460120002100F00DF92840F8
:100CE0002140084301D0012000E00020E0B10120B4
:100CF0004A46002100F000F9034640190A466141C6
:100D00002D1A8C4111D3B9F1400F09DD159810F05F
:100D1000240F02D0AAF1340603E0AAF1170600E07E
:100D2000761C00254FF0004406E05B1E42F1FF32C6
:100D300020EA030521EA0204CAF10100B04206DA02
:100D40001B49039808430190002000900EE0039A8D
:100D5000C4F3D321E80A0A43164940EA44500A433F
:100D60003146CDE90002684604F06CF9159810F0A0
:100D7000240F0BD01598C00715D13868DDE9001293
:100D8000031D3B600068C0E900120CE002A8694640
:100D900004F0F2F81598C00705D13868029A011DD1
:100DA0003960006802604046F0E6000002FCFFFF88
:100DB0000000F07F0000F03F2DE9FF4F92461D46F6
:100DC00085B04FF00041DDE9124BDDE914727F1E62
:100DD00001EA4B50414940F0FF4940EA0108002137
:100DE00022F020004928049102D04E2828D04CE05F
:100DF0003BA0012607C88DE80700A9690698641C76
:100E000088477F1E014606D41DF8060018B121F060
:100E1000200181420BD0E96906988847032E34D01F
:100E2000082E32D06FF0010009B0BDE8F08F761CBB
:100E3000032E01D0082EE0D1601CCAF80000DCE7C8
:100E4000A9690698641C88477F1E2AD420F02000D8
:100E5000412826D1A9690698641C88477F1E20D4A2
:100E600020F020004E281CD1A9690698641C8847F0
:100E70007F1E48F4002849F48009CAF8004001D4D4
:100E8000282806D0E969069888475FEACB7012D017
:100E900022E0A9690698641C88477F1E01D40028B7
:100EA00003DAE96906988847BCE72928F1D1641C70
:100EB000CAF80040E9E71BF0240F07D0286804991E
:100EC000031D2B600068C0E9001805E02868021DBA
:100ED0002A600068C0F800902046A5E70000F07F77
:100EE000494E46494E495459000000000149182016
:100EF000ABBEFEE726000200B2F120030AD5C2F124
:100F0000200301FA02F120FA03F300FA02F041EAA9
:100F10000301704700FA03F14FF0000070473A28D0
:100F200000D2303820F02002412A01D3A2F137004C
:100F3000884201D34FF0FF307047704720F07F4C5C
:100F400080EA030023F07F47ACEB070303F57C53F3
:100F500000F0004003F1FF032DE980494FEA154BF3
:100F600009B44FEA144325EA0B4E24EA03480FF272
:100F7000042606EB132749083E785FEA320203FB9A
:100F80000667C7F5000707FB06F64FEA54374FEA36
:100F9000D64606F1020607FB066CCCF1005C4FEA70
:100FA0001C472CEA074C07FB06F40CFB06F504EB88
:100FB00015464FEA961634BF00204FF000404FEA26
:100FC000D13706FB07FC4FEA1C4C0CFB0BF7D21B7E
:100FD00003FB0CF761EB07010CFB0EF7B0EB0740CE
:100FE00072EB17420CFB08F734BFA2EB0742B2EBDF
:100FF000074261EB17414FEA0C444FEA910706FBA9
:1010000007FC4FEA1C4C0CFB0BF7B0EBC74072EB34
:10101000573203FB0CF734BFA2EBC742B2EBC74217
:1010200061EB57310CFB0EF7B0EBC70072EB577258
:101030000CFB08F734BFA2EBC702B2EBC70261EBAF
:101040005771039F4FEA816141EA921104EBCC048E
:101050004FEAD1374FEA826206FB07FC42EA901260
:101060004FEA80604FEA1C4C0CFB0BF7D21B03FBD2
:101070000CF761EB07010CFB0EF7B0EB074072EBCE
:1010800017420CFB08F734BFA2EB0742B2EB074252
:1010900061EB17414FEA8C554FEA910704EB9C2412
:1010A00006FB07FC4FEA1C4C0CFB0BF7B0EBC740F0
:1010B00072EB573203FB0CF734BFA2EBC742B2EB23
:1010C000C74261EB57310CFB0EF7B0EBC70072EB78
:1010D00057720CFB08F734BFA2EBC702B2EBC70292
:1010E00061EB577115EB4C254FEA816141EA921192
:1010F0004FEA82624FEAD13742EA901206FB07FCC0
:1011000044F100044FEA80604FEA1C4C0CFB0BF7E3
:10111000D21B03FB0CF761EB07010CFB0EF7B0EBE6
:10112000074072EB17420CFB08F734BFA2EB0742F3
:10113000B2EB074261EB174115EB1C154FEA813109
:1011400041EA92414FEA823242EA90424FEA8030CD
:101150004FEA0C7644F1000448EA03434EEA0B4898
:101160004FF0000EB2EB080C71EB030724BF624690
:1011700039464EEB0E0E4FF0000B0018524149411C
:101180004BEB0B0BB2EB080C71EB03077BF1000B85
:1011900024BF624639464EEB0E0E4FF0000B00188E
:1011A000524149414BEB0B0BB2EB080C71EB0307BF
:1011B0007BF1000B24BF624639464EEB0E0E51EA1E
:1011C000020718BF46F0010616EB0E7655F1000235
:1011D00054F1000103D5BDE88901BDE80088BDE8F0
:1011E0008901BDE80048B619524141EB0101A3F164
:1011F0000103704780807F7E7D7C7B7A797877766B
:1012000076757473727171706F6E6E6D6C6C6B6AE3
:101210006A69686867666665646463636261616081
:10122000605F5F5E5E5D5D5C5C5B5B5A5A595958FE
:101230005857575656555555545453535252525168
:10124000515050504F4F4F4E4E4D4D4D4C4C4C4BBE
:101250004B4B4A4A4A494949484848474747474605
:101260004646454545444444444343434342424241
:101270004241414146EA0646A3F570534FEA1646FD
:1012800046EA42564FEAD22242EA415210B54FEAAC
:10129000D121A3F1010300F02FF820F0004000F16C
:1012A000020C00F0004701EB00501146BCF5006F46
:1012B00040EA070000D210BDBAF1000F0AD01CB5F9
:1012C00003B44FF004004FF004014FF000000FBCD6
:1012D000BDE810404FF00001BBF1010FB9BF044859
:1012E0004FF0FF310348002140EA070010BD00BF66
:1012F000FFFFEF7F0000F07F002B9C4630D477008B
:101300002BD01CB54FEA370703B44FF010004FF055
:101310001001BAF1000F06D0BCF1000FDCBF40F0A5
:10132000080040F008014FF000000FBCBDE810407D
:101330000BF1010BBBF1010F08BF5FEA170722BFDA
:1013400012F1010211F101014FF0004143F10003DC
:1013500000F0004043EA00007047F9D35708D0E797
:1013600046EA064613F1400F4FEA16461FDD13F119
:10137000200FDFBF16430A46002120335B42BED058
:10138000C3F1200746EA064602FA07F74FEA164677
:1013900046EA0706C3F1200722FA03F201FA07F72B
:1013A00021FA03F14FF0000342EA0702A7E746EAF9
:1013B000020646EA06464FEA164646EA0106BCBF62
:1013C00046EA0646360C4FF000034FF000024FF09D
:1013D000000194E72DE9804C9A46934670B491E859
:1013E000380007C831EA400C48BF34EA430C03D543
:1013F000FFF7A4FDFFF780FFF0BCBDE8008C2DE9EE
:10140000804C9A46934670B491E8380007C831EA98
:10141000400C48BF34EA430C03D5FFF78FFDFFF7BC
:1014200029FFF0BCBDE8008C2DE9804C9A4693461C
:1014300070B491E8380007C810F0804F08BF13F06F
:10144000804F03D100F01AF8FFF756FFF0BCBDE85B
:10145000008C2DE9804C9A46934670B491E8380090
:1014600007C810F0804F08BF13F0804F03D100F081
:1014700005F8FFF7FFFEF0BCBDE8008C20F07F47C9
:1014800080EA030023F07F4C07EB0C03A3F57C53A9
:1014900000F00040A3F1FE0392F0000F00F0B380D3
:1014A00095F0000F00F077802DE901494FEA1140D7
:1014B0004FEA144621EA004800FB06FC24EA0647EE
:1014C00008FB06F607FB08F800FB07F718EB0648D1
:1014D0004CEB164C4FEA124B18EB07484FEA1546F7
:1014E0004CEB174022EA0B4E0BFB06FC25EA0647A5
:1014F0000EFB06F607FB0EFE0BFB07F71EEB064E78
:101500004CEB164C4FF000061EEB074E4CEB174B06
:1015100018EB0B0840F1000018EB0E0B58EB00081D
:1015200040F100008F1A4FF000013CBFC943661B19
:1015300014BFB5EB040C00213CBFC943F61B4FEAB6
:1015400017444EEA8E0E27EA04454FEA1C4704FB77
:1015500007622CEA074C05FB07F70CFB05F604FBBA
:101560000CFC16EB074642EB174216EB0C4642EB1F
:101570001C421BEB060658EB0202414146EA9E065E
:1015800001D5BDE80189B619524141EB0101A3F132
:101590000103BDE801894FEA14454FEA114724EAE7
:1015A000054621EA074C05FB07F406FB07F70CFB91
:1015B00006F105FB0CFC11EB074144EB17444FEA25
:1015C000124711EB0C4144EB1C4422EA074C05FB8B
:1015D00007F206FB07F70CFB06F605FB0CFC16EB07
:1015E000074642EB174216EB0C4642EB1C456A18C5
:1015F00054F1000148BF7047B619524141EB010157
:10160000A3F10103704795F0000F37D04FEA114264
:101610004FEA144721EA024624EA074C02FB07F18D
:1016200006FB07F70CFB06F402FB0CFC14EB07446B
:1016300041EB17414FEA154714EB0C4441EB1C41B9
:1016400025EA074C02FB07F506FB07F70CFB06F63D
:1016500002FB0CFC16EB074645EB174516EB0C4658
:1016600045EB1C42121951F1000148BF7047B619F1
:10167000524141EB0101A3F1010370474FEA1445C8
:101680004FEA114724EA054621EA074C05FB07F11A
:1016900006FB07F70CFB06F24FF0000605FB0CFCFF
:1016A00012EB074241EB174112EB0C4251EB1C418C
:1016B00048BF7047921841EB0101A3F10103704745
:1016C00000BFFEE710B5024800F0AAF810BD000008
:1016D0007C05002010B5024800F0A2F810BD000003
:1016E0003805002030B590F840500124AC40C56B5F
:1016F0006C60046863604468102C04D10468A260C4
:101700000468E16003E00468A1600468E26030BD41
:10171000704772B600BFFEE70146002291F8210033
:10172000022808D00420886300BF002081F8200030
:1017300000BF012070470868006820F00E000B68A9
:1017400018600868006820F001000B68186091F8C4
:10175000403001209840CB6B5860012081F8210077
:1017600000BF002081F8200000BF1046E2E7000023
:1017700070B50446002594F82100022803D0042007
:10178000A063012548E02068006820F00E00216871
:1017900008602068006820F00100216808601F4987
:1017A0002068884201D1012026E01C4914312068BC
:1017B000884201D110201FE0184928312068884252
:1017C00001D1801518E015493C312068884201D1CB
:1017D000801411E0114950312068884202D14FF441
:1017E000803009E00D4964312068884202D14FF40D
:1017F000801001E04FF080700849083948600120EE
:1018000084F8210000BF002084F8200000BF606B36
:1018100010B12046616B8847284670BD0800024021
:1018200070B50446E06B05682068066894F84010BF
:10183000042088402840002846D006F004000028F4
:1018400042D02068006800F0200028B920680068B5
:1018500020F004002168086057492068884201D1BF
:10186000042027E0544914312068884201D14020E7
:1018700020E0514928312068884201D1001519E043
:101880004D493C312068884202D14FF4804011E03C
:10189000494950312068884202D14FF4802009E044
:1018A000454964312068884202D14FF4800001E04C
:1018B0004FF08060404908394860E06A00287AD0DB
:1018C0002046E16A884776E094F84010022088407C
:1018D0002840A0B306F0020088B32068006800F03A
:1018E000200040B92068006820F00A0021680860E4
:1018F000012084F8210030492068884201D102206B
:1019000028E02D4914312068884201D1202021E0AF
:10191000294928312068884201D140151AE026491A
:101920003C312068884202D14FF4005012E0224935
:1019300050312068884203D14FF400300AE017E0AC
:101940001D4964312068884202D14FF4001001E043
:101950004FF0007018490839486000BF002084F833
:10196000200000BFA06A30B32046A16A884722E069
:1019700094F84010082088402840E0B106F00800A4
:10198000C8B12068006820F00E002168086094F853
:10199000401001208840E16B48600120A06384F87A
:1019A000210000BF002084F8200000BF206B10B190
:1019B0002046216B884770BD080002400146002286
:1019C00009B901207047164B0868C01A1423B0FBF0
:1019D000F3F08000086412480838C863022081F8D8
:1019E00021000868026843F6F0708243D1E90103E0
:1019F0001843CB6818430B6918434B6918438B692C
:101A00001843CB69184302430868026000208863CA
:101A1000012081F82100002081F8200000BFD1E7DB
:101A2000080002402DE9F04104460D4616461F46C7
:101A30004FF0000800BF94F82000012802D10220D6
:101A4000BDE8F081012084F8200000BF94F8210057
:101A500001282CD1022084F821000020A0632068F6
:101A6000006820F00100216808603B4632462946A4
:101A70002046FFF737FEE06A30B12068006840F08A
:101A80000E00216808600BE02068006820F0040068
:101A9000216808602068006840F00A00216808603A
:101AA0002068006840F001002168086006E000BF7F
:101AB000002084F8200000BF4FF002084046BFE736
:101AC0002DE9F8470346002294466EE14FF00108E5
:101AD00008FA02F4D1F8008008EA0400A0427DD19F
:101AE000DFF8DCA2D1F80480A8EB0A09D0453AD08F
:101AF00014DCB8F1030F50D009DCB8F1000F31D07D
:101B0000B8F1010F1CD0B8F1020F49D120E0B8F1B3
:101B1000110F18D0B8F1120F42D11EE0B9F5881F8D
:101B200025D006DCB9F5803F20D0B9F5801F37D12C
:101B30001AE0B9F5001F18D0B9F5041F30D117E02D
:101B4000D1F80CC02DE0D1F80C8008F1040C28E08D
:101B5000D1F80C8008F1080C23E0D1F80C8008F1D2
:101B60000C0C1EE000BF00BF00BF00BF00BF00BFE5
:101B7000D1F80880B8F1000F02D14FF0040C0BE04F
:101B8000D1F80880B8F1010F03D14FF0080C1C61A7
:101B900002E04FF0080C5C6103E04FF0000C00E045
:101BA00000BF00BFFF2801D8984601E003F10408F8
:101BB0004646FF2802D84FEA820803E0A2F108084F
:101BC0004FEA88084746D6F800804FF00F0909FA17
:101BD00007F928EA09080CFA07F900E088E048EA62
:101BE0000908C6F80080D1F8048008F08058B8F1E0
:101BF000805F7DD100BFDFF8CC81D8F8188048F035
:101C00000108DFF8C091C9F81880C846D8F81880D4
:101C100008F00108CDF8008000BF00BF4FEAB938D6
:101C20004FEA920958F829504FEA82784FEA18791A
:101C30004FF00F0808FA09F825EA0805DFF888814F
:101C4000434502D14FF0000816E0DFF8808143459C
:101C500002D14FF001080FE0DFF87481434502D153
:101C60004FF0020808E0DFF86C81434502D14FF0E5
:101C7000030801E04FF004084FEA82794FEA19792E
:101C800008FA09F848EA0505DFF84C814FEA92099D
:101C900048F82950D1F8048008F48018B8F5801F5E
:101CA0000AD1DFF83881D8F8008048EA0008DFF868
:101CB0002C91C9F8008009E0DFF82081D8F8008075
:101CC00028EA0008DFF81491C9F80080D1F80480F0
:101CD00008F40018B8F5001F10D1DFF8008108F1F2
:101CE0000408D8F8008048EA0008DFF8F09000E027
:101CF0005AE009F10409C9F800800DE0DFF8DC8042
:101D000008F10408D8F8008028EA0008DFF8CC9031
:101D100009F10409C9F80080D1F8048008F40038FA
:101D2000B8F5003F0ED1DFF8B480A8F10408D8F868
:101D3000008048EA0008DFF8A490A9F10409C9F876
:101D400000800DE0DFF89480A8F10408D8F8008046
:101D500028EA0008DFF88490A9F10409C9F8008096
:101D6000D1F8048008F48038B8F5803F0ED1DFF850
:101D70006C80A8F10808D8F8008048EA0008DFF86D
:101D80005C90A9F10809C9F800800DE0DFF84C80EB
:101D9000A8F10808D8F8008028EA0008DFF83C908D
:101DA000A9F10809C9F80080521CD1F8008028FA6E
:101DB00002F8B8F1000F7FF489AEBDE8F8870000A3
:101DC000000011100010024000080140000C01400A
:101DD00000100140001401400800014008040140C7
:101DE0000AB1016101E00B0403617047014800681A
:101DF000704700005000002003480068034909783C
:101E00000844014908607047500000205800002035
:101E100010B50848006840F010000649086003202B
:101E200000F0A8F80F2000F007F800F02BF80020D1
:101E300010BD00000020024070B504460E48007836
:101E40004FF47A71B1FBF0F00C490968B1FBF0F581
:101E5000284600F0F9FB08B1012070BD102C07D214
:101E600000222146501E00F047F80548046001E0BA
:101E70000120F2E70020F0E7580000205C0000207D
:101E80005400002008B500BF1148806940F00100EF
:101E90000F4988610846806900F00100009000BF8A
:101EA00000BF00BF0846C06940F08050C8610846C6
:101EB000C06900F08050009000BF00BF00BF05491E
:101EC000486820F0E06040F00070486000BF08BD46
:101ED000001002400000014001460846002809DBCE
:101EE00000F01F0301229A4043099B0003F1E02305
:101EF000C3F8002100BF70472DE9F05F80460D4612
:101F00001646002703F00CF8074639462A463346A2
:101F100001F00700C0F1070ABAF1040F02D94FF02F
:101F2000040A01E0C0F1070AD14600F1040ABAF13F
:101F3000070F02D24FF0000A01E0A0F1030AD446D5
:101F40004FF0010A0AFA09FAAAF1010A0AEA020A9A
:101F50000AFA0CFA4FF0010B0BFA0CFBABF1010B78
:101F60000BEA030B4AEA0B042146404602F0E0FF6D
:101F7000BDE8F09F00BF00F00702064B19684FF65E
:101F8000FF031940044B0B4343EA0221014B196044
:101F900000BF70470CED00E00000FA0570B5044684
:101FA0000D460CB9012070BD5A48006800F00700CA
:101FB000A8420ED25748006820F007002843554930
:101FC00008600846006800F00700A84201D0012020
:101FD000E9E7207800F0020002281DD1207800F007
:101FE0000400042805D14C48406840F4E0604A49A8
:101FF0004860207800F00800082805D1464840686D
:1020000040F46050444948604348406820F0F00084
:10201000A168084340494860207800F0010078B387
:102020006068012806D13C48006800F4003090B98F
:102030000120B8E76068022806D13748006800F040
:10204000007040B90120AEE73348006800F002009C
:1020500008B90120A7E73048406820F00300616814
:1020600008432D494860FFF7C1FE064609E0FFF727
:10207000BDFE801B41F28831884202D9032092E7DD
:1020800007E02548406800F00C006168B0EB810F64
:10209000EDD12048006800F00700A8420ED91D4885
:1020A000006820F0070028431A49086008460068C5
:1020B00000F00700A84201D0012074E7207800F06A
:1020C0000400042807D11448406820F4E060E16867
:1020D000084311494860207800F00800082808D11A
:1020E0000D48406820F46050216940EAC1000A4967
:1020F000486000F03FF808494968C1F30311074AF6
:10210000515CC8400649086006480068FFF794FE25
:10211000002048E7002002400010024066680008E6
:102120005C00002054000020014800687047000057
:102130005C00002000B5FFF7F7FF04494968C1F3D0
:102140000221034A515CC84000BD0000001002405B
:102150007668000800B5FFF7E7FF04494968C1F356
:10216000C221034A515CC84000BD0000001002407B
:102170007668000870B500210022002400230020AA
:10218000134D696801F00C05F5B1042D02D0082D3E
:1021900019D101E00F4819E00F4DC1F38346AB5D43
:1021A00001F4803555B10A4D6D68C5F340450B4EBD
:1021B000725D084D5D43B5FBF2F402E0084D03FB90
:1021C00005F4204602E000BF024800BF00BF70BD1A
:1021D0000010024000127A00546800086468000889
:1021E00000093D00F8B504460CB90120F8BD20787F
:1021F00000F00100002878D0F848406800F00C009A
:1022000004280CD0F548406800F00C00082811D1D3
:10221000F248406800F48030B0F5803F0AD1EF48C2
:10222000006800F4003000285FD0606800285CD1AE
:102230000120DBE700BF6068B0F5803F06D1E748CA
:10224000006840F48030E549086028E0606858B9CB
:10225000E248006820F48030E049086008460068E1
:1022600020F4802008601AE06068B0F5A02F0BD140
:10227000DA48006840F48020D849086008460068C1
:1022800040F4803008600AE0D448006820F48030D0
:10229000D24908600846006820F48020086000BF2A
:1022A000606888B1FFF7A2FD054606E0FFF79EFDD6
:1022B000401B642801D9032098E7C848006800F44F
:1022C00000300028F2D010E0FFF790FD054606E050
:1022D000FFF78CFD401B642801D9032086E7BF4827
:1022E000006800F400300028F2D1207800F00200ED
:1022F000022857D1B948406800F00C0050B1B748E7
:10230000406800F00C00082818D1B448406800F478
:10231000803098B9B148006800F0020020B120690F
:10232000012801D0012061E7AC48006820F0F800E6
:10233000616940EAC100A949086033E02069E8B159
:102340000120A7490860FFF751FD054606E0FFF7A9
:102350004DFD401B022801D9032047E79F48006834
:1023600000F002000028F2D09C48006820F0F8003D
:10237000616940EAC1009949086013E0002098496A
:102380000860FFF733FD054606E0FFF72FFD401B11
:10239000022801D9032029E79048006800F00200D4
:1023A0000028F2D1207800F0080008282DD1A0697B
:1023B000B8B101208B490860FFF718FD054606E01B
:1023C000FFF714FD401B022801D903200EE78348C4
:1023D000406A00F002000028F2D0012002F0F0F87C
:1023E00013E000207F490860FFF700FD054606E086
:1023F000FFF7FCFC401B022801D90320F6E67748D2
:10240000406A00F002000028F2D1207800F00400B9
:10241000042873D100277148C06900F0805070B95A
:1024200000BF6E48C06940F080506C49C8610846E2
:10243000C06900F08050009000BF00BF01276A48CB
:10244000006800F48070B0B96748006840F480709C
:1024500065490860FFF7CAFC054606E0FFF7C6FCC1
:10246000401B642801D90320C0E65F48006800F4DF
:1024700080700028F2D000BFE068012806D15748DC
:10248000006A40F001005549086227E0E06858B949
:102490005248006A20F00100504908620846006A6C
:1024A00020F00400086219E0E06805280BD14B48D1
:1024B000006A40F00400494908620846006A40F09A
:1024C000010008620AE04548006A20F00100434923
:1024D00008620846006A20F00400086200BFE06855
:1024E000A0B1FFF783FC054609E0FFF77FFC401B26
:1024F00041F28831884202D9032077E622E037484A
:10250000006A00F002000028EFD012E0FFF76EFC36
:10251000054608E0FFF76AFC401B41F2883188421B
:1025200001D9032062E62D48006A00F0020000286D
:10253000F0D1012F05D12948C06920F080502749EA
:10254000C86100BFE069C8B32448406800F00C00CF
:10255000082860D0E069022848D100202049086698
:10256000FFF744FC054606E0FFF740FC401B02284D
:1025700001D903203AE61948006800F000700028ED
:10258000F2D1206AB0F5803F07D11448406820F4AA
:102590000030A168084311494860D4E908010843A4
:1025A0000E49496821F4741108430C494860012020
:1025B0000B490866FFF71AFC054607E03DE0FFF708
:1025C00015FC401B022801D903200FE603480068D0
:1025D00000F000700028F2D02FE000000010024050
:1025E0000000424280044242007000400020144932
:1025F0000866FFF7FBFB054606E0FFF7F7FB401B0D
:10260000022801D90320F1E50E48006800F00070AF
:102610000028F2D111E0E069012800D1E6E509487F
:10262000466806F48031206A814204D106F47011B4
:10263000606A814201D00120D8E50020D6E5000083
:10264000000042420010024070B504462546681E54
:10265000B0F1807F01D301200FE0681E4FF0E02130
:1026600048610F214FF0FF3002F062FC00204FF074
:10267000E021886107200861002070BD7047704725
:1026800010B50346002200BF93F83C00012801D199
:10269000022010BD012083F83C0000BF22F0FF00A3
:1026A000CC6840EA040222F440708C6840EA0402DC
:1026B00022F480604C6840EA040222F400600C6856
:1026C00040EA040222F480500C6940EA040222F439
:1026D00000504C6940EA040222F48040CC6940EA90
:1026E00004021868426400BF002083F83C0000BF69
:1026F00000BFCEE730B502460B4600BF92F83C0063
:10270000012801D1022030BD012082F83C0000BF29
:10271000022082F83D00106844681068816824F047
:1027200070041868044310684460104D1068A84293
:102730000BD01068B0F1804F07D00D4D1068A84243
:1027400003D00C4D1068A84205D121F080015868D3
:10275000014310688160012082F83D0000BF002025
:1027600082F83C0000BF00BFCDE70000002C014014
:10277000000400400008004010B504460CB90120D8
:1027800010BD94F83D0028B9002084F83C00204694
:1027900000F026F8022084F83D00211D206801F099
:1027A00075FF012084F8460000BF84F83E00012137
:1027B0003F200155402001554120015500BF00BF79
:1027C000012084F842004320015544200155452052
:1027D000015500BF012084F83D000020D0E7000033
:1027E00038B504460D492068884215D100BF0C4811
:1027F000806940F400600A4988610846806900F4F5
:102800000060009000BF00BF002202211920FFF7E6
:1028100073FB1920FFF760FB38BD0000002C01405E
:1028200000100240014691F83D00012801D001202E
:102830007047022081F83D000868C06840F0010040
:102840000B68D860124B086898420BD00868B0F14A
:10285000804F07D00F4B0868984203D00E4B086892
:1028600098420CD10868806800F00702062A0CD054
:102870000868006840F001000B68186005E008680F
:10288000006840F001000B6818600020D0E70000ED
:10289000002C014000040040000800402DE9F041F8
:1028A00004460D46002700BF94F83C00012802D1E1
:1028B0000220BDE8F081012084F83C0000BF022026
:1028C00084F83D002068866826F0770626F47F4667
:1028D000206886602868502833D00CDC202850D02F
:1028E00004DC00284BD0102851D149E0302849D0D1
:1028F00040284CD139E060282DD0702807D0B0F5A1
:10290000805F03D0B0F5005F41D10DE041E0D5E933
:1029100002136A68206801F00CFF2068866846F0A0
:1029200077062068866034E0D5E902136A6820687B
:1029300001F0FFFE2068806840F4804021688860D4
:1029400027E0EA686968206801F0C4FF5021206828
:1029500001F0FAFE1DE0EA686968206801F0CDFF29
:102960006021206801F0F0FE13E0EA6869682068E1
:1029700001F0B0FF4021206801F0E6FE09E000BF51
:1029800000BF00BF2968206801F0DEFE01E00127DA
:1029900000BF00BF012084F83D0000BF002084F884
:1029A0003C0000BF384684E72DE9F04104460D465F
:1029B00014B90120BDE8F08194F83D0028B9002049
:1029C00084F83C00204600F051F8022084F83D00D5
:1029D0002068806844F20701884321688860211DCF
:1029E000206801F053FE2068D0F8088020688669CE
:1029F0002068076A286840EA080840F203308643E6
:102A0000A969A86840EA0120064340F60C408643C5
:102A10004FF2F0008643E969E86840EA0120064386
:102A200028690001296A40EA0130064327F022079D
:102A30006969686840EA011007432068C0F80880A7
:102A40002068866120680762012084F8460084F8C7
:102A50003E0001213F200155012084F8420043201F
:102A60000155012084F83D000020A3E710B586B091
:102A70000446002002900390049005902068B0F175
:102A8000804F2CD100BF3448C06940F0010032496A
:102A9000C8610846C06900F00100019000BF00BF96
:102AA00000BF0846806940F00400886108468069DC
:102AB00000F00400019000BF00BF0320029000203E
:102AC0000390049002A92548FEF7FAFF0022022194
:102AD0001C20FFF711FA1C20FFF7FEF93AE020490D
:102AE0002068884236D100BF1B48C06940F0020010
:102AF0001949C8610846C06900F00200019000BF92
:102B000000BF00BF0846806940F0080088610846A1
:102B1000806900F00800019000BF00BF30200290E3
:102B200000200390049002A90E48FEF7C9FF00BFE1
:102B30000D49486820F4406040F0E06040F40060D7
:102B4000486000BF002202211D20FFF7D5F91D209B
:102B5000FFF7C2F906B010BD0010024000080140A6
:102B600000040040000C0140000001402DE9F0434A
:102B700004460D4694F83E603F20075D94F842807D
:102B8000432010F804906DB9012E02D1B8F1010F65
:102B900002D00120BDE8F083022084F83E0084F8D2
:102BA000420025E0042D0CD1012F02D1B9F1010F13
:102BB00001D00120EEE702213F20015543200155BD
:102BC00016E0012E07D1012F05D1B8F1010F02D176
:102BD000B9F1010F01D00120DCE7022084F83E00AA
:102BE00002213F200155022084F842004320015574
:102BF00015B1042D0CD105E001220021206801F05F
:102C000087FD10E001220421206801F081FD0AE027
:102C100001220021206801F07BFD012204212068AF
:102C200001F076FD00BF00BF2068006840F00100A1
:102C3000216808600020ADE7704770B50446206841
:102C4000C5682068066906F00200022819D105F05F
:102C50000200022815D1401F216808610120207759
:102C60002068806900F0030018B12046FFF7E4FFF8
:102C700005E0204600F0C4F8204600F078F9002076
:102C8000207706F00400042819D105F00400042878
:102C900015D1C0432168086102202077206880692F
:102CA00000F4407018B12046FFF7C6FF05E020464B
:102CB00000F0A6F8204600F05AF90020207706F030
:102CC0000800082819D105F00800082815D1C043CC
:102CD00021680861042020772068C06900F00300A3
:102CE00018B12046FFF7A8FF05E0204600F088F85D
:102CF000204600F03CF90020207706F01000102854
:102D000019D105F01000102815D1C04321680861C1
:102D1000082020772068C06900F4407018B1204670
:102D2000FFF78AFF05E0204600F06AF8204600F031
:102D30001EF90020207706F0010048B105F00100DF
:102D400030B16FF0010021680861204600F0C8F939
:102D500006F08000802809D105F08000802805D188
:102D6000C043216808612046FFF788FC06F0400058
:102D7000402809D105F04000402805D1C043216812
:102D80000861204600F0E0F906F02000202809D173
:102D900005F02000202805D1C043216808612046A5
:102DA000FFF76DFC70BD000010B586B00446002032
:102DB00002900390049005900E492068884217D134
:102DC00000BF0D48806940F004000B498861084647
:102DD000806900F00400019000BF00BF4FF4407014
:102DE000029002200390059002A90448FEF768FEB5
:102DF00006B010BD002C0140001002400008014048
:102E000070472DE9F04104460D461646002700BFE5
:102E100094F83C00012802D10220BDE8F081012095
:102E200084F83C0000BF36B1042E1BD0082E31D0F0
:102E30000C2E5ED145E02946206801F08FFC206809
:102E4000806940F00800216888612068806920F06E
:102E50000400216888612068806929690843216825
:102E6000886148E02946206801F0A8FC2068806954
:102E700040F40060216888612068806920F48060E7
:102E80002168886120688069296940EA01202168F9
:102E9000886130E02946206801F0C4FC2068C069E0
:102EA00040F008002168C8612068C06920F0040073
:102EB0002168C8612068C069296908432168C86120
:102EC00019E02946206801F0E1FC2068C06940F45F
:102ED00000602168C8612068C06920F480602168B2
:102EE000C8612068C069296940EA01202168C86179
:102EF00001E0012700BF00BF00BF002084F83C00B4
:102F000000BF384689E710B504460CB9012010BD52
:102F100094F83D0028B9002084F83C00204600F0D9
:102F200025F8022084F83D00211D206801F0AEFB49
:102F3000012084F8460000BF84F83E0001213F20B4
:102F40000155402001554120015500BF00BF01201F
:102F500084F8420043200155442001554520015585
:102F600000BF012084F83D000020D0E77047704783
:102F700070B504460D4615B994F83E000BE0042DDB
:102F800002D13F20005D06E0082D02D14020005D07
:102F900001E04120005D012801D0012070BD1DB974
:102FA000022084F83E000EE0042D03D102213F20D0
:102FB000015508E0082D03D102214020015502E00F
:102FC00002214120015501222946206801F0A0FB81
:102FD00019492068884201D1012000E0002028B171
:102FE0002068406C40F40040216848641249206821
:102FF00088420BD02068B0F1804F07D00F4920687D
:10300000884203D00E49206888420CD1206880682D
:1030100000F00706062E0CD02068006840F0010082
:103020002168086005E02068006840F00100216820
:1030300008600020B2E70000002C014000040040BE
:103040000008004030B504460D460022294620689D
:1030500001F05EFB21492068884201D1012000E097
:10306000002090B100BF2068006A41F211110840B1
:1030700050B92068006A8910084028B92068406C5F
:1030800020F400402168486400BF00BF2068006A47
:1030900041F21111084050B92068006A89100840B7
:1030A00028B92068006820F001002168086000BF8E
:1030B0001DB9012084F83E000EE0042D03D101214A
:1030C0003F20015508E0082D03D101214020015582
:1030D00002E0012141200155002030BD002C0140BB
:1030E0002DE9F04782461448824523D1134802F067
:1030F000D5FA134802F0D2FA1049F8311048F830E6
:10310000D1E906432246D0E90661304602F098FD37
:10311000804600224FF0804302F04EFE094A03C26F
:10312000084903C9054AF832C2E90601044AF832DF
:10313000C2E90601BDE8F0878803002020020020D4
:10314000B8000020180000207047F8B504460D466E
:10315000164694F8420020282DD105B10EB9012061
:10316000F8BD0120206300206063324629462046D6
:1031700001F0CAFD0746206B012819D100BF0020CD
:10318000009020680068009020684068009000BFB0
:1031900000BF00BF00BF21680C3151E8001F41F0A3
:1031A000100021680C3141E80002002AF3D100E050
:1031B00001273846D4E70220D2E7000070B5044664
:1031C0000D460D48844216D10C4800780C49087011
:1031D0000A48401C01F048FF0A4A03C20A22074974
:1031E0000548FFF7B2FF08480068006820F00400B7
:1031F00005490968086070BDF0040020A80000209F
:103200000000002008000020380500207047000062
:103210002DE9F84F0446206805682068C6682068D4
:1032200047694FF00009CA4605F00F09B9F1000FD0
:103230000AD105F0200038B106F0200020B1204668
:1032400001F066FCBDE8F88FB9F1000F7BD007F004
:10325000010018B906F49070002874D005F0010040
:1032600030B106F4807018B1606C40F00100606409
:1032700005F0040030B107F0010018B1606C40F0B7
:103280000200606405F0020030B107F0010018B1DF
:10329000606C40F00400606405F0080048B106F07E
:1032A000200010B907F0010018B1606C40F0080070
:1032B0006064606C002845D005F0200028B106F05D
:1032C000200010B1204601F023FC20684069C0F3C3
:1032D000801A606C00F0080010B9BAF1000F2CD011
:1032E000204601F0BCFB2068406900F0400000B3BC
:1032F00000BF00BF2168143151E8001F21F04000D9
:103300002168143141E80002002AF3D100BFE06BCC
:1033100050B17748E16B4863E06BFEF729FA88B15A
:10332000E06B416B88470DE02046FFF76FFF09E037
:1033300009E02046FFF76AFF04E02046FFF766FF3A
:10334000002060647EE7206B012877D105F0100033
:10335000002873D006F010000028FAD000BF00202B
:10336000009020680068009020684068009000BFCE
:1033700000BF2068406900F0400000285FD0E06B8B
:10338000006840681FFA80F8B8F1000F55D0A08D92
:10339000404552DDA4F82E80E06B8069202843D0A0
:1033A00000BF00BF21680C3151E8001F21F480707C
:1033B00021680C3141E80002002AF3D100BF00BFB0
:1033C00000BF2168143151E8001F21F0010021687D
:1033D000143141E80002002AF3D100BF00BF00BF52
:1033E0002168143151E8001F21F040002168143198
:1033F00041E80002002AF3D100BF202084F84200F7
:103400000020206300BF00BF21680C3151E8001F7D
:1034100021F0100021680C3141E80002002AF3D1AC
:1034200000BFE06BFEF778F902206063A08DE28DAB
:10343000801A81B22046FFF7C1FE03E742E0A08D6B
:10344000E18D401A1FFA80F8E08DD0B3B8F1000F7B
:1034500037D000BF00BF21680C3151E8001F21F4B4
:10346000907021680C3141E80002002AF3D100BFBE
:1034700000BF00BF2168143151E8001F21F0010096
:103480002168143141E80002002AF3D100BF202056
:1034900084F842000020206300BF00BF21680C3187
:1034A00051E8001F21F0100021680C3141E80002B2
:1034B000002AF3D100BF0220606341462046FFF797
:1034C0007DFEBFE605F0800030B106F0800018B147
:1034D000204601F09DFCB5E605F0400030B106F055
:1034E000400018B1204601F0F0FAABE600BFA9E6B3
:1034F0002349000810B504460CB9012010BDA0698D
:1035000000B100E000BF94F8410028B9002084F821
:103510004000204600F02AF8242084F8410020686A
:10352000C06820F400502168C860204601F06EFB9E
:103530002068006920F49040216808612068406993
:1035400020F02A00216848612068C06840F40050DB
:103550002168C86000206064202084F8410084F85D
:1035600042000020606300BFC8E7000010B586B0CD
:103570000446002002900390049005907249206850
:10358000884236D100BF7148806940F480406F495D
:1035900088610846806900F48040019000BF00BF48
:1035A00000BF0846806940F00800886108468069CD
:1035B00000F00800019000BF00BF402002900220F0
:1035C00003900320059002A96148FEF779FA802054
:1035D000029000200390049002A95D48FEF770FA63
:1035E00000BF5C49486840F0E06040F0040048607B
:1035F000A8E059492068884236D100BF5348C069C5
:1036000040F400305149C8610846C06900F40030F8
:10361000019000BF00BF00BF0846806940F0040071
:1036200088610846806900F00400019000BF00BF77
:1036300004200290022003900320059002A947482D
:10364000FEF73EFA0820029000200390049002A9A1
:103650004248FEF735FA002201212620FEF74CFCF5
:103660002620FEF739FC6DE03D492068884269D18B
:1036700000BF3648C06940F480203449C86108461C
:10368000C06900F48020019000BF00BF00BF084661
:10369000806940F0080088610846806900F00800F1
:1036A000019000BF00BF0815029002200390032084
:1036B000059002A92648FEF703FA4FF40060029035
:1036C00000200390049002A92148FEF7F9F925484B
:1036D000254908600020486000212348816080213E
:1036E000C1600021016141618161C161FEF766F93C
:1036F00008B1FEF70EF800BF1B48E063446200BF4C
:1037000018481438194908601020486000211748EB
:1037100081608021C1600021016141618161C161DD
:10372000FEF74CF908B1FDF7F4FF00BF0F48A063A6
:10373000446200BF002211462720FEF7DDFB272050
:10374000FEF7CAFB06B010BD003801400010024071
:10375000000C01400000014000440040000801400E
:103760000048004030000240380500207C05002061
:1037700070B504460D46164694F8420020280BD139
:1037800005B10EB9012070BD0020206332462946E4
:10379000204601F01DFBF6E70220F4E770B5054670
:1037A000FE492868884275D1FD480478FD480078B4
:1037B00004280BDAAA2C05D1FA480078401CF949F4
:1037C0000870CBE00020F7490870C7E0F5480078A2
:1037D0000A2870DAF348007803286CDDF148007895
:1037E000001F062868D2DFE800F003156E80929F64
:1037F00054B9EC480078401CEA490870EA4800785F
:103800002044E9490870A1E00020E6490870E64933
:10381000087000BF022C0DD10220E4490870E14875
:103820000078401CDF490870DF4800782044DE49FA
:1038300008708BE00D2C0DD10D20DC490870D948A3
:103840000078401CD7490870D74800782044D649F2
:1038500008707BE00F2C0DD10F20D4490870D1489F
:103860000078401CCF490870CF4800782044CE49EA
:1038700008706BE0102C0ED11020CC490870C9489C
:103880000078401CC7490870C74800782044C649E2
:1038900008705BE0A3E2142C0FD11420C349087018
:1038A000C0480078401CBF490870BF4800782044D9
:1038B000BD4908704AE04AE047E00020B949087075
:1038C000B949087000BF54B9B6480078401CB549E2
:1038D0000870B54800782044B349087036E00020ED
:1038E000B0490870B049087000BF54B9AD480078BD
:1038F000401CAC490870AC4800782044AA490870C4
:1039000024E00020A7490870A749087000BFA84814
:103910000470A4480078401CA2490870A2480078AE
:103920002044A149087011E0A148007800EB042070
:103930009F4908709B480078401C9A4908709A4833
:10394000007820449849087000E000BF06E09548E0
:1039500000780A2802D10020964908709348007820
:1039600002287DD1934800780028FAD18D4800784C
:10397000092875DD8B480078BE2872DA89480078FE
:103980000A380F2190FBF1F201FB12008A490870FE
:10399000084600780F287DD2DFE800F0081A364983
:1039A000697D9AB7D4E7FEFDFCFBFA0083480078F6
:1039B00000EB8000824921F820407B4800782044B9
:1039C0007949087077480078401C7649087087E18B
:1039D0007A48007800EB8000794931F8200000EB4C
:1039E000042000B27549097801EB8101744A22F87C
:1039F00021006D48007820446B49087069480078C0
:103A0000401C684908706BE16C48007800EB80004E
:103A10006B4901EB80004480634800782044624990
:103A2000087060480078401C5E49087058E163489F
:103A3000007800EB8000624901EB8000408800EBD9
:103A400004205E49097801EB81015D4A02EB8101A6
:103A5000488055480078204453490870514801E097
:103A6000B8E13EE10078401C4E49087038E1534807
:103A7000007800EB8000524901EB800044604A4826
:103A8000007820444849087046480078401C454961
:103A9000087025E123E14948007800EB800048499F
:103AA00001EB8000406800EB04204449097801EBF9
:103AB0008101434A02EB810148603B480078204481
:103AC0003949087037480078401C3649087007E1CA
:103AD0003A48007800EB8000394901EB80004068EB
:103AE00000EB04403549097801EB8101344A02EBCF
:103AF000810148602C48007820442B4908702948EF
:103B00000078401C27490870EAE02C48007800EB58
:103B100080002B4901EB8000406800EB04602749DE
:103B2000097801EB8101264A02EB810148601E48B9
:103B3000007820441C4908701A480078401C194934
:103B40000870CDE01D48007800EB80001C4901EBB7
:103B5000800004721448007820441349087011480A
:103B60000078401C0F490870BAE01448007800EB58
:103B70008000134901EB8000C4600B4800782044AA
:103B80000949087007480078401C06490870A7E0FA
:103B900082E06EE050E032E014E0000000440040BB
:103BA000410000204200002043000020450000208A
:103BB000460000204C0000204D0000204400002062
:103BC000880600208648007800EB8000854901EBDC
:103BD0008000C06800EB04208149097801EB810175
:103BE000804A02EB8101C8607F48007820447E490A
:103BF00008707E480078401C7C49087070E0784866
:103C0000007800EB8000774901EB8000C06800EB92
:103C100004407349097801EB8101724A02EB81018A
:103C2000C8607148007820446F4908706F48007878
:103C3000401C6E49087053E06948007800EB800032
:103C4000684901EB8000C06800EB046064490978B2
:103C500001EB8101634A02EB8101C8606248007890
:103C600020446149087061480078401C5F49087031
:103C700036E05B48007800EB80005A4901EB800099
:103C80000482594800782044574908705748007802
:103C9000401C5649087023E05148007800EB800032
:103CA000504901EB8000008A00EB042000B24C492F
:103CB000097801EB81014B4A02EB810108824A48F5
:103CC000007820444849087048480078401C47491B
:103CD000087043480078401C4149087000E000BF6C
:103CE00000BF42480078BF280CD1414804603F48DB
:103CF0000078401C3D4908703B48007820443A4910
:103D000008705EE039480078C02810D13848006853
:103D100000EB04203649086034480078401C3349E1
:103D200008703148007820442F49087049E02F4836
:103D30000078C12810D12E48006800EB04402C49BF
:103D400008602A480078401C2849087026480078F6
:103D500020442549087034E024480078C22810D156
:103D60002348006800EB0460214908601F48007880
:103D7000401C1E4908701C48007820441A490870ED
:103D80001FE01A480078C3281BD1174800788442E6
:103D90000CD101F07FF917480088401C15490880B4
:103DA00008460088012801DD0120088000200E4916
:103DB00008700E49087001200F490870002008495A
:103DC00008700A480078BE2804D108480078401CD2
:103DD00006490870012209490948FFF7C9FC70BD6E
:103DE00044000020880600204300002042000020FC
:103DF000480000202C0000204C0000204100002042
:103E0000A804002070472DE9F84F04460E461746D7
:103E100099464FF0000A94F84100202850D106B18D
:103E200017B90120BDE8F88F00206064212084F8D4
:103E30004100FDF7DBFF8246A784E784A068B0F568
:103E4000805F04D1206910B90025B04602E03546F4
:103E50004FF000081EE05346002280212046CDF896
:103E6000009001F005F820B1202084F841000320E3
:103E7000D8E745B9B8F80000C0F3080021684860E9
:103E800008F1020803E02878216848606D1CE08C86
:103E9000401EE084E08C0028DDD153460022402102
:103EA0002046CDF8009000F0E3FF20B1202084F8F8
:103EB00041000320B6E7202084F841000020B1E74C
:103EC0000220AFE7704700BFFEE7000008B500BF63
:103ED0000E48406940F001000C49486108464069BD
:103EE00000F00100009000BF00BF002211460C202E
:103EF000FEF702F80C20FDF7EFFF002211460D201F
:103F0000FDF7FAFF0D20FDF7E7FF08BD00100240A6
:103F100000B585B00020019002900390049000BF8E
:103F20001D48806940F020001B498861084680696F
:103F300000F02000009000BF00BF00BF084680696D
:103F400040F0040088610846806900F00400009099
:103F500000BF00BF00BF0846806940F008008861CC
:103F60000846806900F00800009000BF00BF0022F2
:103F70004FF446610948FDF733FF4FF44660019066
:103F800001200290002003900220049001A9034820
:103F9000FDF796FD05B000BD00100240000801408D
:103FA00000B595B0002011901290139014900F90CE
:103FB00010901C2108A8FCF74BF920216846FCF75B
:103FC00047F92F482F49086040F2CF204860002170
:103FD0002C48816040F2E731C160002101614161FC
:103FE0008161FEF7C9FB08B1FDF793FB4FF48050E8
:103FF000119011A92348FEF751FC08B1FDF789FB88
:104000002048FEF780FF08B1FDF783FB00200F90EA
:1040100010900FA91B48FEF76DFB08B1FDF779FB67
:1040200060200890002009900A900B900C900D9051
:104030000E90002208A91348FEF7E3FE08B1FDF731
:1040400068FB042208A90F48FEF7DBFE08B1FDF764
:1040500060FB0020009001900290039004904FF4C8
:10406000005005900020079069460648FEF708FBBF
:1040700008B1FDF74EFB0348FEF796FE15B000BDF4
:10408000002C01408803002000B58BB0242102A839
:10409000FCF7DEF80020009001904FF080401749B7
:1040A0000860002048600021144881604FF6FF71CD
:1040B000C160002101618161032002900020039012
:1040C00001200490002005900690079001200890A0
:1040D000002009900A9002A90848FEF765FC08B183
:1040E000FDF717FB00200090019069460348FEF79A
:1040F00001FB08B1FDF70DFB0BB000BDD0030020A4
:1041000000B58BB0242102A8FCF7A2F80020009093
:10411000019018481849086000204860002116489E
:1041200081604FF6FF71C160002101618161032050
:10413000029000200390012004900020059006903A
:10414000079001200890002009900A9002A90A48CF
:10415000FEF72AFC08B1FDF7DCFA00200090019080
:1041600069460548FEF7C6FA08B1FDF7D2FA0BB06A
:1041700000BD0000000400401804002010B50B48EA
:104180000B4908604FF4E130486000210848816025
:10419000C16001610C21416100218161C161FFF7B2
:1041A000A9F908B1FDF7B5FA10BD000000380140CB
:1041B0006004002010B50B480B4908604FF46130D3
:1041C0004860002108488160C16001610C214161A3
:1041D00000218161C161FFF78DF908B1FDF799FAFE
:1041E00010BD000000440040A804002010B50B489A
:1041F0000B4908604FF4E1304860002108488160B5
:10420000C16001610C21416100218161C161FFF741
:1042100071F908B1FDF77DFA10BD000000480040BB
:10422000F004002000BFFEE700BFFEE72DE9F047E5
:104230008AB08246DAF81860DAF81C30DAF82040E2
:10424000DAF824103246204602F00AF9CAF82800AB
:10425000CAF82C10DAF83860DAF83C303246002020
:104260004FF0804101F0BCFF0446DAF82860DAF82C
:104270002C30324602F0E8F8CDE90201DAF830409D
:10428000DAF83430224601F0DBFC8046DAF81040E0
:10429000DAF81430224601F0A3FFCDE90601DAF87E
:1042A0002860DAF82C30DAF80840DAF80C103246D8
:1042B000204601F095FFCDE90201DAF83840DAF83E
:1042C0003C30DAF82860DAF82C102246304602F04A
:1042D000C7F88046DAF80040DAF80430224601F0E8
:1042E0007FFFCDE90001DDE9022301F0A9FCCDE962
:1042F0000401DDE9062301F0A3FCCDE90801DAF8A9
:104300004040DAF84430224601F09AFCCAF84000F6
:10431000CAF84410DAF83810DAF83C00CAF830105D
:10432000CAF83400DAF81860DAF81C30DAF82040FD
:10433000DAF824103246204602F092F8CAF8380023
:10434000CAF83C10DAF84860DAF84C30DAF8404045
:10435000DAF844103246204602F040F807D2DAF884
:104360004800DAF84C10CAF84000CAF84410DAF8ED
:104370004840DAF84C1081F00041DAF84060DAF891
:1043800044303246204602F029F809D2DAF84800D3
:10439000DAF84C1081F00041CAF84000CAF8441025
:1043A0000AB0BDE8F087000000221049C0E90021F2
:1043B0004FF033320E49C0E9022152000D49C0E9E5
:1043C000042100218161C161002202624262826295
:1043D000C262026342638263C2630264426406494A
:1043E000C0E91221026542657047000000002440C8
:1043F0003333E33F6666F63F00408F4000220F49AB
:10440000C0E900210E4A0F49C0E902210E49C0E966
:10441000042100218161C161002202624262826244
:10442000C262026342638263C263026442640749F8
:10443000C0E9122102654265704700000000F03FAC
:104440009A9999999999E93F9999D93F00408F4054
:104450002DE9F04786B08246DAF81860DAF81C30A9
:10446000DAF82040DAF824103246204601F0F8FF4E
:10447000CAF82800CAF82C10DAF83840DAF83C30CC
:10448000DAF82860DAF82C102246304601F0E8FF0E
:104490008046DAF81040DAF81430224601F0A0FE27
:1044A000CDE90401DAF85840DAF85C30DAF808604F
:1044B000DAF80C102246304601F092FE804689461A
:1044C000DAF82840DAF82C30DAF80060DAF804106C
:1044D0002246304601F084FE42464B46CDE90001BB
:1044E00001F0AEFBCDE90201DDE9042301F0A8FBF8
:1044F000CAF84000CAF84410DAF82860DAF82C301C
:10450000DAF85840DAF85C103246204601F098FBA1
:10451000CAF85800CAF85C10DAF85820DAF85C10CB
:104520001046FBF75FFE642805DD00202249CAF82B
:104530005800CAF85C10DAF83810DAF83C00CAF80B
:104540003010CAF83400DAF82810DAF82C20CAF84B
:104550003810CAF83C20DAF84860DAF84C30DAF85B
:104560004040DAF844103246204601F037FF07D2C7
:10457000DAF84800DAF84C10CAF84000CAF84410DB
:10458000DAF84840DAF84C1081F00041DAF840607F
:10459000DAF844303246204601F020FF09D2DAF83A
:1045A0004800DAF84C1081F00041CAF84000CAF81F
:1045B000441006B0BDE8F087000059407047000085
:1045C00008B508490968C9084FF47A72B1FBF2F1DD
:1045D0004143009100BF00BF00994A1E009200298C
:1045E000F9D108BD5C000020704710B5FDF704FC50
:1045F00010BD00B58FB0282105A8FBF729FE1421B6
:104600006846FBF725FE0120059000040690002077
:1046100007900120099002200C90C1030D914FF4E6
:10462000E0110E9105A8FDF7DDFD08B1FDF771F869
:104630000F20009002200190002002904FF4806033
:1046400003900020049002216846FDF7A7FC08B102
:10465000FDF75FF80FB000BD7047000010B50248CD
:10466000FEF7EBFA10BD00008803002010B50248E9
:10467000FEF7E3FA10BD0000D003002010B5024899
:10468000FEF7DBFA10BD00001804002010B5026828
:104690001C4B984208D0B0F1804F05D01A4B98427D
:1046A00002D01A4B984203D122F070024B681A4391
:1046B000144B984208D0B0F1804F05D0124B98426D
:1046C00002D0124B984203D122F44072CB681A43B5
:1046D00022F080034C6943EA040202608B68C362E3
:1046E0000B688362074B984201D10B690363012376
:1046F0004361036903F001031BB1036923F0010364
:10470000036110BD002C014000040040000800407F
:1047100030B501F01F05012404FA05F3046A9C4337
:104720000462046A01F01F0502FA05F52C430462D5
:1047300030BD30B50C46816821F47F4142EA032543
:1047400025432943816030BD0A46816821F070010C
:1047500042F00703194381607047000030B5026AD8
:10476000056A25F0010505624368846924F0700438
:1047700024F003040D682C4322F002028D682A43C2
:104780000D4DA84206D100BF22F00802CD682A4391
:1047900022F00402084DA84207D123F4807323F4C9
:1047A00000734D692B438D692B43436084614D68D1
:1047B0004563026230BD0000002C014030B5026A42
:1047C000056A25F0100505624368846924F4E04415
:1047D00024F440740D6844EA052422F020028D6818
:1047E00042EA05120E4DA84207D100BF22F0800216
:1047F000CD6842EA051222F04002094DA84209D1D3
:1048000023F4806323F400634D6943EA85038D69D3
:1048100043EA8503436084614D688563026230BD6D
:10482000002C014030B5026A056A25F480750562E6
:104830004368C46924F0700424F003040D682C4319
:1048400022F400728D6842EA05220F4DA84207D17A
:1048500000BF22F40062CD6842EA052222F48062A1
:10486000094DA84209D123F4805323F400534D6924
:1048700043EA05138D6943EA05134360C4614D683B
:10488000C563026230BD0000002C014030B5036AF0
:10489000056A25F4805505624468C26922F4E04245
:1048A00022F440720D6842EA052223F400538D6819
:1048B00043EA0533064DA84204D124F480444D69EF
:1048C00044EA85144460C2614D680564036230BDEA
:1048D000002C014030B50B461446026A056A25F0EB
:1048E00001050562816921F0F00141EA041122F01D
:1048F0000A021A438161026230BD30B50B4614468C
:10490000026A056A25F010050562816921F470418B
:1049100041EA043122F0A00242EA031281610262FC
:1049200030BD70B505466C6A0020E085E084204605
:10493000FEF76CFC70BD70B506460025746A2068F1
:104940004069C0F3C01594F84100212805D125B174
:104950000020E084204600F0C8F820684069C0F3D9
:10496000801594F84200222805D125B10020E08569
:10497000204600F074F8606C40F01000606420463F
:10498000FEF744FC70BD70B505466C6A2868006887
:1049900000F02000002842D1E08500BF00BF216860
:1049A0000C3151E8001F21F4807021680C3141E87E
:1049B0000002002AF3D100BF00BF00BF21681431FC
:1049C00051E8001F21F001002168143141E8000284
:1049D000002AF3D100BF00BF00BF2168143151E8A5
:1049E000001F21F040002168143141E80002002A34
:1049F000F3D100BF202084F84200206B01280ED1A3
:104A000000BF00BF21680C3151E8001F21F01000E9
:104A100021680C3141E80002002AF3D100BF0020D8
:104A20006063206B012804D1A18D2046FEF7C6FBF0
:104A300002E02046FEF7B2FE70BD70B505466C6A16
:104A400001206063206B012805D1A08D410820461C
:104A5000FEF7B4FB02E02046FFF7D4F970BD00BFBB
:104A600000BF02680C3252E8002F22F490710268F5
:104A70000C3242E80013002BF3D100BF00BF00BF8F
:104A80000268143252E8002F22F001010268143249
:104A900042E80013002BF3D100BF016B01290ED1B6
:104AA00000BF00BF02680C3252E8002F22F0100154
:104AB00002680C3242E80013002BF3D100BF202122
:104AC00080F8421000210163704710B50446206849
:104AD000C06820F040002168C860202084F84100B0
:104AE0002046FFF7EFF9002010BD00BF00BF0268AD
:104AF0000C3252E8002F22F0C00102680C3242E86A
:104B00000013002BF3D100BF202180F84110704723
:104B1000F8B5044694F84200222875D1A068B0F593
:104B2000805F0CD1206950B90025A66A20684068D2
:104B3000C0F308003080A06A801CA06215E0A56A5E
:104B40000026A068B0F5805F03D0A06828B920696E
:104B500018B920684068287004E02068406800F0B8
:104B60007F002870A06A401CA062E08D401E80B2C9
:104B7000E085002846D12068C06820F02000216828
:104B8000C8602068C06820F480702168C860206810
:104B9000406920F0010021684861202084F842002B
:104BA00000206063206B012826D10020206300BF15
:104BB00000BF21680C3151E8001F21F0100021686E
:104BC0000C3141E80002002AF3D100BF20680068E0
:104BD00000F0100010280AD100BF002000902068CB
:104BE0000068009020684068009000BF00BFA18D61
:104BF0002046FEF7E3FA02E02046FEF7CFFD002054
:104C0000F8BD01E00020FBE70220F9E770B504469B
:104C10002168096921F44051E26811432268116159
:104C20002269A1681143626941EA02052168C968E5
:104C300041F20C62914329432268D160216849699D
:104C400021F44071A2691143226851612D4A216803
:104C5000914202D1FDF77EFA01E0FDF76BFA00EB1D
:104C6000C00101EB001162689200B1FBF2F100EBB0
:104C7000C00202EB001263689B00B2FBF3F26423F4
:104C8000B2FBF3F202EBC20303EB0212A1EB8201CF
:104C9000322202EB01116422B1FBF2F101F0F001CA
:104CA00000EBC00202EB001263689B00B2FBF3F260
:104CB0006423B2FBF3F201EB021200EBC00101EB43
:104CC000001163689B00B1FBF3F100EBC00303EB41
:104CD00000136668B600B3FBF6F36426B3FBF6F385
:104CE00003EBC30606EB0313A1EB8301322303EBB3
:104CF00001116423B1FBF3F101F00F0111442268AB
:104D0000916070BD0038014077B581B0044615460A
:104D10000298A062A58500206064222084F84200E9
:104D20002848E16B88622848E16BC8622748E16B3C
:104D300008630020E16B486302AE32682368191DE6
:104D40002B46E06BFCF76EFE00BF00200090206851
:104D50000068009020684068009000BF00BF206994
:104D600070B100BF00BF21680C3151E8001F41F451
:104D7000807021680C3141E80002002AF3D100BFA5
:104D800000BF00BF2168143151E8001F41F001004D
:104D90002168143141E80002002AF3D100BF00BFAE
:104DA00000BF2168143151E8001F41F04000216824
:104DB000143141E80002002AF3D100BF002004B002
:104DC00070BD0000874900083B4A000837490008C9
:104DD00010B5034699629A85DA850020586422202E
:104DE00083F84200186928B11868C06840F48070E0
:104DF0001C68E0601868406940F001001C68606150
:104E00001868C06840F020001C68E060002010BDF9
:104E1000014691F84100212828D18868B0F5805FCB
:104E20000BD1086948B90A6A1088C0F308000B68FA
:104E30005860086A801C086205E00B6A581C08620A
:104E400018780B685860C88C401E80B2C88458B966
:104E50000868C06820F080000B68D8600868C068E7
:104E600040F040000B68D860002070470220FCE74B
:104E70002DE9F84304460D4617469846089E31E052
:104E8000701C70B3FCF7B2FFA0EB0800B04200D872
:104E900016B90320BDE8F8832068C06800F004005C
:104EA000F8B1802D1ED0402D1CD020680068C0F3C2
:104EB000C000B0B100BF00200090206800680090E2
:104EC00020684068009000BF00BF2046FFF7C7FD84
:104ED0000820606400BF002084F8400000BF01206B
:104EE000D8E7FFE7206800682840A84201D10120E8
:104EF00000E00020B842C3D00020CBE710B5024844
:104F0000FEF786F910BD0000A804002010B5024885
:104F1000FEF77EF910BD0000F004002000BFFEE7A0
:104F200002480068C0F30220704700000CED00E06A
:104F300010B5002804DB0A07130E054A135406E0D7
:104F40000A07140E034A00F00F031B1FD45410BDB0
:104F500000E400E018ED00E040F2013200204FF0E4
:104F6000E04101F02BBC0000024A0020110701F0D3
:104F700025BC000001FDFFFF10B50446D1E900018A
:104F800000F002F8206010BDF8B504460D466A46F0
:104F900000F038F900987E30009000281EDC0022D6
:104FA00013462046294601F05FF817D0002140F64D
:104FB00008004FF0000006462046294600F00EFE8D
:104FC000044640F6080006EA00014FF0000034F005
:104FD000004004BF0220FBF76AF929E00098FF288F
:104FE00028DB002108464FF0000000F440060022B4
:104FF00013462046294601F0F1F98CBF0025012512
:105000000220FBF754F94FF0FF4446B1002D0CBFCE
:105010004FF400004FF48000B04218BF084C042148
:1050200008464FF00000002D04BF84F00040F8BD9A
:105030002046F8BD20462946BDE8F84000F0CEBD28
:10504000FFFF7F7F10B504460A46D4E900031946E6
:1050500000F004F9C4E9000110BD30380A2801D27B
:10506000012070470020704730B583B00446FBF73D
:1050700019F905460020CDE90000024621466846A0
:10508000FBF73AF92846FBF712F9DDE9000103B016
:1050900030BD000000204FE000EB80014A4A32F8AA
:1050A0002110002946D049490988491C474A1180E6
:1050B00000EB8001444A32F92110454A126811443C
:1050C000434A116000EB80013F4A02EB81014988AD
:1050D000404A126811443F4A116000EB80013A4A8D
:1050E00002EB810149683C4A126811443A4A116056
:1050F00000EB8001344A02EB8101097A374A1268D9
:105100001144364A116000EB80012F4A02EB810105
:10511000C968334A12681144314A116000EB8001BA
:10512000294A02EB8101B1F910102E4A126811448C
:105130002C4A1160411CC8B20C28ADDB23490988F8
:10514000002940D022490968204A1288B1FBF2F1B7
:10515000254A11801F4909681C4A1288B1FBF2F1E7
:10516000224A11801C490968184A1288B1FBF2F1E1
:105170001F4A116019490968144A1288B1FBF2F1FB
:105180001C4A117016490968104A1288B1FBF2F1E5
:10519000194A1160134909680C4A1288B1FBF2F1EF
:1051A000164A11800021094A1180154A1160084AE7
:1051B0001160084A1160084A1160084A1160084AE3
:1051C0001160084A1160704788060020880000209E
:1051D0009000002094000020980000209C000020F7
:1051E000A0000020A4000020300000203200002099
:1051F000380000202E0000203C0000203400002059
:105200008C00002010B5144600222260114A21F0C3
:1052100000439342A8BF10BD53EA000208BF10BD6F
:10522000B3F5801FA8BF226807DA362201F0C6FA5C
:105230006FF0350221F000432260DFF81CC06FF3ED
:105240001E510CEB23531A4441F0FF5141F0005121
:10525000226010BD0000F07F02FCFFFF2DE9F0414D
:1052600006460C4640F2FF75174635EA14502BD01F
:1052700000221346304600F0F7FE25D03A4630466D
:10528000214601F09BFA06460C4635EA145010D030
:1052900000221346304600F0E7FE15D10220FBF74E
:1052A00006F8FFF761FE0A46214662F31E01BDE8DB
:1052B000F0810220FAF7FBFFFFF74EFE0A46214677
:1052C00062F31E01BDE8F08130462146BDE8F08161
:1052D000C6B0FCF79DFDFFF78CF9FEF719FEFEF74F
:1052E000F5FDFEF75DFEFEF7CFFEFEF709FFFEF7C8
:1052F0007DFFFEF75FFFFEF741FF3D229A4934A88C
:10530000FAF774FF984890F83D008DF80D01964823
:1053100090F83E008DF80E01934890F83F108DF8FC
:105320000F1190F840108DF8101190F841108DF881
:10533000111190F842008DF812018B4890F843103B
:105340008DF8131190F844108DF8141190F8451051
:105350008DF8151190F846008DF816013D2283490D
:1053600022A8FAF743FF814890F83D008DF8C50068
:105370007E4890F83E008DF8C6007C4890F83F10BB
:105380008DF8C71090F840108DF8C81090F84110B3
:105390008DF8C91090F842008DF8CA00734890F853
:1053A00043108DF8CB1090F844108DF8CC1090F885
:1053B00045108DF8CD1090F846008DF8CE006C4861
:1053C00000214822CDE9201034A90EA8FAF70EFFDB
:1053D000382226A96846FAF709FF22A80FC800F06C
:1053E000E7F83D22604934A8FAF700FF5E4890F8DC
:1053F0003D008DF80D015C4890F83E008DF80E01DF
:10540000594890F83F108DF80F1190F840108DF822
:10541000101190F841108DF8111190F842008DF89C
:105420001201514890F843108DF8131190F8441070
:105430008DF8141190F845108DF8151190F846006C
:105440008DF816013D224B4922A8FAF7CFFE4948B4
:1054500090F83D008DF8C500464890F83E008DF864
:10546000C600444890F83F108DF8C71090F84010DF
:105470008DF8C81090F841108DF8C91090F84200CE
:105480008DF8CA003B4890F843108DF8CB1090F887
:1054900044108DF8CC1090F845108DF8CD1090F890
:1054A00046008DF8CE00344804214822CDE9201072
:1054B00034A90EA8FAF79AFE382226A96846FAF708
:1054C00095FE22A80FC800F073F82748FDF7AAF947
:1054D000274800F007FA284800F004FA0A22274972
:1054E0002748FDF732FE012226492748FEF740F9FA
:1054F00026480068006820F0040024490968086014
:1055000030E02020224B4022194600901A4800F03B
:1055100005FA4FF400601E4B4210194600901448E3
:1055200000F0FCF91B48007861281BD11A4A1B4B7C
:105530001B4903C900F040FC04461A4A1A4B00F00C
:105540003BFC1A4A03C219480CC8094800F098FAF3
:1055500016480CC8084800F093FA30200749087034
:105560000C490870CDE7000088030020D00300201C
:10557000B80000201804002020020020A80000200D
:10558000F004002041000020A8040020380500207D
:1055900000080140000000209A99999999992040AB
:1055A00008000020F4D64354FB21094010000020DD
:1055B0000FB470B5DDE92854002020706080607061
:1055C000C4F85C013D2204A9201DFAF70FFE9DF8E6
:1055D0004D1084F841109DF84E1084F842109DF84B
:1055E0004F1084F843109DF8501084F844109DF833
:1055F000511084F845109DF8521084F846109DF81B
:10560000531084F847109DF8541084F848109DF802
:10561000551084F849109DF8561084F84A103D2220
:1056200016A904F14C00FAF7E1FD9DF8951084F8F5
:1056300089109DF8961084F88A109DF8971084F8C8
:105640008B109DF8981084F88C109DF8991084F8B0
:105650008D109DF89A1084F88E109DF89B1084F898
:105660008F109DF89C1084F890109DF89D1084F880
:1056700091109DF89E1084F89210A4F894504FF465
:105680000040C4F8580104F1F800FEF78DFE04F163
:105690009800FEF7B3FE70BC5DF814FB2DE9F04FE7
:1056A00087B08246DAF80400406A7C4908807C486A
:1056B00000880A2190FBF1FB584600F03EFD0646AB
:1056C000784A794B00F078FB8046784A784B00F0B6
:1056D00073FB784A03C2784C784D00BF754806C802
:1056E0000AF1F800C0E90612FEF7B2FE0AF1F8006E
:1056F00000221346D0E90A61304600F06FFE00D266
:1057000000E000BF0AF1F80022462B46D0E90A610A
:10571000304600F063FE0CD985F00049A0460AF13E
:10572000F801D1E90A6332464046494600F056FE88
:1057300019D80AF1F801D1E90A610022134630466E
:1057400000F04CFE01D2012001E04FF0FF304FF499
:10575000C87100FB01F8404600F0EFFC0AF1980226
:10576000C2E908014BE00AF1F801D1E90A612246D9
:105770002B46304600F0F8FC0BD985F00041A046DE
:105780000AF1F800D0E90A633246404600F0ECFC2A
:1057900035D800221346DAF820B15846DAF8241139
:1057A00000F01CFE01D2012001E04FF0FF3001901B
:1057B00000F0C3FC3B4A424BCDE9020100F010FD72
:1057C000804600223F4B00F00BFDCDE9040122464C
:1057D0002B46DAF820814046DAF8241100F0ECFA82
:1057E0000022394BCDE9020100F0FAFC0646DDE962
:1057F000042300F025FA0AF19802C2E908010AF12F
:10580000F800324A324BD0E90A61304600F0ACFC75
:1058100017D80AF1F801D1E90A612C4A2D4B30461C
:1058200000F0DCFD0DD800220AF19800026242620D
:10583000504600F069F8FF23032227A12748FEF70E
:10584000E2FA16480088A0F500404FF47A71484308
:10585000C0EB001080000A2190FBF1F6F01706EB78
:105860009070801040F2CB1190FBF1F7384600F0B9
:105870000DFF1B4908600846006800F0DBFE0AF1D6
:105880009802C2E906011046FEF7D0FC4FF4004032
:10589000DAF80410486207B0BDE8F08F620000201B
:1058A000300000209A99999999992040F4D6435450
:1058B000FB210940780000202CE996465C8B0840CB
:1058C0009999C93F000049400020774042F78D8DEB
:1058D000B36A9F3FB36A9FBF310D0A00F0040020F6
:1058E0006400002010B50446B4F894100548FDF794
:1058F0003FFB4FF40040616848623C21201DFDF7EA
:1059000035F910BD8803002010B50446B4F8941092
:105910000148FDF797FB10BD880300202DE9F047F3
:1059200004460D4616469946DDF820A004F198007D
:10593000076C002213463846D4F8DC1000F04EFD08
:1059400040D2002231462846FCF74AFA012251464D
:105950004846FCF745FAB4F8940050B904F19800B1
:10596000D0E91021104600F0BBFB414909684863AB
:105970007BE0B4F8940004280AD104F19801D1E93D
:105980001021104600F0ACFB3949096888636CE0CF
:10599000B4F8940008280AD104F19801D1E9102143
:1059A000104600F09DFB32490968C8635DE004F1D0
:1059B0009801D1E91021104600F092FB2C490968AA
:1059C000086452E004F19800076C00221346384640
:1059D000D4F8DC1000F0C8FB47D20122314628463B
:1059E000FCF7FEF9002251464846FCF7F9F9B4F8F5
:1059F000940060B904F19801D1E9107181F000417F
:105A0000384600F06DFB1A49096848632DE0B4F888
:105A1000940004280CD104F19801D1E9107181F0AF
:105A20000041384600F05CFB1149096888631CE0BE
:105A3000B4F8940008280CD104F19801D1E9107150
:105A400081F00041384600F04BFB09490968C86302
:105A50000BE004F19801D1E9107181F00041384662
:105A600000F03EFB024909680864BDE8F0870000C9
:105A70008803002000F1F801C1E908237047000005
:105A800070B5C6B0044615461E463D223C4934A8B2
:105A9000FAF7ACFB3A4890F83D008DF80D01384814
:105AA00090F83E008DF80E01354890F83F108DF8C3
:105AB0000F1190F840108DF8101190F841108DF8EA
:105AC000111190F842008DF812012D4890F8431002
:105AD0008DF8131190F844108DF8141190F84510BA
