:020000040800F2
:10000000D80C0020450200087F3A00088538000817
:100010007D3A0008D51700083541000800000000AF
:10002000000000000000000000000000053B000888
:10003000FD1A000800000000033B0008073B000811
:100040005F0200085F0200085F0200085F0200080C
:100050005F0200085F0200085F0200085F020008FC
:100060005F0200085F0200085F0200085F020008EC
:100070005F0200085F0200085F0200085F020008DC
:100080005F0200085F0200085F0200085F020008CC
:10009000D91700085F0200085F0200085F0200082D
:1000A0005F020008B13B00085F0200085F02000821
:1000B0005F0200085F0200085F0200085F0200089C
:1000C0005F0200085F0200085F0200085F0200088C
:1000D0005F020008294100085F0200085F02000873
:1000E0005F0200085F0200085F0200085F0200086C
:1000F0005F0200085F0200085F0200085F0200085C
:100100005F0200085F0200085F0200085F0200084B
:100110005F0200085F0200085F0200085F0200083B
:100120005F0200085F020008411A00085F02000831
:100130005F0200085F0200085F0200085F0200081B
:100140005F0200085F0200085F0200085F0200080B
:100150005F0200085F0200084D1A00085F020008F5
:100160005F0200085F0200085F0200085F020008EB
:100170005F0200085F0200085F0200080000000044
:100180005F0200085F02000800F002F800F04AF881
:100190000AA090E8000C82448344AAF10107DA45E2
:1001A00001D100F03FF8AFF2090EBAE80F0013F0EA
:1001B000010F18BFFB1A43F001031847884E0000D7
:1001C000A84E0000103A24BF78C878C1FAD8520768
:1001D00024BF30C830C144BF04680C6070470000C1
:1001E0000023002400250026103A28BF78C1FBD840
:1001F000520728BF30C148BF0B6070471FB504F0DD
:100200003BFE00F063FC04000020002104F06CFAC7
:10021000401C60600020002104F050FAE0601FBD27
:1002200010B510BD00F05EF91146FFF7E7FF04F0CE
:100230002FF900F001FC03B4FFF7F2FF03BC04F058
:10024000C5F800000948804709480047FEE7FEE777
:10025000FEE7FEE7FEE7FEE7FEE7FEE7FEE7FEE776
:1002600004480549054A064B70470000A13B0008B9
:1002700089010008D8060020D80C0020D8080020EA
:10028000D808002053EA020C00F069802DE9F04BF9
:100290004FF00006002B1FBFB3FA83F503FA05F4F5
:1002A00024FA05F65E4012BF1643B2FA82F502FA4E
:1002B00005F4C5F120051EBF22FA05FC44EA0C0432
:1002C000203556EA044C4FEA144418BF641C4FF022
:1002D00000084FF00009904271EB030C39D300295C
:1002E00019BFB1FA81F701FA07F6B0FA80F700FA00
:1002F00007F6C7F120071EBF20FA07FC46EA0C06E6
:100300002037B6FBF4FCA7EB0507103F07F01F0BE7
:10031000CBF120060CFA0BFB2CFA06F644BFB346D1
:100320000026202FA4BF5E464FF0000B5BEA060CB0
:1003300008BF4FF0010B19EB0B09ABFB027C48EB3C
:100340000608C01B06FB02CC0BFB03CC71EB0C01B7
:10035000C1E70B46024641464846BDE8F08B13B55F
:100360004FF000004FF00001AFF30080BDE81C40EB
:1003700070474FF0000200B5134694469646203968
:1003800022BFA0E80C50A0E80C50B1F12001BFF44E
:10039000F7AF090728BFA0E80C5048BF0CC05DF8B4
:1003A00004EB890028BF40F8042B08BF704748BF02
:1003B00020F8022B11F0804F18BF00F8012B704776
:1003C00070477047704710B500F05AF8006810BDCC
:1003D00010B5044600F054F8046010BD0FB40023BB
:1003E00000B589B00CA900910B99CB60214B7B44DF
:1003F0000693214B7B44079304236FF00042CDE921
:1004000001321E4A7A446B4608920246002004F0EC
:10041000A0FD09B05DF814FB70B506464FF0FF3043
:1004200015460C46324686B00091CDE90101694679
:100430000020049004A8FFF7D1FF02460498211879
:1004400025B108B1084600E020462860049800283D
:100450000DD0002A02DD0098884208D03246081BE1
:1004600069460094CDE9010404A8FFF7B7FF06B080
:1004700070BD0000A9000000C10000008100000064
:10048000004870477806002010B5044600F050F888
:100490000068005D00F0010010BD426842B10168D3
:1004A00011F8013B23B1521EC0E9001218467047F3
:1004B0000121C160881E704742685AB1C368016853
:1004C00043B983688B4205D0491E521CC0E9001213
:1004D000002070474FF0FF30704700000048704721
:1004E000780600207546FFF7F9FFAE46050069461D
:1004F000534620F00700854618B020B5FFF7B0FE40
:10050000BDE820404FF000064FF000074FF0000814
:100510004FF0000B21F00701AC46ACE8C009ACE895
:10052000C009ACE8C009ACE8C0098D4670470000BE
:1005300010B500F0CBFA001D10BD00BFAD410000AA
:100540002DE9FF4F06468BB00878FF2806D0491CDE
:100550002D2805D000244FF0000908E000200CE011
:100560000124F8E709EB8903491C00EB43090878EB
:10057000FF28F7D114B1C9F1000081461078002599
:100580002C46AA4629462D2801D02B2804D1521CDE
:100590002D2813D0002082468B461078FF280FD0DC
:1005A0004FF0000C0A21521CA5FB017804FB0181CD
:1005B00005FB0C11C5194BEB0104EEE70120EAE73E
:1005C000002108464FF00000BAF1000F02D000EB06
:1005D00080004008C0F38157012F01DD4FF0FF3745
:1005E0000E9955EA040009EB01080BD04FF00209FF
:1005F00018F5FA7F16DA4FEACA70002F706008DD2E
:10060000012007E04FEACA70C6E900B00FB0BDE8AC
:10061000F08F00203060FFF733FFC0F80090182102
:10062000084616E0B8F5FA7F18DD002F02DAF74821
:10063000784401E0F6487844D0E90010C6E900109B
:1006400040EACA707060FFF71BFFC0F800901421E9
:1006500008460FB0BDE8F04F04F018BC0021084672
:100660004FF00000B8F10001099002DAC7F1000272
:1006700000E03A4601DAC8F1000106A800F02AFAC3
:1006800006AB93E8070003AB83E8070044F23E00A3
:100690005BEA04010090584604D144F21E012C4646
:1006A0005D460091210C0904014306D10099240400
:1006B00044EA15442D041039009104F07F410143B0
:1006C00006D10099240244EA15642D0208390091EC
:1006D00004F07041014306D10099240144EA1574E5
:1006E0002D01091F009104F04041014306D10099FA
:1006F000A40044EA9574AD00891E009104F0004105
:10070000084304D100986D196441401E00904FF0D9
:1007100001033A466846B8F1000FCDE9014503A947
:1007200002DD00F020FF01E000F0F3FEBAF1000F5F
:1007300004460D4601D084F00044002108464FF0E5
:100740000000099940F2FF77484010F00C0F07D1E4
:1007500024F00040284303D0C4F30A50B84212D119
:10076000FFF78EFEC0F80090C4F30A50B8420AD1D9
:10077000A8487844D0E90010C6E9001004F0004110
:100780000843706042E7C6E900543FE72DE9FF4F98
:100790001F464FF0000A4FF0FF38454691B0D7E9A9
:1007A0000146CDF83CA000F091F9C0680168405CBA
:1007B0001090B96912986D1C8847396A814688473C
:1007C0000028F6D1B9F1FF3F0AD0002E24F4D064FE
:1007D00011DDB9F12B0F08D0B9F12D0F0BD102E0CB
:1007E000404615B013E744F48064B96912986D1C53
:1007F0008847761E8146600504A901D52D2000E0BA
:100800002B20002E01F1010B0DF130088DF81000A6
:100810003FDDB9F1690F08D0B9F1490F05D0B9F141
:100820006E0F02D0B9F14E0F1CD13B4601A80095C6
:1008300080E85002DDE912126FF0020004F08DFB37
:10084000C11CCED10EE0B96912986D1C8847814653
:100850001398761E44F4007405600F98401C002E17
:100860000F9016DDB9F1300FEDD0B9F1780F02D04D
:10087000B9F1580F0DD10F9801280AD13B46CDE9A7
:100880000054DDE91212001F029604F064FBC11C43
:10089000A7D1109989453ED144F0800406E0139910
:1008A000681CAAF1010A44F400740860B9696D1C5F
:1008B0001298761E884730288146F0D02BE0109998
:1008C000894505D1200603D4761E44F0800418E043
:1008D000484603F074FD08B3761E0DF123018B45E5
:1008E00044F4007408D2A9F130000BF8010B200683
:1008F00007D5AAF1010003E0200602D40AF10100A5
:100900008246A00502D51399681C0860B96912983F
:100910006D1C88478146002ED1DC53E0002E51DD4E
:10092000B9F1650F02D0B9F1450F4BD1A00549D5FA
:10093000B9696D1C1298761E24F440748847002E05
:1009400081460CDD2B2804D0B9F12D0F07D144F4DA
:100950008074B96912986D1C8847761E8146E0053F
:1009600001D52D2100E02B2108F8011BCDF80080D6
:1009700021E0761E0DF13901884544F400740CD253
:10098000A9F1300010F0FF0088F8000002D10099B2
:10099000884509D908F1010806E0E00501D51E489F
:1009A00001E042F20F708246B96912986D1C8847C7
:1009B000814613980560002E04DD484603F0FFFCD5
:1009C0000028D6D1F96912988847FF2053468BF842
:1009D000000088F8000000200A900B9004AA0CA9DF
:1009E0000AA8FFF7ADFDA00502D46FF00100F8E6FC
:1009F00014F0240F12D0E0071CD13868DDE90A1288
:100A0000031D3B600068C0E9001213E0384A000093
:100A10002A4A0000EE480000F1D8FFFF0AA9684604
:100A200003F0BAFCE00705D13868009A011D39606F
:100A3000006802602846D4E610B50446AFF3008093
:100A40002046BDE81040FFF7F6BB00004FF0013C28
:100A500050F8042B51F8043B9A4221D1A2EB0C032D
:100A6000934313EACC1317D150F8042B51F8043BED
:100A70009A4215D1A2EB0C03934313EACC130BD18A
:100A800050F8042B51F8043B9A4209D1A2EB0C0315
:100A9000934313EACC13DBD04FF00000704700BF44
:100AA000D01A01BAB1FA81F101F0180122FA01F06D
:100AB000CB40C1F12001DBB2C0B2C01A2CFA01F365
:100AC000D11A914311EAC311E6D17047004870472B
:100AD000980600202DE9F047814616468AB0354831
:100AE00078440DC88DE80D0032487844801C03AC72
:100AF0000DC884E80D0041F69B300844372190FB77
:100B0000F1F290FBF1F5A5F1800501FB12041B3C0D
:100B100002D56442012000E00020DFF898A0804662
:100B20000027FA44AAF1BE0A0EE0E0070AD03246D6
:100B3000684607EB470101230AEB810100F0FEFC48
:100B40008DE8070064107F1C002CEED1194F7F4404
:100B5000AE3F19E0E80715D007EB04100DF1180AB5
:100B600090E80E008AE80E00C068F04201D19819A2
:100B700008903246012306A903A800F0DFFC03AB6E
:100B800083E807006D10641C002DE3D14FF00103D2
:100B900032466946B8F1000F03A802D000F0A4FC69
:100BA00001E000F0CBFCC9E90001C9F808200AB057
:100BB000BDE8F087484500002DE9FF4F1F464FF084
:100BC0003C0987B04FF00042DDE9141001F1010843
:100BD000DDF858A002EA40500390002005908346BB
:100BE000054604460490B969461E08988847AAF14C
:100BF000010A0290BAF1000F3BDD02982E2815D0B1
:100C0000102100F016FA00282EDB4FF0010B059999
:100C1000014317D0B9F1000F0BDB4A46C11700F0B2
:100C2000F5F905430C43A9F1040905E001200490FE
:100C30000BE008B145F0010501200590049820B9AA
:100C4000361D02E0049800B1361FB969089808F112
:100C500001088847BBF1000FAAF1010A0290C9D030
:100C60000999C1F80080C5E70298702808D050287B
:100C700006D0F96908988847BBF1000F14D04FE0FF
:100C8000002002900120BBF1000F049009D0B96947
:100C9000089808F101088847AAF10109B9F1000F85
:100CA00007DCF969089888476FF001000BB0BDE8D0
:100CB000F08F2B2804D02D280CD14FF0FF3004905A
:100CC000B969089808F101088847A9F10109B9F143
:100CD000000FE6DD411CE4D00A2100F0AAF900284B
:100CE000DFDB029908F1010801EB810100EB410013
:100CF0000290B969089888470A2100F09AF9099A80
:100D0000A9F10109B9F1000FC2F8008001DD002846
:100D1000E7DAF969089888470499029800FB0166A8
:100D200055EA040004D004F04041090002D006E076
:100D3000039898E0A40044EA9574AD00B61E04F050
:100D40000041080002D16D196441761E159810F01B
:100D5000240F03D04FF00B095C4803E04FF0280943
:100D60006FF07D008246564507DAAAEB06018944FA
:100D7000B9F1410F01DD4FF0410901200021A9F136
:100D8000010200F043F9024628400B462140084387
:100D900001D0012100E00021501E029143F1FF31FA
:100DA00028402140084301D0012000E000200299A2
:100DB000834651EA0B014FD0002108464FF0000056
:100DC000039900F4400039B100EB80004FF440017A
:100DD00000EBD07001EA60008015012802DD4FF0C1
:100DE000FF3000E013D0401C36D0029860B3BBF156
:100DF000000F0CD14A460120002100F007F92840DD
:100E00002140084301D0012000E00020E0B1012092
:100E10004A46002100F0FAF8034640190A466141AB
:100E20002D1A8C4111D3B9F1400F09DD159810F03E
:100E3000240F02D0AAF1340603E0AAF1170600E05D
:100E4000761C00254FF0004406E05B1E42F1FF32A5
:100E500020EA030521EA0204CAF10100B04206DAE1
:100E60001B49039808430190002000900EE0039A6C
:100E7000C4F3D321E80A0A43164940EA44500A431E
:100E80003146CDE90002684603F08FFA159810F05C
:100E9000240F0BD01598C00715D13868DDE9001272
:100EA000031D3B600068C0E900120CE002A869461F
:100EB00003F072FA1598C00705D13868029A011D2F
:100EC0003960006802604046F0E6000002FCFFFF67
:100ED0000000F07F0000F03F2DE9FF4F92461D46D5
:100EE00085B04FF00041DDE9124BDDE914727F1E41
:100EF00001EA4B50414940F0FF4940EA0108002116
:100F000022F020004928049102D04E2828D04CE03D
:100F10003BA0012607C88DE80700A9690698641C54
:100F200088477F1E014606D41DF8060018B121F03F
:100F3000200181420BD0E96906988847032E34D0FE
:100F4000082E32D06FF0010009B0BDE8F08F761C9A
:100F5000032E01D0082EE0D1601CCAF80000DCE7A7
:100F6000A9690698641C88477F1E2AD420F02000B7
:100F7000412826D1A9690698641C88477F1E20D481
:100F800020F020004E281CD1A9690698641C8847CF
:100F90007F1E48F4002849F48009CAF8004001D4B3
:100FA000282806D0E969069888475FEACB7012D0F6
:100FB00022E0A9690698641C88477F1E01D4002896
:100FC00003DAE96906988847BCE72928F1D1641C4F
:100FD000CAF80040E9E71BF0240F07D028680499FD
:100FE000031D2B600068C0E9001805E02868021D99
:100FF0002A600068C0F800902046A5E70000F07F56
:10100000494E46494E49545900000000B2F12003B0
:101010000AD5C2F1200301FA02F120FA03F300FA23
:1010200002F041EA0301704700FA03F14FF00000BB
:1010300070473A2800D2303820F02002412A01D3EC
:10104000A2F13700884201D34FF0FF30704720F003
:101050007F4C80EA030023F07F47ACEB070303F5E6
:101060007C5300F0004003F1FF032DE980494FEA73
:10107000154B09B44FEA144325EA0B4E24EA034802
:101080000FF2042606EB132749083E785FEA320286
:1010900003FB0667C7F5000707FB06F64FEA543760
:1010A0004FEAD64606F1020607FB066CCCF1005C5F
:1010B0004FEA1C472CEA074C07FB06F40CFB06F52D
:1010C00004EB15464FEA961634BF00204FF000405F
:1010D0004FEAD13706FB07FC4FEA1C4C0CFB0BF721
:1010E000D21B03FB0CF761EB07010CFB0EF7B0EB17
:1010F000074072EB17420CFB08F734BFA2EB074224
:10110000B2EB074261EB17414FEA0C444FEA9107FB
:1011100006FB07FC4FEA1C4C0CFB0BF7B0EBC7407F
:1011200072EB573203FB0CF734BFA2EBC742B2EBB2
:10113000C74261EB57310CFB0EF7B0EBC70072EB07
:1011400057720CFB08F734BFA2EBC702B2EBC70221
:1011500061EB5771039F4FEA816141EA921104EB01
:10116000CC044FEAD1374FEA826206FB07FC42EA21
:1011700090124FEA80604FEA1C4C0CFB0BF7D21B1D
:1011800003FB0CF761EB07010CFB0EF7B0EB07401C
:1011900072EB17420CFB08F734BFA2EB0742B2EB2D
:1011A000074261EB17414FEA8C554FEA910704EB78
:1011B0009C2406FB07FC4FEA1C4C0CFB0BF7B0EB26
:1011C000C74072EB573203FB0CF734BFA2EBC742A8
:1011D000B2EBC74261EB57310CFB0EF7B0EBC70027
:1011E00072EB57720CFB08F734BFA2EBC702B2EBED
:1011F000C70261EB577115EB4C254FEA816141EA5B
:1012000092114FEA82624FEAD13742EA901206FB0E
:1012100007FC44F100044FEA80604FEA1C4C0CFBD1
:101220000BF7D21B03FB0CF761EB07010CFB0EF76E
:10123000B0EB074072EB17420CFB08F734BFA2EB90
:101240000742B2EB074261EB174115EB1C154FEA61
:10125000813141EA92414FEA823242EA90424FEABA
:1012600080304FEA0C7644F1000448EA03434EEA2A
:101270000B484FF0000EB2EB080C71EB030724BFD4
:10128000624639464EEB0E0E4FF0000B00185241ED
:1012900049414BEB0B0BB2EB080C71EB03077BF1F5
:1012A000000B24BF624639464EEB0E0E4FF0000B8A
:1012B0000018524149414BEB0B0BB2EB080C71EBA0
:1012C00003077BF1000B24BF624639464EEB0E0E3E
:1012D00051EA020718BF46F0010616EB0E7655F1EB
:1012E000000254F1000103D5BDE88901BDE8008882
:1012F000BDE88901BDE80048B619524141EB010142
:10130000A3F10103704780807F7E7D7C7B7A7978B2
:10131000777676757473727171706F6E6E6D6C6CBA
:101320006B6A6A696868676666656464636362615C
:101330006160605F5F5E5E5D5D5C5C5B5B5A5A59DD
:101340005958585757565655555554545353525249
:101350005251515050504F4F4F4E4E4D4D4D4C4CA1
:101360004C4B4B4B4A4A4A494949484848474747EA
:101370004746464645454544444444434343434227
:10138000424242414141000046EA0646A3F57053FD
:101390004FEA164646EA42564FEAD22242EA415204
:1013A00010B54FEAD121A3F1010300F02FF820F08E
:1013B000004000F1020C00F0004701EB0050114624
:1013C000BCF5006F40EA070000D210BDBAF1000F73
:1013D0000AD01CB503B44FF004004FF004014FF0E5
:1013E00000000FBCBDE810404FF00001BBF1010F41
:1013F000B9BF04484FF0FF310348002140EA07001D
:1014000010BD00BFFFFFEF7F0000F07F002B9C4668
:1014100030D477002BD01CB54FEA370703B44FF018
:1014200010004FF01001BAF1000F06D0BCF1000F10
:10143000DCBF40F0080040F008014FF000000FBC96
:10144000BDE810400BF1010BBBF1010F08BF5FEAD3
:10145000170722BF12F1010211F101014FF0004103
:1014600043F1000300F0004043EA00007047F9D365
:101470005708D0E746EA064613F1400F4FEA1646F2
:101480001FDD13F1200FDFBF16430A460021203372
:101490005B42BED0C3F1200746EA064602FA07F7D0
:1014A0004FEA164646EA0706C3F1200722FA03F27E
:1014B00001FA07F721FA03F14FF0000342EA0702AD
:1014C000A7E746EA020646EA06464FEA164646EA15
:1014D0000106BCBF46EA0646360C4FF000034FF04B
:1014E00000024FF0000194E72DE9804C9A469346A4
:1014F00070B491E8380007C831EA400C48BF34EABC
:10150000430C03D5FFF7A3FDFFF780FFF0BCBDE858
:10151000008C2DE9804C9A46934670B491E83800CF
:1015200007C831EA400C48BF34EA430C03D5FFF743
:101530008EFDFFF729FFF0BCBDE8008C2DE9804C43
:101540009A46934670B491E8380007C810F0804F6F
:1015500008BF13F0804F03D100F01AF8FFF756FFD1
:10156000F0BCBDE8008C2DE9804C9A46934670B4DF
:1015700091E8380007C810F0804F08BF13F0804F83
:1015800003D100F005F8FFF7FFFEF0BCBDE8008CCA
:1015900020F07F4780EA030023F07F4C07EB0C0329
:1015A000A3F57C5300F00040A3F1FE0392F0000F7E
:1015B00000F0B38095F0000F00F077802DE901492D
:1015C0004FEA11404FEA144621EA004800FB06FCAE
:1015D00024EA064708FB06F607FB08F800FB07F7B6
:1015E00018EB06484CEB164C4FEA124B18EB074829
:1015F0004FEA15464CEB174022EA0B4E0BFB06FC5C
:1016000025EA06470EFB06F607FB0EFE0BFB07F767
:101610001EEB064E4CEB164C4FF000061EEB074E31
:101620004CEB174B18EB0B0840F1000018EB0E0BBE
:1016300058EB000840F100008F1A4FF000013CBF4A
:10164000C943661B14BFB5EB040C00213CBFC94362
:10165000F61B4FEA17444EEA8E0E27EA04454FEA7E
:101660001C4704FB07622CEA074C05FB07F70CFB41
:1016700005F604FB0CFC16EB074642EB174216EB93
:101680000C4642EB1C421BEB060658EB02024141A2
:1016900046EA9E0601D5BDE80189B619524141EBE3
:1016A0000101A3F10103BDE801894FEA14454FEAA6
:1016B000114724EA054621EA074C05FB07F406FB1F
:1016C00007F70CFB06F105FB0CFC11EB074144EBA3
:1016D00017444FEA124711EB0C4144EB1C4422EA39
:1016E000074C05FB07F206FB07F70CFB06F605FBAC
:1016F0000CFC16EB074642EB174216EB0C4642EB8E
:101700001C456A1854F1000148BF7047B619524190
:1017100041EB0101A3F10103704795F0000F37D0B1
:101720004FEA11424FEA144721EA024624EA074CE5
:1017300002FB07F106FB07F70CFB06F402FB0CFCAF
:1017400014EB074441EB17414FEA154714EB0C44E7
:1017500041EB1C4125EA074C02FB07F506FB07F7A6
:101760000CFB06F602FB0CFC16EB074645EB174597
:1017700016EB0C4645EB1C42121951F1000148BF13
:101780007047B619524141EB0101A3F101037047C3
:101790004FEA14454FEA114724EA054621EA074C6F
:1017A00005FB07F106FB07F70CFB06F24FF00006FE
:1017B00005FB0CFC12EB074241EB174112EB0C420C
:1017C00051EB1C4148BF7047921841EB0101A3F156
:1017D00001037047FEE70000014800F024BB000051
:1017E0004000002010B58AB0002101220446CDE956
:1017F0000612039104910E20CDE908200591009175
:10180000019102916946204600F0FCF908B100F010
:1018100076F9204600F0F6FC08B100F070F90221DC
:10182000204600F06EF908B100F069F90AB0002016
:1018300010BD0000002A02D1014900F035B8704700
:101840002C00002030B589B00825044606950C9878
:10185000AD0102950025049505950D0A8DF80050FF
:101860008DF80110110A8DF80210190A8DF8041074
:101870008DF80530010A8DF806108DF803208DF8DB
:101880000700204600F0B9FA0028FAD0054B6A4656
:1018900002A9204600F047F9002801D000F02FF9F6
:1018A00009B030BD2800002000B5A0F201200828B2
:1018B00012D200EBC002094800EB02125068322835
:1018C000104605DA02F0CAFD5068401C506001E085
:1018D00000F052F8002000BD012000BDF8010020FA
:1018E000DFED1C1A9FED1C3ADFED1C2A9FED1C1A40
:1018F000DFED1C3A1C4A9FED1D4A0021B2EE080A9A
:10190000B1EE042AF7EE000A01EBC10002EB001071
:1019100080ED0E0AC0ED0F1A80ED102A80ED173A07
:10192000C0ED192AC0ED1A0A80ED1B1AC0ED223A4B
:10193000037813B1012B03D006E0DFED0D4A01E07F
:10194000DFED0C4AC0ED0C4A491C80ED0D4A082918
:10195000DADB7047CDCC4C3E0000FA450000A042D7
:10196000000000000000FA44F801002000000046DA
:101970002CA09941000010420A88DFED2E1A52BABD
:1019800000EE102A90ED0D1A2B4BB8EE400A60EED7
:10199000210A80EE810A80ED020A4A8852BA12B208
:1019A00000EE902AB8EEE01A80ED031A898849BA51
:1019B00009B200EE901AF8EEE00AC0ED040AD0ED8C
:1019C000070AC0ED060A70EE600A80ED070A416A58
:1019D00010EE902A9A4201DD491E05E010EE902A91
:1019E000164B9A4201D9491C416200EE901A4FF4FD
:1019F000B4725143F8EEE00A60EEA11AD0ED080A85
:101A000030EE602A72EE211A90ED0C2AC1EE822A85
:101A1000C1EE021A01EE101AC0ED0A2AB8EEC11A80
:101A200031EE000A30EE600AC0ED0B1A80ED050AB7
:101A3000704700000000B44300003443000034C38A
:101A4000014800F06DBC000038010020014800F0A2
:101A500067BC00009801002001681823CAB2103A40
:101A6000B2FBF3F2054B6FF30901032A9B5CC365DC
:101A700000D9091D81650846704700008E4F000897
:101A800010B5014600208B698A6A4FF0C07453B1CB
:101A9000B3F5005F15D072B1012A0CD0022A0AD02A
:101AA000032A09D104E01AB1012A06D0022A03D17F
:101AB000C96AC90100D5012010BDC96AA142FAD086
:101AC00010BD002AF7D0012AF2D0022AF3D0032A4F
:101AD000F3D010BD30B50468256825F48025256055
:101AE000046863608368402B036803D099600068D2
:101AF000C26030BD9A600068C16030BD704772B688
:101B0000FEE790F82020012A07D0022A05D0416A7A
:101B100041F48021416201207047006842690A4314
:101B2000426100207047F0B590F820500468A46826
:101B3000012D05D0022D03D0416A41F480215DE0E2
:101B400014F0406F01D1E50055D5C4F30164022CB7
:101B500003D9416A41F4000150E00125A5401D6010
:101B60008D684FF4C0739DB1CE6835434E6845EA29
:101B7000C605066803EB0417F5514FF4C2750768F4
:101B800005EB04150E697E51097D012905D009E098
:101B90000E88CD6845EA4655EBE701684E5946F494
:101BA00080764E511179D579567941EA056195795A
:101BB0002D0445EA062529434FF4C676056806EB51
:101BC0000416A9511178D57841EA056195785278C3
:101BD0002D0445EA022211434FF4C475026805EB57
:101BE00004155151006803EB0411425842F0010200
:101BF00042500020F0BD416A41F4001141620120D1
:101C0000F0BD000010B590F82020012A07D0022A6C
:101C100005D0416A41F480214162012010BD3B485A
:101C2000D0F8002242F00102C0F80022D0F80022D1
:101C300022F47C52C0F80022D0F800224B6A42EA1B
:101C40000322C0F800220A7D02F01F0301229A40FD
:101C5000D0F81C329343C0F81C32CB69B3B9D0F82A
:101C60000C329343C0F80C328C894B6864F31F43E9
:101C70004C6900EBC404C4F840320C890B6864F36F
:101C80001F434C6900EBC404C4F84432CB69012BF8
:101C900016D1D0F80C321343C0F80C320C884B68C4
:101CA00064F31F434C6900EBC404C4F840320C8950
:101CB000CB6864F31F434C6900EBC404C4F844329E
:101CC0008B69002BD0F804320ED01343C0F80432D5
:101CD0000B69002BD0F8143208D01343C0F814322B
:101CE000096A012904D008E09343EFE79343F5E73D
:101CF000D0F81C121143C0F81C12D0F8001221F0C9
:101D00000101C0F80012002010BD00000064004076
:101D1000704730B590F82040012C05D0022C03D03C
:101D2000416A41F480215DE00468002955D02469AE
:101D3000A40754D04FF4D874056804EB01142D594E
:101D400015F00405956005682D594ED0ED085560D5
:101D500005682C5904F00204D4604FF4DA74056865
:101D600004EB01142D5905F00F05156105682D5977
:101D7000C5F30725956105682C59240C54614FF46F
:101D8000DC72046802EB0112A4581C700468A458A9
:101D9000240A5C700468A458240C9C700468A2583F
:101DA000120EDA704FF4DE72046802EB0112A458CE
:101DB0001C710468A458240A5C710468A458240C9B
:101DC0009C710468A258120EDA71006881B1016931
:101DD00041F020010161002030BDE468A8E7416ABC
:101DE00041F400114162012030BD6D0D1560AFE777
:101DF000C16841F02001C160EDE70246002092F881
:101E00002010012901D002290CD111688A685201E1
:101E100000D501208A68120100D5401C8968C900DC
:101E200000D5401C70472DE9F05F0546006800248E
:101E30004669D0F804908768D0F80CB0D0F810A0AC
:101E4000D0F81880F10748D0F90714D0012181603B
:101E5000B80703D5284600F002FA0CE0780702D54F
:101E60004FF4006407E0380702D54FF4805402E0D5
:101E7000284600F0F3F9F80516D529684FF480706C
:101E80008860B80503D5284600F0EBF90CE078052A
:101E900002D544F4005407E0380502D544F48044E8
:101EA00002E0284600F0DCF9F80316D529684FF463
:101EB00080308860B80303D5284600F0D4F90CE0E0
:101EC000780302D544F4004407E0380302D544F413
:101ED000803402E0284600F0C5F9300707D55FEAF4
:101EE000CB6004D52968102044F40074C8607007E2
:101EF0004FF0080707D55FEA0B7004D52868C76064
:101F0000284600F059F9B00706D52868C068800750
:101F100002D0284600F052F9700607D55FEACA6081
:101F200004D52968102044F480640861B00607D500
:101F30005FEA0A7004D528680761284600F05EF958
:101F4000F00606D528680069800702D0284600F010
:101F500056F9B00308D55FEAC96005D52968102095
:101F60004860284600F04CF9F00307D55FEA097095
:101F700004D528684760284600F076F9300446D535
:101F80005FEA497040D5F00504D55FEAC87001D01A
:101F900044F00104B00504D55FEA887001D544F02F
:101FA0000204700504D55FEA487001D544F00404CA
:101FB000300529D518F0700F26D008F070004028A1
:101FC00015D006DC102809D020280AD0302816D1D8
:101FD0000AE050280ED0602811D10EE044F0080429
:101FE0000DE044F010040AE044F0200407E044F05F
:101FF000400404E044F0800401E044F48074286864
:10200000816921F070018161296804204860002CF9
:1020100005D0686A204368622846FFF779FEBDE86C
:10202000F09F70B5040003D094F8200010B104E0D4
:10203000012070BD204600F081F82068016841F061
:102040000101016000F0DCFB0546052604E000F01C
:10205000D7FB401B0A2811D820684068C007F6D07B
:102060002068016821F00201016000F0C9FB05460B
:102070000BE000F0C5FB401B0A2806D9606A40F45B
:102080000030606284F82060D2E7206840688007F2
:10209000EFD4207E0128206801683DD021F0800126
:1020A0000160607E01282068016838D021F040017D
:1020B0000160A07E01282068016833D021F0200152
:1020C0000160E07E0128206801682ED041F01001F7
:1020D0000160207F01282068016829D021F00801D3
:1020E0000160607F01282068016824D021F004018C
:1020F0000160D4E902010843D4E904121143084302
:102100006168491E08432168C8610020606201209F
:1021100084F82000002070BD41F08001C0E741F04C
:102120004001C5E741F02001CAE721F01001CFE7E7
:1021300041F00801D4E741F00401D9E710B586B0B9
:10214000044614216846FEF714F9184920688842AD
:1021500029D117480021026842F00072026000682D
:1021600000F00070059012481038026842F0010239
:102170000260006800F0010005904FF4C05000902C
:102180000220CDE901010320039009200490694653
:10219000084800F037FA00220121142000F09EFBCD
:1021A000142000F08DFB06B010BD0000006400405C
:1021B00040380240000002407047000000B50D4A60
:1021C00001688BB01268914212D10B4B03AA002117
:1021D000FFF79FFD08B1FFF792FC07AB0DF10C0C68
:1021E00093E807008DE807009CE80F00FFF722FB4B
:1021F0000BB000BD400000202C000020704770474D
:102200007047000070B5044690F82000012804D003
:10221000606A40F40020606218E0022084F8200028
:102220002068016821F00101016000F0E9FA05462B
:102230000EE000BF00F0E4FA401B0A2808D9606AEB
:1022400040F400306062052084F82000012070BD59
:1022500020684068C007EDD1606270BD704770476C
:10226000704770477047704770472DE9F04104464A
:10227000876D00F0C5FA064694F83500002502285F
:1022800006D08020606584F834500120BDE8F081DC
:102290002068016821F0160101602068416921F081
:1022A00080014161206C08B9A06C20B120680168F0
:1022B00021F0080101602068016821F0010101603E
:1022C0000CE000F09DFA801B052807D920206065EE
:1022D000032084F8350084F83450D7E7206800687C
:1022E000C007EED194F85C103F208840B860012010
:1022F00084F8350084F834500020C7E790F8351092
:10230000022903D08021416501207047052180F812
:1023100035100068016821F001010160002070475C
:102320002DE9F84304464FF00009CDF800906348CA
:102330004FF41651A56D0068B0FBF1F72E6894F8C4
:102340005C10082000FA01F131420FD021680A68C0
:1023500052070BD50A6822F004020A6094F85C1058
:102360008840A860606D40F00100606594F85C10E2
:102370004FF0010808FA01F0304208D0216849699D
:10238000090604D5A860606D40F00200606594F80D
:102390005C1004208840304208D021680968890711
:1023A00004D5A860606D40F00400606594F85C108E
:1023B00010208840304218D021680968090714D5D8
:1023C000A86020680168490304D50068000308D5A7
:1023D000A16C07E00168C90503D4016821F0080178
:1023E0000160216C09B12046884794F85C102020D8
:1023F0008840304231D021680968C9062DD5A860CF
:1024000094F8350005282068016806D0490347D5AF
:10241000006800031DD4616C1CE021F0160101600E
:102420002068416921F080014161206C08B9A06CED
:1024300020B12068016821F00801016094F85C1067
:102440003F208840A86084F8358084F83490216D5E
:102450001FE0E16B09B120468847606D00282BD052
:10246000606DC00714D0052084F83500206801682D
:1024700021F0010101600098401C0090B84203D88F
:1024800020680068C007F6D184F8358084F834905D
:10249000E16C002910D001B02046BDE8F0430847A8
:1024A0000168C905D5D4016821F01001016084F8E4
:1024B000358084F83490CCE7BDE8F8832400002010
:1024C0002DE9F041044600F09BF906465CB102207C
:1024D00084F83500002584F834502068016821F024
:1024E000010101600DE00120BDE8F08100F088F9F4
:1024F000801B052805D920206065032084F835005D
:10250000F2E720680068C007F0D12268116820480F
:102510000140D4E901031843D4E903363343184397
:1025200063691843A3691843E3691843236A18438E
:102530000843616A042903D1D4E90B131943084302
:10254000106020684069666A20F0070130460E433B
:10255000012704280CD1A06A0643E06A40B1204656
:10256000FFF78EFA20B14020606584F83570BAE735
:10257000206846612046FFF76FFA94F85C203F21FF
:1025800091408160656584F835700020ACE70000FB
:102590003F8010F02DE9F0410446866D90F834003C
:1025A000002501280DD0012084F8340094F83570FE
:1025B0000020012F07D084F8340002252846BDE80A
:1025C000F0810220FBE7022784F835706065204621
:1025D000FFF780FA94F85C103F208840B0602068D4
:1025E000016841F016010160206C20B1206801688B
:1025F00041F0080101602068016841F001010160BB
:10260000DCE700002DE9F84FDFF8BCA1002201252E
:1026100003264FF00F090AF1040BAAF1040E00BFC4
:102620000B6805FA02F42340A34270D10F7907F03A
:102630000307012F01D0022F16D187684FEA420805
:1026400006FA08FC27EA0C07D1F80CC00CFA08FCC3
:102650004CEA070CC0F808C04768A7430C79C4F3DC
:10266000001494403C4344600C79E443A4070AD02E
:10267000C4684FEA420C06FA0CF7BC438F6807FAAD
:102680000CF72743C7600C7904F00304022C12D125
:10269000D40800EB840CDCF820405707FF0E09FA41
:1026A00007F824EA0804D1F8108008FA07F848EA85
:1026B0000408CCF8208004684FEA420C06FA0CF7B4
:1026C000BC430F7907F0030707FA0CF727430760AD
:1026D0004C6814F4403F70D03C4C276847F4804766
:1026E0002760246822F0030704F480440094384CE7
:1026F00007EB040CDCF8084897074FEA177809FA4B
:1027000008F7BC43334FB84202D1002724E054E01D
:10271000314FB84201D101271EE0304FB84201D1FC
:10272000022719E02E4FB84201D1032714E02D4FA4
:10273000B84201D104270FE02B4FB84201D1052741
:102740000AE02A4FB84201D1062705E0284FB842D7
:1027500001D1072700E0082707FA08F72743CCF83C
:102760000878DAF800405746D1F804C09C435FEA85
:10277000CC2C00D51C433C60DBF800405F46D1F810
:1027800004C09C435FEA8C2C00D51C433C60DEF8FF
:1027900000407746D1F804C09C435FEA8C3C00D5EA
:1027A0001C433C60084F083F3C68D1F804C09C4380
:1027B0005FEACC3C00D51C433C60521C102AFFF45D
:1027C0002FAFBDE8F88F0000083C014044380240BC
:1027D00000300140000002400004024000080240B6
:1027E000000C024000100240001402400018024099
:1027F000001C02400AB1816170470904FBE7000038
:102800000148806870470000180000200248816875
:102810000278114481607047180000200B4810B501
:10282000016841F400710160016841F48061016058
:10283000016841F480710160032000F06FF80F20FF
:1028400000F006F800F024F8002010BD003C024023
:1028500070B50D4D04464FF47A712878B1FBF0F055
:102860000A490968B1FBF0F000F00AFB48B9102CE6
:1028700007D200222146501E00F030F800206C6084
:1028800070BD012070BD0000180000202400002051
:102890000A4808B5016841F480410160006800F40D
:1028A000804000900548001F016841F080510160A0
:1028B000006800F08050009008BD000044380240DD
:1028C000002809DB00F01F0201219140400980002F
:1028D00000F1E020C0F8001170470000F0B40E4B8A
:1028E0001B680C46C3F30223C3F10705042D00D96E
:1028F0000425191D072901D2002300E0DB1E012653
:1029000006FA05F1491E214099409E40761E164068
:102910003143F0BC01F00FBC0CED00E0064900F0C3
:10292000070208684FF6FF03184040EA0220034AF6
:1029300010430860704700000CED00E00000FA054D
:102940002DE9F0470E46050065D0DFF81481D8F870
:102950000000F7B200F00700B04207D288F800701C
:10296000D8F8000000F00700B04254D128683D4C70
:10297000810712D5400703D5206840F4E05020605D
:102980002878000703D5206840F460402060206864
:10299000A96820F0F000084320602878C0072DD0F7
:1029A000304968680839012812D0022813D003285A
:1029B00011D00968890700292DDA216821F0030167
:1029C00001432160FFF71CFF814641F2883A0EE087
:1029D00009688903EFE709688901ECE7FFF710FF51
:1029E000A0EB0901514502D90320BDE8F08720681A
:1029F000696800F00C00B0EB810FEFD1D8F800103F
:102A0000404601F00701B14207D90770006800F0A5
:102A10000700B04201D00120E7E72878400705D53C
:102A20002068E96820F4E050084320602878000717
:102A300006D52068296920F4604040EAC100206082
:102A400000F038F82168084AC1F30311515CC8400E
:102A50000649086006480068FFF7FAFE0020C4E750
:102A6000003C024008380240964F00082400002035
:102A70001C0000200448054900680968044AC1F3A5
:102A80008221515CC8407047240000200838024071
:102A9000A64F00080448054900680968044AC1F3C4
:102AA0004231515CC8407047240000200838024081
:102AB000A64F0008154810B5006810F00C02144825
:102AC00013D04110042A0FD0082A0ED10F4C241F16
:102AD0002268236802F03F025B0207D52068C0F33A
:102AE0008810A0FB010106E0084610BD2168C1F373
:102AF0008811A1FB00010023FDF7C4FB2168C1F38D
:102B00000141491C4900B0FBF1F010BD08380240FA
:102B10000024F4002DE9F84F04006ED02078DFF88F
:102B20004C93C007A9F104054AD009F104000168DB
:102B3000C1F38101012908D00068C0F38100022897
:102B40000AD1D9F80000400206D52868800337D59D
:102B500060680028E1D033E06068B0F5803F10D0B5
:102B6000B0F5A02F286810D020F4803028602868A5
:102B700020F4802028606068A8B1FFF741FE064677
:102B80000DE0286840F48030F4E740F480202860AD
:102B9000F7E700BFFFF734FE801B642873D828686E
:102BA0008003F7D50CE0FFF72BFE064605E000BFDB
:102BB000FFF726FE801B6428F0D828688003F7D42E
:102BC0002078DFF8AC8280074FF0000A3ED5A74896
:102BD000001D016811F00C0F08D00068C0F38100DF
:102BE00002280BD1D9F80000400207D428688007DA
:102BF00016D5E068012800D112E033E1E068B8B1F1
:102C00000120C8F80000FFF7FBFD064605E000BF05
:102C1000FFF7F6FD801B0228C0D828688007F7D58B
:102C20002868216920F0F80040EAC10028600DE022
:102C3000C8F800A0FFF7E4FD064604E0FFF7E0FD5A
:102C4000801B02281FD828688007F7D42078000747
:102C500022D5864F87486169703771B101210160C3
:102C6000FFF7CEFD064604E0FFF7CAFD801B0228F1
:102C700009D838688007F7D50EE0C0F800A0FFF744
:102C8000BFFD064605E082E0FFF7BAFD801B022883
:102C90007DD838688007F7D42078400768D5DFF8FA
:102CA000CCB100270BF13C0BDBF80000C0000BD4CB
:102CB000DBF8001041F08051CBF80010DBF8000089
:102CC000012700F0805000906B4E3068C00510D492
:102CD000306840F480703060FFF792FD009005E0AE
:102CE000FFF78EFD0099401A022850D83068C005C1
:102CF000F6D55E4EA0686C3601280FD005283068E6
:102D000010D020F001003060306820F00400306006
:102D1000A068B8B1FFF774FD00900FE0306840F094
:102D20000100F4E740F004003060F7E7FFF768FDCA
:102D30000099411A41F28830814266D83068800794
:102D4000F4D50EE0FFF75CFD009007E0FFF758FDBB
:102D50000099411A41F28830814256D83068800784
:102D6000F4D42FB1DBF8001021F08051CBF8001023
:102D7000A069C8B33D49091D0968C1F38101022951
:102D80004AD00228504607D0C8F8600000E03CE076
:102D9000FFF736FD04463BE04746C8F86000FFF702
:102DA0002FFD064605E000BFFFF72AFD801B022825
:102DB0002BD828688001F7D4D4E907010843A16A19
:102DC0002E4A490802EB0141626A41EA8211084336
:102DD00094F82C1040EA0161C9F80010012038660F
:102DE000FFF70EFD044606E03EE000BFFFF708FDDA
:102DF000001B022809D828688001F7D534E000BFFD
:102E0000FFF7FEFC001B022802D90320BDE8F88F63
:102E100028688001F4D427E00128F7D0D9F8000011
:102E2000E26900F4800191421CD1226A00F03F0166
:102E3000914217D147F6C071626A0140B1EB821F1F
:102E400010D1A26A4FF0FF3300F4403103EB52027D
:102E5000B1EB024F06D194F82C1000F07060B0EB8B
:102E6000016F01D00120D1E70020CFE704380240F4
:102E700000004742800E4742007000400000FFFF04
:102E800010B5401EB0F1807F01D3012010BD4FF07E
:102E9000E02460610F21601701F04DF90020A0616E
:102EA00007202061002010BD7047704770B590F872
:102EB0003C20012A32D0012480F83C40022280F8D4
:102EC0003D2003685A689D6822F070060A68324304
:102ED0005A60134B02689A4214D0B2F1804F11D05D
:102EE000104B9A420ED0104B9A420BD00F4B9A4285
:102EF00008D00F4B9A4205D00E4B9A4202D00E4B8F
:102F00009A4204D1496825F080031943916080F802
:102F10003D40002180F83C10084670BD022070BD85
:102F2000000001400004004000080040000C004088
:102F300000040140004001400018004010B50400AA
:102F400003D094F83D0010B107E0012010BD00202F
:102F500084F83C00204600F01FF8022084F83D0071
:102F6000211D206800F02AFE012084F8460084F824
:102F70003E0084F83F0084F8400084F8410084F863
:102F8000420084F8430084F8440084F8450084F843
:102F90003D00002010BD000008B500680B498842C4
:102FA00012D10B48016841F0010101600068002264
:102FB00000F00100009002211920FFF78FFCBDE80E
:102FC00008401920FFF77CBC08BD0000000001404C
:102FD0004438024090F83D10012901D0012070478B
:102FE000022180F83D100168CA6842F00102CA60FF
:102FF00000681149884214D0B0F1804F11D00F49B8
:1030000088420ED00E4988420BD00E49884208D023
:103010000D49884205D00D49884202D00C498842AA
:1030200004D1816801F00701062903D0016841F04D
:1030300001010160002070470000014000040040D1
:1030400000080040000C0040000401400040014026
:103050000018004070B5044690F83C000025012897
:1030600017D0012684F83C60022084F83D002068D7
:10307000826822F0770222F47F428260086850283A
:1030800038D00DDC20284FD005DC90B3102811D1AA
:103090004AE0022070BD302846D040280AD13BE0EB
:1030A00060282FD070280DD0B0F5805F03D0B0F528
:1030B000005F12D0012584F83D60002084F83C00B8
:1030C000284670BDCB68D1E90121206800F0DAFD07
:1030D0002068816841F0770109E0CB68D1E90121DE
:1030E000206800F0CFFD2068816841F48041816054
:1030F000E1E719E0CA684968206800F0D5FD502171
:10310000206806E0CA684968206800F0DEFD60219A
:10311000206800F0C1FDCEE7CA684968206800F069
:10312000C3FD40212068F4E7226801461046F0E71D
:10313000704770B50446006801694FF00005C94347
:10314000890715D4C168C943890711D4E91E0161F3
:1031500001202077206880698007204602D0FFF791
:10316000E7FF04E000F098F8204600F096F8257795
:1031700020680169C943490717D4C168C943490791
:1031800013D46FF004010161022020772068806968
:1031900010F4407F204602D0FFF7CAFF04E000F0A1
:1031A0007BF8204600F079F8257720680169C9434B
:1031B000090716D4C168C943090712D46FF0080182
:1031C0000161042020772068C0698007204602D072
:1031D000FFF7AEFF04E000F05FF8204600F05DF876
:1031E000257720680169C943C90617D4C168C94356
:1031F000C90613D46FF01001016108202077206800
:10320000C06910F4407F204602D0FFF791FF04E030
:1032100000F042F8204600F040F825772068016968
:10322000C943C90708D1C168C943C90704D1891E68
:103230000161204600F032F820680169C94309069F
:1032400009D4C168C943090605D46FF08001016142
:103250002046FFF729FE20680169C943490609D4C1
:10326000C168C943490605D46FF040010161204699
:1032700000F04EF820680169C94389060BD4C16883
:10328000C943890607D46FF0200101612046BDE8DB
:103290007040FFF70ABE70BD70477047184908B507
:1032A00088422BD1174890ED040B51EC100B01F024
:1032B00031FA00EE100A01F0F9F9134890ED820A94
:1032C000BDEEC00A10EE101A09B2009190ED5E0A30
:1032D000BDEEC00A10EE101A90ED3A0A0BB2BDEE28
:1032E000C00A10EE101A90ED160A0AB2BDEEC00A1E
:1032F00010EE100A01B20548FEF7A4FA08BD00005E
:103300006800002000000020F8010020400000209C
:10331000704738B5044690F83E00202822D181B18C
:103320007AB194F83C0001281CD0012084F83C00BC
:103330002063204600F072FE002803D1216B012992
:1033400001D0012038BD21680A68496800912168D0
:103350000C3151E8002F42F0100241E80023002B0D
:10336000F5D138BD022038BD70B51449884224D14A
:10337000002202211248FFF73DFA124C124D0120A3
:10338000607028782070682804D1681C00F060FF05
:1033900084ED040B2078762804D1681C00F058FFD7
:1033A00084ED020B0A2208490448FFF7B2FF0748E0
:1033B0000068016821F00801016070BDB0000020C4
:1033C00000000240000000203400002038010020EE
:1033D00070470000F8B5016804460868CA684B6980
:1033E00010F00F0F4FF0000559D003F0010602F462
:1033F0009077374365D0C10705D0D10503D5216C3F
:1034000041F001012164410705D5D90703D0216CA2
:1034100041F002012164810705D5D90703D0216C51
:1034200041F004012164010707D502F02001314376
:1034300003D0216C41F008012164216C00293AD0AD
:10344000800604D5900602D5204600F000FD2068D5
:103450004069216CC0F38010090700D460B3204696
:1034600000F0C0FC20684069400621D52068143077
:1034700050E8001F21F0400140E80012002AF5D179
:10348000A06BA8B16C490165A06BFEF737FF00285F
:1034900011D0A06B016D01B0BDE8F0400847830674
:1034A0000FD593060DD52046BDE8F84000F0CFBCFF
:1034B0002046FFF78DFFF8BD2046FFF789FF256402
:1034C000F8BD266B2023012E79D1C60677D5D60606
:1034D00075D50868486800904869400640D5A16BDA
:1034E000086840680004000CEAD0A28D8242E7D947
:1034F000E085C869B0F5807F2DD020680C3050E899
:10350000001F21F4807140E80012002AF5D12068E4
:10351000143050E8001F21F0010140E80012002A99
:10352000F5D12068143050E8001F21F0400140E838
:103530000012002AF5D184F83E30256320680C3053
:1035400050E8001F21F0100140E80012002AF5D1D8
:10355000A06BFEF78AFEA08DE18D401A81B229E0B2
:10356000A08DE18D401A81B2E08D0028A8D00029FD
:10357000A6D020680C3050E8002F22F4907240E86A
:103580000026002EF5D12068143050E8002F22F0DC
:10359000010240E80026002EF5D184F83E30256374
:1035A00020680C3050E8002F22F0100240E8002381
:1035B000002BF5D12046FFF7D7FEF8BDFFE7050643
:1035C0002BD5150629D594F83D002128F5D1A06802
:1035D000B0F5805F01D12069B0B1206A411C216241
:1035E000216800784860E08C401E0004000CE084F4
:1035F000E3D12068C16821F08001C1602068C16802
:1036000041F04001C160D8E7206A0088C0F308009B
:103610004860206A801C2062E5E74006CDD5500650
:10362000CBD5CA68204622F04002CA6084F83D30FB
:1036300000F027F9C1E70000EF3C000870B5040076
:1036400004D094F83D00002510B106E0012070BDC3
:1036500084F83C50204600F023F8242084F83D00F4
:103660002068C16821F40051C160204600F050FC80
:103670002068016921F4904101612068416921F0CD
:103680002A0141612068C16841F40051C16025648C
:10369000202084F83D0084F83E00002070BD00002A
:1036A0002DE9F04186B0064614216846FCF761FE1C
:1036B000DFF800C1316840480222032307273F4D4D
:1036C0000024614557D13C491431D1F800C04CF079
:1036D000100CC1F800C0096801F0100105910168E3
:1036E00041F0010101600068694600F001000590A9
:1036F00058028DE81500CDE903372846FEF782FF12
:10370000304D2F484FF000672860C5E901744FF431
:103710008068C5E903486C61AC61EC612C622846A5
:103720006C62FEF7CDFE08B1FEF7E9F9B563AE6352
:10373000244D234860357830E5E802074020A5E8AD
:103740001101204845F814496030AC61EC612C62ED
:103750006C62FEF7B5FE08B1FEF7D1F97563002281
:1037600011462520AE63FFF7B9F82520FFF7A8F82A
:1037700006B0BDE8F081144EB142F9D10E491031C6
:103780000E6846F400360E60096801F400310591B8
:10379000016841F0010101600068694600F0010024
:1037A00005900C208DE81500CDE903372846FEF77B
:1037B00029FFDDE7001001403038024000000240E0
:1037C00040640240380100200044004070477047C8
:1037D0002DE9F843044690F83D001F4616460D4675
:1037E00020284CD1C5B1BEB194F83C00012846D088
:1037F000012084F83C004FF00008C4F840802120EC
:1038000084F83D00FEF7FCFFA6848146E684A068AC
:10381000B0F5805F03D004E00120BDE8F8832069A3
:1038200028B12E465FF0000584F83C800EE00026AB
:10383000FAE78021204600F03BFCA0B9AEB116F8B3
:10384000010B21684860E08C401EE084E08C4B4610
:103850004FF0000200970028EBD14FF040012046C6
:1038600000F026FC30B10320D7E735F8020BC0F397
:103870000800E6E7202084F83D000020CDE7022084
:10388000CBE77047FEE70000074890ED1E0ABDEE4B
:10389000C00A10EE100A002800DA4042322801DC8B
:1038A0000120704700207047F801002005480121E1
:1038B000017080F8901080F8201180F8B011FEF7A8
:1038C0000FB80000F80100200E4810B50C49016047
:1038D0000621416000214FF480228160C0E903127B
:1038E0004161017641768176C17601774177FEF7B5
:1038F00098FB002803D0BDE81040FEF700B910BDCA
:1039000000640040400000200D4808B5016841F403
:10391000800101600068002200F4800000901146E0
:103920003A20FEF7DBFF3A20FEF7CAFF00221146DD
:103930004620FEF7D3FFBDE808404620FEF7C0BF93
:103940003038024030B587B014216846FCF711FDCD
:1039500011480024016841F080010160016801F014
:1039600080010591016841F00101016000680B4D83
:1039700000F001000590012202212846FEF73AFFDF
:1039800001210220CDE90214CDE900016946284653
:10399000FEF738FE07B030BD30380240000002406C
:1039A00010B586B000241848009401940294039442
:1039B000049414490594016040F28F61C0E9011438
:1039C00040F2F311C0E9031444618461FFF7B6FAD1
:1039D00008B1FEF794F84FF48050009069460A4809
:1039E000FFF738FB08B1FEF78AF8049404A90648EB
:1039F0000594FFF75BFA002801D0FEF780F806B0C7
:103A000010BD000000000140680000200C4810B507
:103A10000A4901604FF4E1314160002181600C22CC
:103A2000C160C0E904128161C161FFF707FE00288F
:103A300003D0BDE81040FEF762B810BD0010014091
:103A4000B00000200C4810B50A4901604FF4E13184
:103A50004160002181600C22C160C0E904128161D3
:103A6000C161FFF7EBFD002803D0BDE81040FEF771
:103A700046B810BD00440040F4000020FEE7FEE719
:103A800090ED040AD0ED030AB0EE002A30EE600A91
:103A900080ED050AD0ED070AD0ED001A30EE601A6D
:103AA00021EE211AD0ED011A01EE801AF0EE401A33
:103AB00040EEC21A90ED062A71EE821A90ED022AAB
:103AC00002EE211AD0ED081A31EE211A80ED081A03
:103AD000C0ED060A80ED070A90ED090AB4EEC01A9F
:103AE000F1EE10FA01DD80ED080AD0ED080AB1EE22
:103AF000400AF4EEC00AF1EE10FA01D280ED080A95
:103B0000704770477047FEF781BE000030B593B034
:103B100030216846FCF72DFC14210CA8FCF729FC89
:103B20001D480025016841F080510160006800F0E7
:103B3000805011901948016841F48041016000688B
:103B4000022400F480401190012003901020049082
:103B5000009406940820CDE90750A820CDE9090477
:103B600004200B906846FEF7D5FF08B172B6FEE759
:103B70000CA90F2081E831004FF4A0500F904FF4B2
:103B80008050109005210CA8FEF7DAFE002801D025
:103B900072B6FEE713B030BD4038024000700040FE
:103BA0000248016841F470010160704788ED00E04F
:103BB0000148FFF7BEBA000068000020F0B50268B7
:103BC000254C264D264E274F274B4FF0804CA042C8
:103BD00009D0604507D0A84205D0B04203D0B84212
:103BE00001D0984204D122F0700E4A6842EA0E02D7
:103BF000A0421BD0604519D0A84217D0B04215D0C2
:103C0000B84213D0984211D0184DA8420ED0184D8A
:103C1000A8420BD0174DA84208D0174DA84205D096
:103C2000164DA84202D0164DA84203D122F4407589
:103C3000CA682A434D6922F080022A4302608A68DA
:103C4000C2620A688262A04201D0984201D1096929
:103C5000016301214161F0BD00000140000400400A
:103C600000080040000C00400004014000400140FA
:103C7000004401400048014000180040001C004082
:103C80000020004010B5846842EA032224F47F44F7
:103C90000A432243826010BD826822F070020A4308
:103CA00042F007018160704710B5036A046A24F08E
:103CB00001040462846924F0F00444EA021423F04D
:103CC0000A020A438461026210BD10B5036A23F040
:103CD000100303628369046A23F4704343EA0232E7
:103CE00024F0A00343EA01118261016210BD10B506
:103CF000806B0021C185C184FFF76AFB10BD70B5E0
:103D0000846B2068406994F83D10C0F3C010002512
:103D1000212904D118B1E584204600F08AF82068F2
:103D2000406994F83E10C0F38010222904D118B1E4
:103D3000E585204600F056F8206C40F01000206425
:103D40002046FFF745FB70BD10B50146806B096842
:103D50000968C9052FD40021C18501680C3151E8DB
:103D6000002F22F4807241E80023002BF5D1016876
:103D7000143151E8002F22F0010241E80023002B0A
:103D8000F5D10168143151E8002F22F0400241E8DA
:103D90000023002BF5D1202180F83E10016B012972
:103DA00009D101680C3151E8002F22F0100241E8DE
:103DB0000023002BF5D1016B012902D0FFF706FD8E
:103DC00010BD818DFFF7D0FA10BD10B5806B016B6F
:103DD000012902D0FFF7FBFC10BD818D4908FFF7D8
:103DE000C3FA10BD01680C3151E8002F22F4907223
:103DF00041E80023002BF5D10168143151E8002F70
:103E000022F0010241E80023002BF5D1016B0129CA
:103E100009D101680C3151E8002F22F0100241E86D
:103E20000023002BF5D1202180F83E1000210163F2
:103E3000704701680C3151E8002F22F0C00241E8C0
:103E40000023002BF5D1202180F83D10704708B5E4
:103E500090F83E10222901D0022008BD82684FF45C
:103E600080539A4201D1016921B1816A9A421BD0E3
:103E70004AB10AE00268816A5268C2F308020A8005
:103E8000816A891C08E0026972B10268526802F016
:103E90007F020A70816A491C8162C18D491E090432
:103EA000090CC18503D019E002685268F1E7016886
:103EB000CA6822F02002CA600168CA6822F48072CF
:103EC000CA6001684A6922F001024A61202180F833
:103ED0003E10016B012903D0FFF778FC002008BDDC
:103EE0000021016301680C3151E8002F22F010021B
:103EF00041E80023002BF5D101680A68D20602D5FB
:103F00000A6849680091818DFFF72EFAE6E7000004
:103F100070B5044600680169E26821F4405111431C
:103F200001612169A068E26908436169114308439E
:103F30002168CA6849F20C639A430243CA60206848
:103F40004169A26921F440711143416131492068FE
:103F5000884202D03049884202D1FEF79BFD01E041
:103F6000FEF788FDE2690023192164253226B2F5A7
:103F7000004F626828D0A0FB0101930F9200FCF76C
:103F800081F90146B0FBF5F06FF01802504301EBE8
:103F9000800006EB0010B0FBF5F000F0F002B1FB82
:103FA000F5F002EB0012B1FBF5F06FF01803584387
:103FB00001EB800006EB0010B0FBF5F000F00F0005
:103FC00021681044886070BDA0FB010192185B411C
:103FD000FCF758F90146B0FBF5F00201B1FBF5F032
:103FE0006FF01803584301EB800006EBC000B0FBF4
:103FF000F5F000F0F80002EB4002B1FBF5F0584399
:1040000001EB800006EBC000B0FBF5F000F007000C
:10401000D6E70000001001400014014038B581626D
:1040200082850025134604460564222084F83E005C
:10403000A26B1C48D063A26B1B481064A26B1B4888
:10404000D064A06B0A4605652168A06B091DFEF7C8
:10405000A1FA206801684068009084F83C5020690B
:1040600048B120680C3050E8001F41F4807140E8EE
:104070000012002AF5D12068143050E8001F41F0EA
:10408000010140E80012002AF5D12068143050E800
:10409000001F41F0400140E80012002AF5D1002045
:1040A00038BD0000493D0008CB3D0008FF3C00083A
:1040B0002DE9F041984617460E460446069D27E036
:1040C000681C25D02DB1FEF79BFBA0EB0800A84291
:1040D0001ED920680C3050E8001F21F4D07140E850
:1040E0000012002AF5D12068143050E8001F21F09A
:1040F000010140E80012002AF5D1202084F83D009B
:1041000084F83E00002084F83C000320BDE8F081E4
:104110002068006836EA000004D00020B842CFD002
:104120000020F3E70120F9E70148FFF753B9000049
:10413000B0000020FEE70907090E002804DB00F1AB
:10414000E02080F80014704700F00F0000F1E0203C
:1041500080F8141D7047000030B52DED048B81B040
:10416000B0EE408AF0EE608A6A4651EC180B00F01F
:104170002FF900989FED329B7E300090002821DCC3
:1041800053EC192B51EC180B00F0B2FB1AD00021A4
:1041900040F608004FF00000044651EC180B00F008
:1041A000B9FA08EE100A40F6080004EA00014FF0E0
:1041B0000000B5EEC08AF1EE10FA04BF0220FCF751
:1041C00007F92DE00098FF2830DB002108464FF06A
:1041D000000000F4400553EC192B51EC180B00F0D3
:1041E0002BFD8CBF002401240220FCF7F1F89FED89
:1041F000168A4DB1002C0CBF4FF400004FF4800024
:10420000A84218BF9FED118A042108464FF0000014
:10421000002C01BFB1EE480A01B0BDEC048B30BDEB
:10422000B0EE480A01B0BDEC048B30BD51EC180B68
:1042300000F070FA01B000EE100ABDEC048B30BD46
:1042400000000000000000000000807FFFFF7F7F73
:1042500030B583B00446FCF7B6F89FED090B054670
:104260008DED000B002221466846FCF7D5F8284664
:10427000FCF7AEF89DED000B03B030BD0000000070
:10428000000000000000000030B540F2FF742DED8A
:10429000048BF0EE608A18EE901A85B0B0EE408A7A
:1042A0009FED2B9B05468DED008B34EA115147D0D5
:1042B00053EC192B51EC180B00F01AFB40D02A4696
:1042C00051EC180B00F017FE41EC180B18EE900A99
:1042D0008DED008B34EA10501CD053EC192B51ECAF
:1042E000180B00F005FB2BD10220FCF771F800F051
:1042F00043F810EE901A18EE900A8DED020B8DED3A
:10430000008B61F31E0003909DED020B05B0BDEC28
:10431000048B30BD0220FCF75BF800F01DF810EEB6
:10432000901A18EE900A8DED020B8DED008B61F363
:104330001E0003909DED020B05B0BDEC048B30BD5B
:1043400005B0B0EE480AF0EE680ABDEC048B30BD53
:1043500000000000000000009FED050B10B553ECBD
:10436000102B51EC100B00F069FB41EC100B10BD51
:1043700000000000000000709FED050B10B553EC2D
:10438000102B51EC100B00F059FB41EC100B10BD41
:10439000000000000000001010B5044691ED000B75
:1043A000FFF7DAFE84ED000A10BD10B5044690ED6B
:1043B000000B0846FFF768FF84ED000B10BD303896
:1043C0000A2801D201207047002070477047000082
:1043D00010B582B01446CDE900010023009A236095
:1043E000194B21F0004098422ADA024328D0B0F558
:1043F000801FA8BF226810DA9FED150B53EC102B1D
:104400009DED000B51EC100B00F018FBCDE9000105
:104410006FF0350221F0004022600F4B6FF31E5108
:1044200003EB20501044206041F0FF5040F000505A
:1044300001909DED000B00BF02B051EC100B10BDC0
:104440009DED000BF8E700000000F07F0000000089
:10445000000000000000504302FCFFFF0988DFED70
:104460000B0A49BA00EE101A90ED0D1AB8EE400A88
:1044700060EE200A80EE810A80ED020A80ED060AD5
:1044800080ED070A80ED080A704700000000B44381
:10449000FEF7C4F9FFF73AFBFFF754FAFFF734FAD7
:1044A000FFF7B4FAFFF7CEFAFFF70EFAFFF778FA44
:1044B0003248FDF797F9FFF7F9F90A2230493148F8
:1044C000FEF727FF30480068016821F0080101600D
:1044D0002E48FEF733FD2D48FEF77CFDDFF8B09047
:1044E000012202214846FEF785F90127DFF8908076
:1044F0003025284C00262078732803D061780129C4
:1045000015D027E09FED240B676084ED040B9FED31
:10451000240B00F085F8012202214846FEF76AF9D3
:10452000FF23032220A11748FFF752F908E068286B
:1045300002D0762806D00DE06670A77088F800508B
:10454000257007E094ED020B00F06AF888F800503F
:1045500025706670FFF798F90128CCD1A078012862
:10456000C9D1012202214846FEF744F9FF23032264
:104570000DA10448FFF72CF9A670BCE7400000200D
:1045800034000020B0000020380100206800002026
:10459000000002400000002000000000000000C0F9
:1045A0000000000000000040310D0A0000B580ED61
:1045B0001D0A90ED0A0A014680ED1C0A6430FFF7DF
:1045C0005FFA91ED210A01F1380081ED120A91EDB7
:1045D000030A81ED110A5DF804EBFFF751BA000000
:1045E0001FB50AA41ECC8DE81E00010A8DF8071025
:1045F0008DF8060008449130C0438DF80C00FF236D
:104600000D2269460548FFF7E3F81FBDFFFF0109CA
:10461000032A000000005A00DD000000F400002022
:104620009FED0D1B10B553EC112B51EC100B00F04E
:1046300005FA9FED0B1B53EC112B00F09DF800F0D9
:1046400093F980B24FF46171884200D80846BDE802
:104650001040FFF7C5BF0000C3F5285C8F467740C8
:10466000000000000090AA4010B50E482DED028B0E
:10467000B0EE408AFFF79AFF0A48B0EE480A903041
:10468000FFF794FF0848B0EE480AFFF78FFFB0EE3F
:10469000480ABDEC028B0448BDE810409030FFF79B
:1046A00085BF0000F801002018030020DFED020A9A
:1046B00020EE200AFFF7D8BF6666714210B50029C8
:1046C0000AD00878002807D005487844FCF7BEF9DE
:1046D000002801D0002010BD0248784410BD000021
:1046E000AA090000A209000010B500290AD0087824
:1046F000002807D005487844FCF7A8F9002801D025
:10470000002010BD0248784410BD00009A09000046
:104710009209000021F00042A2F16052B2F5801F20
:1047200001F0004328BFD2F17F6C0BD95FEA001C77
:1047300043EAC20242EB507018BF704728BF20F016
:1047400001007047B2F5801FBCBF184670474FEAA2
:10475000410C1CF5001F02D2084600F092BB70B558
:1047600000F016FA00000089FFF7F6BF4FF0004096
:10477000A0F580007047000010B591EA030F48BF14
:1047800083F0004300F19682841A71EB030C05D28A
:10479000121943EB0C03001B61EB0C01DFF824E161
:1047A0004FEA1154A4EB135C1EEA430F18BF9EEAB4
:1047B000445F73D023EA0E03DCF1200E21EA04519A
:1047C00043F4801332D322FA0CFE10EB0E0023FACE
:1047D0000CFE41EB0E01CCF1200E03FA0EFE10EBA5
:1047E0000E0051F10001B1F5801FCCF1200E32D244
:1047F00001EB045112FA0EF2BDE8104058BF7047A9
:10480000401C38BF5FEA420218BF7047002814BF3F
:1048100020F0010041F100014FEA410313F5001FB0
:1048200038BF7047A1F1C04100F000BA012A43EB44
:104830000302ACF1200CDCF11F0E32BF4FF0000E72
:1048400023FA0CF310EB030041EB0451B4EB115FBE
:10485000D0D0A1EB045101F5801149085FEA300086
:1048600001EB04510ED350F1000038BF12FA0EFED6
:1048700008D1BDE81040C9E7401C38BF5FEA4202DA
:10488000CAD1C3E7BDE810404FEA410313F5001F4A
:1048900038BF7047A1F1C04100F0C8B99EEA445F3B
:1048A00008D011EA5E0FBDE8104004BF01F00041DE
:1048B00000207047BDE8104070B500F069F900BFF6
:1048C00064FBBE3E0000E0FF02494FF0000000F034
:1048D000E0BA00BF0000F87F491058BFC1F1404165
:1048E0005B1058BFC3F140438B42EFF30080704729
:1048F00051EA030C17D41CF5801F58BFBCF5801F6C
:1049000000F10680994218BF704708BF9042704777
:1049100007D711F5801F58BF13F5801F19D499428E
:104920007047894270471CF5801F08D5BCF5801F71
:10493000F7D58B4218BF704708BF824270474FF4CB
:10494000001C1CEB410F38BF1CEB430F01D28B4204
:10495000704770B500F01CF9922449004FF00051E7
:104960004FF08053FFF7B8BF4FEA1153A3F58063B0
:10497000D3F11E03A8BFD3F1200C08DB4FF0004297
:1049800042EAC12252EA505232FA03F07047094219
:104990000BD4102BC4BF0020704703F5787CBCF10A
:1049A000FF3F05D04FF0FF3070474FF000007047D9
:1049B00070B500F0EDF800BF4992248000207047E8
:1049C000F0E7000051EA030C17D41CF5801F58BF14
:1049D000BCF5801F00F10680994218BF704708BFE0
:1049E0009042704707D711F5801F58BF13F5801FFD
:1049F00019D499427047894270471CF5801F08D529
:104A0000BCF5801FF7D58B4218BF704708BF8242A4
:104A100070474FF4001C1CEB410F38BF1CEB430FD9
:104A200001D28B42704770B500F0B2F89224490071
:104A30004FF000514FF08053FFF74EBFDFF848C1F1
:104A400070B51CEA111E1EBF1CEA13159EEA0C0F5E
:104A500095EA0C0F00F06F8081EA030423EA4C13FF
:104A60004EEAD47E21EA4C1141F4801143F48013C4
:104A7000AE44A1FB024CA0FB0365AEF17F7E36196C
:104A800055EB0C05A1FB034C4CF10003A0FB021CF1
:104A900016EB0C06654153F10003094218BF46F0BE
:104AA000010613F4007F0BD14FEA03314FEA0530C2
:104AB000340341EA155140EA16506FF003020AE050
:104AC0004FEAC3214FEAC520F40241EA555140EABA
:104AD00056506FF0020202EB2E4201EB025585EABE
:104AE000CE710AD05FEA440C18BF24F0004450F1A4
:104AF000000041F1000120EAD47040F2FE7C6245E2
:104B000000D270BDA84214BF4FF080444FF0404423
:104B1000002E08BF0024BEF1806FA8BFA1F1C041E4
:104B2000BDE8704080F282804FF0000001F1C0418A
:104B300001F0004170479EEA0C0F0CEA131518BFF4
:104B400095EA0C0F06D04FF0000081EA030E0EF03C
:104B5000004170BD00F01CF88900013E00F007B86C
:104B600000F009B84FEA430C5FEA5C5C08D081EAC8
:104B7000030100F05BB84FEA410C5FEA5C5CF6D1E0
:104B80004FF00000014970470000FF070000F87F68
:104B90000EF1020E2EF0030E5EF8046B364205D4C1
:104BA000012A43EB030515F5001F12D8012841EB3C
:104BB000010C1CF5001F0CD80ED14FEAD17C15F565
:104BC000001F0CEB4C0C0CF1020C08BF4CEBD37C1F
:104BD00004E04FF0080C01E04FEAD37C0CEB4C05ED
:104BE00026FA05F606F00706B6F1040C06D20EEB1F
:104BF000860CBDE870404CF0010C6047DFE80CF01B
:104C0000090B02024FF000414FF00000A1F5002116
:104C100070BD19461046012851EB010418BFD4F5A8
:104C2000001484BF002001F0004170BD0808A0F509
:104C300000114FEA3101704753EA010C17D41CF5FB
:104C4000801F58BFBCF5801F00F106808B4218BF43
:104C5000704708BF8242704707D713F5801F58BFBF
:104C600011F5801F19D48B4270479B4270471CF589
:104C7000801F08D5BCF5801FF7D5994218BF704733
:104C800008BF904270474FF4001C1CEB430F38BF25
:104C90001CEB410F01D2994270470FB40CBC03BC0E
:104CA000FFF7C1BE10B591EA030F48BF83F0004380
:104CB0003FF56AAD841A71EB030C07D212198CF020
:104CC000004C43EB0C03001B61EB0C01DFF8A4E18B
:104CD0004FEA1154A4EB135C1EEA430F18BF9EEA7F
:104CE000445F00F0B08023EA6E03524221EA04518F
:104CF000C3EB6E0338BF5B1EDCF1200E25D322FA16
:104D00000CFE10EB0E0043FA0CFE41EB0E01CCF151
:104D1000200E03FA0EFE10EB0E0051F10001CCF153
:104D2000200E29D412FA0EF201EB0451BDE8104016
:104D300058BF7047401C1CBFB2F1004F704700289D
:104D40000CBF491C20F00100704712EB020E43EB30
:104D5000030218BF4FF0010E4EEA4202ACF1200CE4
:104D6000DCF11E0E54D943FA0CFE10EB0E0051F18B
:104D7000FF31CCF11E0ED5D50EF1010E12FA0EFE4A
:104D8000404141EB010101EB445C5FEA5C5C10D9FE
:104D900010EBDE7001EB045138BFBEF1004FBDE8EF
:104DA000104018BF704700280CBF491C20F00100BC
:104DB000704730D24FEAD42C11F5001124F400646E
:104DC0001BD0B1FA81F20B3AA41AA41ED2F120032F
:104DD000914030FA03F31943904001EBCC71002C61
:104DE00001EB0451BDE81040A8BF704701F1C0417C
:104DF0004FF0000001F000417047B0FA80F310FA64
:104E000003F100D110BDE41A173C4805C90AE4E7D4
:104E100001EB045110BD491001EB0451BDE81040F5
:104E20004FEA300002E04FF0000170474A0008BF2F
:104E30000042F8D0B2F5001F28BF704701F00041D2
:104E40004FF0000070479EEA445F07D011EA5E0F02
:104E5000BDE8104004BF002100207047BDE81040AD
:104E600070B5FFF795FE00BF40DFF63E83F00041CE
:104E7000104670470000E0FF4FF04070E1EE100A6E
:104E80007047FF2141EAD050C00570474FF0000045
:104E900070470CF00F03092B08BF082000F05F805B
:104EA0000A2B0BD0082B18BF704708BF1CF0400F0F
:104EB0000AD04FF000004FF0000170471CF0400F87
:104EC00018BF4FF0004070471CF0100F08D020F0C2
:104ED000704300F07F4242EAD3014FEA43707047CB
:104EE00000F0604021F07F4242EA000201F07F4082
:104EF00040EA727070474FF0FF0C4CF4E06C1CEA13
:104F000011531CBF9CEA030C9445C2BFDA4201EB6B
:104F100002517047002B0DD0BCF1000F0FD0002ABA
:104F200001F00041A4BF41F0E04141F07F614FF04A
:104F30000000704701F000414FF00000704750EA58
:104F400001334FF09B0C18BF4CF0806C7FF4BCAC6D
:104F50007047FBF71BBCFBF72FBEFBF7BDBF1CF474
:104F6000801F11D01CF4E02F03D06FEACC31490030
:104F700070474FF04050EFF3008222F0704242EA57
:104F8000000282F3008870474FF00000704700066F
:104F900010160006101600000000000000000102BC
:104FA00003040607080900000000010203040000D2
:104FB00002400000000000A00000000005400000CA
:104FC000000000C8000000000C4000000000409CF1
:104FD00000000000194000000020BCBE00000000DE
:104FE00034400000BFC91B8E00000004B540000023
:104FF000504BCFD06607E2CF010000006C410000AB
:105000003E8251AADFEEA73401000000D942000021
:10501000DCB5A0E23A301F97FFFFFFFFB445000068
:10502000FD25A0C8E9A3C14FFFFFFFFFFF3F000020
:105030000000008000000000FF3F00000000008032
:1050400000000000A0510008000000203400000013
:10505000C4010008D451000834000020A40C000052
:10506000E0010008000000000000F07FFFFFFFFFEC
:10507000FFFFEF7F1C00000043000000F8FFFFFF70
:105080000C0000000E0000000F0000002E000000C9
:105090001001000043000000F8FFFFFF0040404007
:1050A00040404040404041414141414040404040FB
:1050B00040404040404040404040404040050202A7
:1050C0000202020202020202020202020220202066
:1050D00020202020202020020202020202029090C2
:1050E00090909090101010101010101010101010C0
:1050F0001010101010101010020202020202888814
:10510000888888880808080808080808080808081F
:105110000808080808080808020202024000000007
:10512000000000000000000000000000000000007F
:10513000000000000000000000000000000000006F
:10514000000000000000000000000000000000005F
:10515000000000000000000000000000000000004F
:10516000000000000000000000000000000000003F
:10517000000000000000000000000000000000002F
:10518000000000000000000000000000000000001F
:10519000000000000000000000000000000000000F
:1051A00030000000000000000000000000000000CF
:1051B00000000000000000000100000010000000DE
:1051C000000000000024F4000000000000000000C7
:0451D00000000000DB
:040000050800018965
:00000001FF
