:020000040800F2
:1000000038090020A5010008513900085F340008B4
:10001000ED36000855160008894000080000000071
:10002000000000000000000000000000553900083A
:100030009B1600080000000053390008D939000859
:10004000BF010008BF010008BF010008BF01000890
:10005000BF010008BF010008BF010008BF01000880
:10006000BF010008BF010008BF010008BF01000870
:10007000BF010008BF0100085916000865160008F6
:10008000BF010008BF010008BF010008BF01000850
:100090007D400008BF010008BF010008BF01000843
:1000A000BF010008BF010008BF010008BF01000830
:1000B0003D3A0008BF010008BF010008BF01000869
:1000C000BF010008BF010008BF010008BF01000810
:1000D000BF01000871400008BF010008BF0100080F
:1000E000BF010008BF010008BF01000800F002F8CE
:1000F00000F048F80AA090E8000C82448344AAF17A
:100100000107DA4501D100F03DF8AFF2090EBAE877
:100110000F0013F0010F18BFFB1A43F0010318473B
:10012000905A0000B05A0000103A24BF78C878C135
:10013000FAD8520724BF30C830C144BF04680C60ED
:10014000704700000023002400250026103A28BF35
:1001500078C1FBD8520728BF30C148BF0B60704739
:100160001FB500F0EDFB04000020002104F07CFB33
:10017000401C60600020002104F060FBE0601FBDB7
:1001800010B510BD00F0E8F81146FFF7E9FF04F0E4
:1001900089F900F08BFB03B4FFF7F2FF03BC00F01A
:1001A0006FFE00000948804709480047FEE7FEE768
:1001B000FEE7FEE7FEE7FEE7FEE7FEE7FEE7FEE717
:1001C00004480549054A064B704700003B3A0008C1
:1001D000ED00000838030020380900203805002011
:1001E000380500204FF0000200B5134694469646AD
:1001F000203922BFA0E80C50A0E80C50B1F120013A
:10020000BFF4F7AF090728BFA0E80C5048BF0CC0E7
:100210005DF804EB890028BF40F8042B08BF704745
:1002200048BF20F8022B11F0804F18BF00F8012BB7
:10023000704770477047704710B500F05BF8006872
:1002400010BD10B5044600F055F8046010BD000064
:100250000FB4002300B589B00CA900910B99CB60B5
:10026000214B7B440693214B7B44079304236FF07F
:100270000042CDE901321E4A7A446B46089202469A
:10028000002005F017FC09B05DF814FB70B50646B8
:100290004FF0FF3015460C46324686B00091CDE94E
:1002A000010169460020049004A8FFF7D1FF02462F
:1002B0000498211825B108B1084600E020462860BE
:1002C000049800280DD0002A02DD0098884208D04A
:1002D0003246081B69460094CDE9010404A8FFF7E3
:1002E000B7FF06B070BD0000A9000000C10000000B
:1002F0008100000000487047D802002010B5044675
:1003000000F050F80068005D00F0010010BD426888
:1003100042B1016811F8013B23B1521EC0E900123D
:10032000184670470121C160881E704742685AB163
:10033000C368016843B983688B4205D0491E521CCB
:10034000C0E90012002070474FF0FF3070470000F6
:1003500000487047D80200207546FFF7F9FFAE4607
:1003600005006946534620F00700854618B020B5C1
:10037000FFF726FFBDE820404FF000064FF00007D2
:100380004FF000084FF0000B21F00701AC46ACE83D
:10039000C009ACE8C009ACE8C009ACE8C0098D46AA
:1003A0007047000010B500F0CBFA001D10BD00BF73
:1003B000B94400002DE9FF4F06468BB00878FF28AE
:1003C00006D0491C2D2805D000244FF0000908E074
:1003D00000200CE00124F8E709EB8903491C00EB3D
:1003E00043090878FF28F7D114B1C9F1000081460C
:1003F000107800252C46AA4629462D2801D02B2806
:1004000004D1521C2D2813D0002082468B46107830
:10041000FF280FD04FF0000C0A21521CA5FB0178D9
:1004200004FB018105FB0C11C5194BEB0104EEE740
:100430000120EAE7002108464FF00000BAF1000F62
:1004400002D000EB80004008C0F38157012F01DD8E
:100450004FF0FF370E9955EA040009EB01080BD065
:100460004FF0020918F5FA7F16DA4FEACA70002F2A
:10047000706008DD012007E04FEACA70C6E900B0ED
:100480000FB0BDE8F08F00203060FFF733FFC0F8F9
:1004900000901821084616E0B8F5FA7F18DD002F05
:1004A00002DAF748784401E0F6487844D0E90010D1
:1004B000C6E9001040EACA707060FFF71BFFC0F881
:1004C0000090142108460FB0BDE8F04F05F08FBA38
:1004D000002108464FF00000B8F10001099002DA4F
:1004E000C7F1000200E03A4601DAC8F1000106A8AF
:1004F00000F02AFA06AB93E8070003AB83E8070095
:1005000044F23E005BEA04010090584604D144F2F4
:100510001E012C465D460091210C0904014306D1C1
:100520000099240444EA15442D041039009104F084
:100530007F41014306D10099240244EA15642D024B
:100540000839009104F07041014306D1009924015B
:1005500044EA15742D01091F009104F04041014344
:1005600006D10099A40044EA9574AD00891E00915B
:1005700004F00041084304D100986D196441401E05
:1005800000904FF001033A466846B8F1000FCDE9FC
:10059000014503A902DD00F026FF01E000F0F9FEAD
:1005A000BAF1000F04460D4601D084F0004400214A
:1005B00008464FF00000099940F2FF77484010F0DC
:1005C0000C0F07D124F00040284303D0C4F30A5095
:1005D000B84212D1FFF78EFEC0F80090C4F30A5063
:1005E000B8420AD1A8487844D0E90010C6E9001002
:1005F00004F000410843706042E7C6E900543FE759
:100600002DE9FF4F1F464FF0000A4FF0FF384546D7
:1006100091B0D7E90146CDF83CA000F091F9C0684F
:100620000168405C1090B96912986D1C8847396A5E
:10063000814688470028F6D1B9F1FF3F0AD0002E45
:1006400024F4D06411DDB9F12B0F08D0B9F12D0FCE
:100650000BD102E0404615B013E744F48064B96959
:1006600012986D1C8847761E8146600504A901D545
:100670002D2000E02B20002E01F1010B0DF13008A0
:100680008DF810003FDDB9F1690F08D0B9F1490FBD
:1006900005D0B9F16E0F02D0B9F14E0F1CD13B4617
:1006A00001A8009580E85002DDE912126FF0020007
:1006B00005F004FAC11CCED10EE0B96912986D1C88
:1006C000884781461398761E44F4007405600F989D
:1006D000401C002E0F9016DDB9F1300FEDD0B9F1AE
:1006E000780F02D0B9F1580F0DD10F9801280AD117
:1006F0003B46CDE90054DDE91212001F029605F0D9
:10070000DBF9C11CA7D1109989453ED144F0800482
:1007100006E01399681CAAF1010A44F40074086009
:10072000B9696D1C1298761E884730288146F0D032
:100730002BE01099894505D1200603D4761E44F09C
:10074000800418E0484603F030FD08B3761E0DF132
:1007500023018B4544F4007408D2A9F130000BF852
:10076000010B200607D5AAF1010003E0200602D400
:100770000AF101008246A00502D51399681C0860A1
:10078000B96912986D1C88478146002ED1DC53E070
:10079000002E51DDB9F1650F02D0B9F1450F4BD1F3
:1007A000A00549D5B9696D1C1298761E24F44074D1
:1007B0008847002E81460CDD2B2804D0B9F12D0F7F
:1007C00007D144F48074B96912986D1C8847761E6D
:1007D0008146E00501D52D2100E02B2108F8011B01
:1007E000CDF8008021E0761E0DF13901884544F4F2
:1007F00000740CD2A9F1300010F0FF0088F800005E
:1008000002D10099884509D908F1010806E0E00500
:1008100001D51E4801E042F20F708246B969129874
:100820006D1C8847814613980560002E04DD4846FC
:1008300003F0BBFC0028D6D1F96912988847FF2045
:1008400053468BF8000088F8000000200A900B90B7
:1008500004AA0CA90AA8FFF7ADFDA00502D46FF009
:100860000100F8E614F0240F12D0E0071CD138681C
:10087000DDE90A12031D3B600068C0E9001213E0C5
:100880003057000022570000E6550000F1D8FFFF66
:100890000AA9684603F018FCE00705D13868009AF9
:1008A000011D3960006802602846D4E610B5044690
:1008B000AFF300802046BDE81040FFF76CBC00009D
:1008C0004FF0013C50F8042B51F8043B9A4221D1DF
:1008D000A2EB0C03934313EACC1317D150F8042B6B
:1008E00051F8043B9A4215D1A2EB0C03934313EA4F
:1008F000CC130BD150F8042B51F8043B9A4209D188
:10090000A2EB0C03934313EACC13DBD04FF00000AF
:10091000704700BFD01A01BAB1FA81F101F0180195
:1009200022FA01F0CB40C1F12001DBB2C0B2C01A03
:100930002CFA01F3D11A914311EAC311E6D17047A1
:1009400000487047F80200202DE9F047814616461E
:100950008AB0354878440DC88DE80D003248784497
:10096000801C03AC0DC884E80D0041F69B300844A0
:10097000372190FBF1F290FBF1F5A5F1800501FB29
:1009800012041B3C02D56442012000E00020DFF885
:1009900098A080460027FA44AAF1BE0A0EE0E007BC
:1009A0000AD03246684607EB470101230AEB810172
:1009B00000F004FD8DE8070064107F1C002CEED1D0
:1009C000194F7F44AE3F19E0E80715D007EB04103C
:1009D0000DF1180A90E80E008AE80E00C068F04297
:1009E00001D1981908903246012306A903A800F006
:1009F000E5FC03AB83E807006D10641C002DE3D118
:100A00004FF0010332466946B8F1000F03A802D047
:100A100000F0AAFC01E000F0D1FCC9E90001C9F82E
:100A200008200AB0BDE8F087405200002DE9FF4FD2
:100A30001F464FF03C0987B04FF00042DDE914102B
:100A400001F10108DDF858A002EA405003900020AF
:100A500005908346054604460490B969461E0898E9
:100A60008847AAF1010A0290BAF1000F3BDD029813
:100A70002E2815D0102100F01CFA00282EDB4FF094
:100A8000010B0599014317D0B9F1000F0BDB4A4662
:100A9000C11700F0FBF905430C43A9F1040905E077
:100AA000012004900BE008B145F0010501200590FC
:100AB000049820B9361D02E0049800B1361FB969C8
:100AC000089808F101088847BBF1000FAAF1010A54
:100AD0000290C9D00999C1F80080C5E70298702832
:100AE00008D0502806D0F96908988847BBF1000F54
:100AF00014D04FE0002002900120BBF1000F0490C1
:100B000009D0B969089808F101088847AAF10109D4
:100B1000B9F1000F07DCF969089888476FF0010008
:100B20000BB0BDE8F08F2B2804D02D280CD14FF04E
:100B3000FF300490B969089808F101088847A9F1C5
:100B40000109B9F1000FE6DD411CE4D00A2100F0F3
:100B5000B0F90028DFDB029908F1010801EB8101FF
:100B600000EB41000290B969089888470A2100F01B
:100B7000A0F9099AA9F10109B9F1000FC2F80080A2
:100B800001DD0028E7DAF969089888470499029896
:100B900000FB016655EA040004D004F0404109005E
:100BA00002D006E0039898E0A40044EA9574AD00F2
:100BB000B61E04F00041080002D16D196441761E92
:100BC000159810F0240F03D04FF00B095C4803E098
:100BD0004FF028096FF07D008246564507DAAAEBF0
:100BE00006018944B9F1410F01DD4FF041090120AF
:100BF0000021A9F1010200F049F9024628400B4604
:100C00002140084301D0012100E00021501E029143
:100C100043F1FF3128402140084301D0012000E08A
:100C200000200299834651EA0B014FD0002108466B
:100C30004FF00000039900F4400039B100EB800050
:100C40004FF4400100EBD07001EA600080150128EC
:100C500002DD4FF0FF3000E013D0401C36D0029888
:100C600060B3BBF1000F0CD14A460120002100F017
:100C70000DF928402140084301D0012000E0002068
:100C8000E0B101204A46002100F000F90346401976
:100C90000A4661412D1A8C4111D3B9F1400F09DD8B
:100CA000159810F0240F02D0AAF1340603E0AAF13F
:100CB000170600E0761C00254FF0004406E05B1E9E
:100CC00042F1FF3220EA030521EA0204CAF10100E1
:100CD000B04206DA1B4903980843019000200090B7
:100CE0000EE0039AC4F3D321E80A0A43164940EA06
:100CF00044500A433146CDE90002684603F04AFAFF
:100D0000159810F0240F0BD01598C00715D138682E
:100D1000DDE90012031D3B600068C0E900120CE031
:100D200002A8694603F0D0F91598C00705D13868C4
:100D3000029A011D3960006802604046F0E600003A
:100D400002FCFFFF0000F07F0000F03F2DE9FF4FA5
:100D500092461D4685B04FF00041DDE9124BDDE9BA
:100D600014727F1E01EA4B50414940F0FF4940EAAE
:100D70000108002122F020004928049102D04E28C9
:100D800028D04CE03BA0012607C88DE80700A969E0
:100D90000698641C88477F1E014606D41DF806008D
:100DA00018B121F0200181420BD0E96906988847EB
:100DB000032E34D0082E32D06FF0010009B0BDE808
:100DC000F08F761C032E01D0082EE0D1601CCAF8EB
:100DD0000000DCE7A9690698641C88477F1E2AD4B6
:100DE00020F02000412826D1A9690698641C884774
:100DF0007F1E20D420F020004E281CD1A96906981F
:100E0000641C88477F1E48F4002849F48009CAF80A
:100E1000004001D4282806D0E969069888475FEA8F
:100E2000CB7012D022E0A9690698641C88477F1E07
:100E300001D4002803DAE96906988847BCE7292825
:100E4000F1D1641CCAF80040E9E71BF0240F07D079
:100E500028680499031D2B600068C0E9001805E0AC
:100E60002868021D2A600068C0F800902046A5E7A7
:100E70000000F07F494E46494E4954590000000099
:100E800001491820ABBEFEE726000200B2F12003A4
:100E90000AD5C2F1200301FA02F120FA03F300FAA5
:100EA00002F041EA0301704700FA03F14FF000003D
:100EB00070473A2800D2303820F02002412A01D36E
:100EC000A2F13700884201D34FF0FF3070477047DE
:100ED00020F07F4C80EA030023F07F47ACEB070350
:100EE00003F57C5300F0004003F1FF032DE9804936
:100EF0004FEA154B09B44FEA144325EA0B4E24EA96
:100F000003480FF2042606EB132749083E785FEAF0
:100F1000320203FB0667C7F5000707FB06F64FEA38
:100F200054374FEAD64606F1020607FB066CCCF1B1
:100F3000005C4FEA1C472CEA074C07FB06F40CFB4D
:100F400006F504EB15464FEA961634BF00204FF025
:100F500000404FEAD13706FB07FC4FEA1C4C0CFB64
:100F60000BF7D21B03FB0CF761EB07010CFB0EF731
:100F7000B0EB074072EB17420CFB08F734BFA2EB53
:100F80000742B2EB074261EB17414FEA0C444FEACC
:100F9000910706FB07FC4FEA1C4C0CFB0BF7B0EB70
:100FA000C74072EB573203FB0CF734BFA2EBC742CA
:100FB000B2EBC74261EB57310CFB0EF7B0EBC70049
:100FC00072EB57720CFB08F734BFA2EBC702B2EB0F
:100FD000C70261EB5771039F4FEA816141EA9211A9
:100FE00004EBCC044FEAD1374FEA826206FB07FCE0
:100FF00042EA90124FEA80604FEA1C4C0CFB0BF760
:10100000D21B03FB0CF761EB07010CFB0EF7B0EBF7
:10101000074072EB17420CFB08F734BFA2EB074204
:10102000B2EB074261EB17414FEA8C554FEA91074B
:1010300004EB9C2406FB07FC4FEA1C4C0CFB0BF753
:10104000B0EBC74072EB573203FB0CF734BFA2EB97
:10105000C742B2EBC74261EB57310CFB0EF7B0EB66
:10106000C70072EB57720CFB08F734BFA2EBC70244
:10107000B2EBC70261EB577115EB4C254FEA81616A
:1010800041EA92114FEA82624FEAD13742EA901266
:1010900006FB07FC44F100044FEA80604FEA1C4C59
:1010A0000CFB0BF7D21B03FB0CF761EB07010CFBEE
:1010B0000EF7B0EB074072EB17420CFB08F734BF9A
:1010C000A2EB0742B2EB074261EB174115EB1C158F
:1010D0004FEA813141EA92414FEA823242EA90423C
:1010E0004FEA80304FEA0C7644F1000448EA0343AB
:1010F0004EEA0B484FF0000EB2EB080C71EB030701
:1011000024BF624639464EEB0E0E4FF0000B00181E
:10111000524149414BEB0B0BB2EB080C71EB03074F
:101120007BF1000B24BF624639464EEB0E0E4FF0AA
:10113000000B0018524149414BEB0B0BB2EB080C72
:1011400071EB03077BF1000B24BF624639464EEB7F
:101150000E0E51EA020718BF46F0010616EB0E7696
:1011600055F1000254F1000103D5BDE88901BDE845
:101170000088BDE88901BDE80048B619524141EB3D
:101180000101A3F10103704780807F7E7D7C7B7A23
:101190007978777676757473727171706F6E6E6D23
:1011A0006C6C6B6A6A6968686766666564646363C9
:1011B00062616160605F5F5E5E5D5D5C5C5B5B5A4F
:1011C0005A595958585757565655555554545353BC
:1011D00052525251515050504F4F4F4E4E4D4D4D17
:1011E0004C4C4C4B4B4B4A4A4A4949494848484762
:1011F00047474746464645454544444444434343A0
:10120000434242424241414146EA0646A3F57053F9
:101210004FEA164646EA42564FEAD22242EA415285
:1012200010B54FEAD121A3F1010300F02FF820F00F
:10123000004000F1020C00F0004701EB00501146A5
:10124000BCF5006F40EA070000D210BDBAF1000FF4
:101250000AD01CB503B44FF004004FF004014FF066
:1012600000000FBCBDE810404FF00001BBF1010FC2
:10127000B9BF04484FF0FF310348002140EA07009E
:1012800010BD00BFFFFFEF7F0000F07F002B9C46EA
:1012900030D477002BD01CB54FEA370703B44FF09A
:1012A00010004FF01001BAF1000F06D0BCF1000F92
:1012B000DCBF40F0080040F008014FF000000FBC18
:1012C000BDE810400BF1010BBBF1010F08BF5FEA55
:1012D000170722BF12F1010211F101014FF0004185
:1012E00043F1000300F0004043EA00007047F9D3E7
:1012F0005708D0E746EA064613F1400F4FEA164674
:101300001FDD13F1200FDFBF16430A4600212033F3
:101310005B42BED0C3F1200746EA064602FA07F751
:101320004FEA164646EA0706C3F1200722FA03F2FF
:1013300001FA07F721FA03F14FF0000342EA07022E
:10134000A7E746EA020646EA06464FEA164646EA96
:101350000106BCBF46EA0646360C4FF000034FF0CC
:1013600000024FF0000194E72DE9804C9A46934625
:1013700070B491E8380007C831EA400C48BF34EA3D
:10138000430C03D5FFF7A4FDFFF780FFF0BCBDE8D9
:10139000008C2DE9804C9A46934670B491E8380051
:1013A00007C831EA400C48BF34EA430C03D5FFF7C5
:1013B0008FFDFFF729FFF0BCBDE8008C2DE9804CC4
:1013C0009A46934670B491E8380007C810F0804FF1
:1013D00008BF13F0804F03D100F01AF8FFF756FF53
:1013E000F0BCBDE8008C2DE9804C9A46934670B461
:1013F00091E8380007C810F0804F08BF13F0804F05
:1014000003D100F005F8FFF7FFFEF0BCBDE8008C4B
:1014100020F07F4780EA030023F07F4C07EB0C03AA
:10142000A3F57C5300F00040A3F1FE0392F0000FFF
:1014300000F0B38095F0000F00F077802DE90149AE
:101440004FEA11404FEA144621EA004800FB06FC2F
:1014500024EA064708FB06F607FB08F800FB07F737
:1014600018EB06484CEB164C4FEA124B18EB0748AA
:101470004FEA15464CEB174022EA0B4E0BFB06FCDD
:1014800025EA06470EFB06F607FB0EFE0BFB07F7E9
:101490001EEB064E4CEB164C4FF000061EEB074EB3
:1014A0004CEB174B18EB0B0840F1000018EB0E0B40
:1014B00058EB000840F100008F1A4FF000013CBFCC
:1014C000C943661B14BFB5EB040C00213CBFC943E4
:1014D000F61B4FEA17444EEA8E0E27EA04454FEA00
:1014E0001C4704FB07622CEA074C05FB07F70CFBC3
:1014F00005F604FB0CFC16EB074642EB174216EB15
:101500000C4642EB1C421BEB060658EB0202414123
:1015100046EA9E0601D5BDE80189B619524141EB64
:101520000101A3F10103BDE801894FEA14454FEA27
:10153000114724EA054621EA074C05FB07F406FBA0
:1015400007F70CFB06F105FB0CFC11EB074144EB24
:1015500017444FEA124711EB0C4144EB1C4422EABA
:10156000074C05FB07F206FB07F70CFB06F605FB2D
:101570000CFC16EB074642EB174216EB0C4642EB0F
:101580001C456A1854F1000148BF7047B619524112
:1015900041EB0101A3F10103704795F0000F37D033
:1015A0004FEA11424FEA144721EA024624EA074C67
:1015B00002FB07F106FB07F70CFB06F402FB0CFC31
:1015C00014EB074441EB17414FEA154714EB0C4469
:1015D00041EB1C4125EA074C02FB07F506FB07F728
:1015E0000CFB06F602FB0CFC16EB074645EB174519
:1015F00016EB0C4645EB1C42121951F1000148BF95
:101600007047B619524141EB0101A3F10103704744
:101610004FEA14454FEA114724EA054621EA074CF0
:1016200005FB07F106FB07F70CFB06F24FF000067F
:1016300005FB0CFC12EB074241EB174112EB0C428D
:1016400051EB1C4148BF7047921841EB0101A3F1D7
:1016500001037047FEE70000014800F043BC0000B2
:10166000E0010020014800F03DBC00009C0100208A
:1016700030B590F840500124AC40C56B6C600468F4
:1016800063604368102B036803D099600068C260F0
:1016900030BD9A600068C16030BD704770B50A4DBA
:1016A00004462868C462EC60296800204862284625
:1016B00001F0E8F92868416AA142FCD1BDE8704018
:1016C000014801F033BA00007C00002072B6FEE74A
:1016D00090F82020012A07D0022A05D0416A41F45F
:1016E0008021416201207047006842690A434261DB
:1016F00000207047F0B590F820500468A468012DD0
:1017000005D0022D03D0416A41F4802157E014F046
:10171000406F01D1E5004FD5C4F301640125A54018
:101720001D608D684FF4C0739DB1CE6835434E681F
:1017300045EAC605066803EB0417F5514FF4C27578
:10174000076805EB04150E697E51097D012905D056
:1017500009E00E88CD6845EA4655EBE701684E5929
:1017600046F480764E511179D579567941EA056172
:1017700095792D0445EA062529434FF4C676056878
:1017800006EB0416A9511178D57841EA05619578E0
:1017900052782D0445EA022211434FF4C4750268C1
:1017A00005EB04155151006803EB0411425842F057
:1017B000010242500020F0BD416A41F40011416233
:1017C0000120F0BD10B590F820300268012B07D041
:1017D000022B05D0416A41F480214162012010BDF5
:1017E000D2F8000240F00100C2F80002087D00F0CB
:1017F0001F0301209840D2F81C328343C2F81C32E8
:10180000CB69B3B9D2F80C328343C2F80C328C895D
:101810004B6864F31F434C6902EBC404C4F84032C4
:101820000C890B6864F31F434C6902EBC404C4F8D1
:101830004432CB69012B16D1D2F80C320343C2F8E3
:101840000C320C884B6864F31F434C6902EBC404F0
:10185000C4F840320C89CB6864F31F434C6902EB37
:10186000C404C4F844328B69002BD2F804320FD080
:1018700053EA0003C2F804320B69002BD2F8143289
:1018800008D00343C2F81432096A012904D008E0E1
:101890008343EFE78343F5E7D2F81C120143C2F814
:1018A0001C12D2F8000220F00100C2F80002002051
:1018B00010BD704770B590F82040012C05D0022C67
:1018C00003D0416A41F4802128E0046809B3246907
:1018D000A40720D04FF4D874056804EB01142D59E7
:1018E00015F00405956005682D591AD0ED0855606E
:1018F00005682C5904F00204D4604FF4DA740568CA
:1019000004EB01142E5906F00F06082E0CD30825FF
:101910000DE0E468DCE7416A41F400114162012016
:1019200070BD6D0D1560E3E72D5905F00F051561CC
:1019300005682D59C5F30725956105682C59240CB8
:1019400054614FF4DC72046802EB0112A4581C705D
:101950000468A458240A5C700468A458240C9C7081
:101960000468A258120EDA704FF4DE72046802EBBB
:101970000112A4581C710468A458240A5C710468FC
:10198000A458240C9C710468A258120EDA710068E5
:1019900029B1016941F020010161002070BDC168D9
:1019A00041F02001C160F8E72DE9F05F05460068CD
:1019B00000244669D0F804908768D0F80CB0D0F8BD
:1019C00010A0D0F81880F10748D0F90714D00121F1
:1019D0008160B80703D5284600F00FFA0CE07807BD
:1019E00002D54FF4006407E0380702D54FF4805465
:1019F00002E0284600F000FAF80516D529684FF4F1
:101A000080708860B80503D5284600F0F8F90CE02E
:101A1000780502D544F4005407E0380502D544F4B3
:101A2000804402E0284600F0E9F9F80316D5296859
:101A30004FF480308860B80303D5284600F0E1F900
:101A40000CE0780302D544F4004407E0380302D5E3
:101A500044F4803402E0284600F0D2F9300707D57C
:101A60005FEACB6004D52968102044F40074C86094
:101A700070074FF0080707D55FEA0B7004D5286898
:101A8000C760284600F05AF9B00706D52868C06834
:101A9000800702D0284600F053F9700607D55FEAA8
:101AA000CA6004D52968102044F480640861B00637
:101AB00007D55FEA0A7004D528680761284600F058
:101AC0006BF9F00606D528680069800702D0284621
:101AD00000F063F9B00308D55FEAC96005D529684D
:101AE00010204860284600F059F9F00307D55FEA56
:101AF000097004D528684760284600F083F930044F
:101B000046D55FEA497040D5F00504D55FEAC87054
:101B100001D044F00104B00504D55FEA887001D516
:101B200044F00204700504D55FEA487001D544F022
:101B30000404300529D518F0700F26D008F0700085
:101B4000402815D006DC102809D020280AD03028DB
:101B500016D10AE050280ED0602811D10EE044F0D2
:101B600008040DE044F010040AE044F0200407E00B
:101B700044F0400404E044F0800401E044F4807444
:101B80002868816921F0700181612968042048601A
:101B9000002C05D0686A204368622846FFF789FE5A
:101BA000BDE8F09F70B5040003D094F8200010B198
:101BB00004E0012070BD204600F082F82068016832
:101BC00041F00101016000F0A5FB0546052604E097
:101BD00000F0A0FB401B0A2811D820684068C0070D
:101BE000F6D02068016821F00201016000F092FB4C
:101BF00005460BE000F08EFB401B0A2806D9606A00
:101C000040F40030606284F82060D2E720684068C9
:101C10008007EFD4207E0128206801683DD021F0A4
:101C200080010160607E01282068016838D021F0C1
:101C300040010160A07E01282068016833D021F0B6
:101C400020010160E07E0128206801682ED041F06B
:101C500010010160207F01282068016829D021F04F
:101C600008010160607F01282068016824D021F00C
:101C700004010160D4E902010843D4E904121143CC
:101C800008436168491E08432168C86100206062FA
:101C9000012084F82000002070BD41F08001C0E7E1
:101CA00041F04001C5E741F02001CAE721F01001F1
:101CB000CFE741F00801D4E741F00401D9E7000083
:101CC00010B586B000210091019102910391006846
:101CD000174988422AD11748C16941F00071C16192
:101CE000C16901F000710491816941F004018161D1
:101CF0008069114C00F0040004904FF400600090E3
:101D00006946204600F010FAA014009002200190CD
:101D1000032003906946204600F006FA002211468F
:101D2000142000F063FB142000F052FB06B010BD3D
:101D300000640040001002400008014070470000AD
:101D400070B5124B124A0021FFF7B4FD10480F4C3A
:101D50000F4D4268183CC2F30720343560607F287D
:101D600009D1100E04D00949284601F0B5FD02E062
:101D7000064800786870686803F0CEFA054BD3E92E
:101D8000002303F0D3F9C4E9040170BD4000002032
:101D900024020020100000207047704770470000A8
:101DA00070B5044690F82000012804D0606A40F421
:101DB0000020606218E0022084F82000206801689A
:101DC00021F00101016000F0A5FA05460EE000BF18
:101DD00000F0A0FA401B0A2808D9606A40F40030DD
:101DE0006062052084F82000012070BD20684068F2
:101DF000C007EDD1606270BD704770477047704793
:101E000070477047704710B590F8211000220229E2
:101E100005D00421816380F82020012010BD0168D5
:101E20000B6823F00E030B6001680B6823F00103BD
:101E30000B6090F84030C46B012101FA03F363603A
:101E400080F8211080F82020104610BD10B590F8C1
:101E500021100024022903D00421816301243DE0E4
:101E600001680A6822F00E020A6001680A6822F01E
:101E700001020A601A4A0168914201D1012121E060
:101E8000174A1432914201D110211BE0144A283222
:101E9000914201D1891515E0114A3C32914201D19C
:101EA00089140FE00E4A5032914202D14FF4803132
:101EB00008E00B4A6432914202D14FF4801101E0F4
:101EC0004FF08071064A083A5160012180F82110D4
:101ED000002180F82010416B01B18847204610BDD9
:101EE000080002402DE9F05FC16B0C6801680B68C7
:101EF000D0F840C0042202FA0CF2494DDFF824A1C8
:101F0000494E4A4FDFF828B1DFF828E122422CD0B1
:101F10005A072AD50A68920603D40A6822F00402F6
:101F20000A600168A94201D1042219E0514501D19A
:101F3000402215E0B14202D14FF4806210E0B94274
:101F400002D14FF480420BE0594502D14FF4802278
:101F500006E0714502D14FF4800201E04FF080624B
:101F60002F4908394A60C16A3BE04FF0020808FA7D
:101F70000CF818EA040F4FF000094FF0010235D0B9
:101F80005FEA837832D50B689B0605D40B6823F093
:101F90000A030B6080F821200168A94201D10222C6
:101FA00019E0514501D1202215E0B14202D14FF490
:101FB000007210E0B94202D14FF400520BE05945D3
:101FC00002D14FF4003206E0714502D14FF4001205
:101FD00001E04FF00072124908394A6080F8209001
:101FE000816A00291AD0BDE8F05F0847082505FA84
:101FF0000CF5254212D01B0710D50B6823F00E03F9
:102000000B6090F84010C36B02FA01F159608263D3
:1020100080F8212080F82090016BE2E7BDE8F09F76
:10202000080002401C000240300002404400024010
:10203000580002406C00024030B528B308C813496C
:1020400014221944B1FBF2F18900C1631049816384
:10205000022141771A6843F6F0718A43D0E90014EF
:102060002143D0E902452C432143046921434469BB
:1020700021438469214311431960002141630122F6
:1020800042770177084630BD012030BDF8FFFDBF23
:102090000000024070B5044690F820000025012899
:1020A0000CD0012084F8200094F821600020012E3B
:1020B00006D084F820000225284670BD022070BD9D
:1020C000022684F82160A0632068066826F00106D5
:1020D00006602046FFF7CCFAE06A00282068016815
:1020E00002D041F00E0106E021F0040101602068F9
:1020F000016841F00A0101602068016841F00101B6
:102100000160D9E770B5044600F004F90546601C8B
:1021100002D004480078044400F0FCF8401BA042C0
:10212000FAD370BD180000202DE9F84FDFF8B89100
:102130000024A9F1040B23460F2709F1040AABF18F
:10214000040EC9E00125A5402A40AA427DD1674E70
:10215000D1F804C0ACEB0608B44532D014DCBCF1B5
:10216000030F3AD009DCBCF1000F2AD0BCF1010FFB
:102170001CD0BCF1020F31D11DE0BCF1110F17D002
:10218000BCF1120F2AD119E0B8F5881F19D006DC6E
:10219000B8F5803F15D0B8F5801F1FD111E0B8F514
:1021A000001F0ED0B8F5041F18D10AE0CB6815E067
:1021B000CB681B1D12E0CB6808330FE0CB680C33F3
:1021C0000CE08B682BB1012B4FF0080303D0456165
:1021D00004E0042302E0056100E00023FF2A01D8A7
:1021E000064601E000F104064FEA840501D9A5F195
:1021F0002005D6F8008007FA05FC28EA0C0803FA47
:1022000005F548EA0508C6F800804D68ED0062D57E
:10221000374DAE6946F00106AE61AD6924F00306A4
:1022200005F001050095334D06EB050CDCF8085070
:10223000A607360F07FA06F825EA0805DFF8B88082
:10224000404503D14FF0000817E044E0DFF8AC80D0
:10225000404502D14FF001080FE0DFF8A48040456F
:1022600002D14FF0020808E0DFF89880404502D123
:102270004FF0030801E04FF0040808FA06F848EAB6
:102280000508CCF808804D68D9F80060ED024D468D
:1022900001D5164300E096432E604D68DAF80060E1
:1022A000AD02554601D5164300E096432E604D68B9
:1022B000DBF80060AD035D4601D5164300E09643B0
:1022C0002E604D68DEF80060ED03754601D51643BB
:1022D00000E096432E60641C0D682A46E5407FF4BA
:1022E00031AFBDE8F88F0000080401400000111074
:1022F000001002400000014000080140000C0140B5
:1023000000100140001401400AB101617047090446
:10231000FBE70000014880687047000018000020BB
:1023200002488168027811448160704718000020DB
:10233000074810B5016841F010010160032000F06A
:1023400075F80F2000F006F800F024F8002010BD0A
:102350000020024070B50D4D04464FF47A71287884
:10236000B1FBF0F00A490968B1FBF0F000F0DCFACB
:1023700048B9102C07D200222146501E00F036F832
:1023800000206C6070BD012070BD000018000020AE
:10239000240000200C4808B5816941F001018161E9
:1023A000816901F001010091C16941F08051C16171
:1023B000C06900F0805000900448416821F0E0615D
:1023C00041F00071416008BD001002400000014072
:1023D000002809DB00F01F02012191404009800024
:1023E00000F1E020C0F8001170470000F0B40E4B7F
:1023F0001B680C46C3F30223C3F10705042D00D963
:102400000425191D072901D2002300E0DB1E012647
:1024100006FA05F1491E214099409E40761E16405D
:102420003143F0BC01F031BE0CED00E0064900F094
:10243000070208684FF6FF03184040EA0220034AEB
:1024400010430860704700000CED00E00000FA0542
:102450002DE9F0470F46050061D0434E306800F08B
:102460000700B84209D2306820F0070038433060D6
:10247000306800F00700B84251D128683B4C810712
:1024800012D5400703D5606840F4E06060602878AA
:10249000000703D5606840F4605060606068A96818
:1024A00020F0F000084360602878C00728D06868F2
:1024B000012810D02168022810D0890700292EDABF
:1024C000616821F0030101436160FFF723FF80464B
:1024D00041F288390DE021688903EFE78901EDE7D2
:1024E000FFF718FFA0EB0801494502D90320BDE81A
:1024F000F0876068696800F00C00B0EB810FEFD1E5
:10250000306800F00700B8420BD9306820F00700AF
:1025100038433060306800F00700B84201D0012035
:10252000E5E72878400705D56068E96820F4E060B1
:10253000084360602878000706D56068296920F4A0
:10254000605040EAC100606000F038F86168084AF5
:10255000C1F30311515CC840064908600648006891
:10256000FFF7F8FE0020C2E7002002400010024002
:10257000025B0008240000201C00002004480549DC
:1025800000684968044AC1F30221515CC8407047A1
:102590002400002000100240125B00080448054996
:1025A00000684968044AC1F3C221515CC8407047C1
:1025B0002400002000100240125B00080E4A5168FF
:1025C0000E4801F00C03042B11D0082B0FD10C483E
:1025D000C1F38343C903C05C0AD55168084AC1F3FB
:1025E0004041921E515C054A5043B0FBF1F07047E8
:1025F00004494843704700000010024000127A006E
:10260000F25A000800093D002DE9F84F040070D08F
:102610002078C04DC00749D06868C0F38100012808
:1026200007D06868C0F38100022809D16868C00338
:1026300006D52868800339D560680028E7D035E0E2
:102640006068B0F5803F0BD010B1B0F5A02F11D06D
:10265000286820F480302860286820F4802002E078
:10266000286840F480302860606890B1FFF752FE1F
:1026700006460AE0286840F480202860F0E700BFA2
:10268000FFF748FE801B642873D828688003F7D5BD
:102690000CE0FFF73FFE064605E000BFFFF73AFEFD
:1026A000801B6428F0D828688003F7D420789A4EDD
:1026B00080074FF001094FF0000839D5686810F025
:1026C0000C0F07D06868C0F38100022809D1686840
:1026D000C00306D42868800714D52069012808D1D2
:1026E00010E02069B0B1C6F80090FFF713FE07466E
:1026F00005E00AE1FFF70EFEC01B0228C4D82868D7
:102700008007F7D52868616920F0F80040EAC10029
:1027100028600DE0C6F80080FFF7FCFD074604E0E6
:10272000FFF7F8FDC01B022823D828688007F7D4DC
:10273000207800072CD57948A169D9B1C0F800905C
:10274000FFF7E8FD074604E0FFF7E4FDC01B0228A1
:102750000FD8686A8007F7D571484FF4FA510068BE
:10276000B0FBF1F0009000BF0098411E0091FAD23A
:102770000EE080E0C0F80080FFF7CCFD074604E0E3
:10278000FFF7C8FDC01B022875D8686A8007F7D418
:102790002078400760D5E8690027C00008D4E869C0
:1027A00040F08050E861E869012700F08050009017
:1027B0005C480168C90513D40168834641F48071FF
:1027C0000160FFF7A7FD824606E000BFFFF7A2FD0C
:1027D000A0EB0A0064284ED8DBF80000C005F5D550
:1027E000E06801280AD008B1052813D0286A20F033
:1027F00001002862286A20F0040002E0286A40F004
:1028000001002862E06841F2883B98B1FFF782FD41
:1028100082460BE0286A40F004002862EEE700BF21
:10282000FFF778FDA0EB0A0159455AD8286A8007BE
:10283000F6D50CE0FFF76EFD824605E0FFF76AFD76
:10284000A0EB0A0159454CD8286A8007F6D41FB17D
:10285000E86920F08050E861E06988B36968C1F3F5
:102860008101022944D00228C6F8608004D0FFF715
:1028700051FD044638E034E0FFF74CFD074604E024
:10288000FFF748FDC01B02282BD828688001F7D429
:10289000206AB0F5803F05D16868A16820F4003057
:1028A00008436860D4E908010843696821F4741199
:1028B00008436860C6F86090FFF72CFD044606E008
:1028C00025E000BFFFF726FD001B022809D8286875
:1028D0008001F7D51BE000BFFFF71CFD001B02289D
:1028E00002D90320BDE8F88F28688001F4D40EE0F7
:1028F0000128F7D06868226A00F48031914204D13F
:10290000616A00F47010884201D00120EAE70020DB
:10291000E8E700000010024000004242800442420A
:10292000240000200070004010B5401EB0F1807FF0
:1029300001D3012010BD4FF0E02460610F2160172A
:1029400001F0A3FB0020A06107202061002010BD42
:102950007047704770B590F83C20012A26D00124BA
:1029600080F83C40022280F83D2003685A689D6848
:1029700022F070060A6832435A600D4B02689A4290
:1029800008D0B2F1804F05D00A4B9A4202D00A4BD0
:102990009A4204D1496825F080031943916080F878
:1029A0003D40002180F83C10084670BD022070BDFB
:1029B000002C0140000400400008004010B5040055
:1029C00003D094F83D0010B107E0012010BD0020B5
:1029D00084F83C00204600F01FF8022084F83D00F7
:1029E000211D206801F030F8012084F8460084F8A9
:1029F0003E0084F83F0084F8400084F8410084F8E9
:102A0000420084F8430084F8440084F8450084F8C8
:102A10003D00002010BD000008B5174A01681748A6
:102A2000914207D1816941F400618161806900F4BC
:102A300000600CE0B1F1804F0BD0114A914207D1F8
:102A4000C16941F00201C161C06900F0020000905B
:102A500008BDC16941F00101C161C069002200F0F7
:102A60000100009011461C20FFF7C0FCBDE80840A3
:102A70001C20FFF7ADBC0000002C014000100240FC
:102A80000004004090F83D10012901D0012070475A
:102A9000022180F83D1000680B49884208D0B0F14F
:102AA000804F05D00949884202D00949884204D1A3
:102AB000816801F00701062903D0016841F0010196
:102AC0000160002070470000002C0140000400401D
:102AD0000008004090F83D10012901D00120704706
:102AE000022180F83D100168CA6842F00102CA6004
:102AF00000680B49884208D0B0F1804F05D00949E1
:102B0000884202D00849884204D1816801F0070157
:102B1000062903D0016841F00101016000207047DF
:102B2000002C0140000400400008004001680A6ACF
:102B300041F211131A4207D10A6A9B101A4203D1BB
:102B40000A6822F001020A60012180F83D1000208D
:102B5000704770B5044690F83C000025012817D056
:102B6000012684F83C60022084F83D0020688268D9
:102B700022F0770222F47F4282600868502838D021
:102B80000DDC20284FD005DC90B3102811D14AE08D
:102B9000022070BD302846D040280AD13BE0602892
:102BA0002FD070280DD0B0F5805F03D0B0F5005F56
:102BB00012D0012584F83D60002084F83C002846AE
:102BC00070BDCB68D1E90121206800F086FF206844
:102BD000816841F0770109E0CB68D1E901212068E3
:102BE00000F07BFF2068816841F480418160E1E76B
:102BF00019E0CA684968206801F024F8502120686B
:102C000006E0CA684968206801F02DF86021206854
:102C100000F06DFFCEE7CA684968206801F012F83D
:102C200040212068F4E7226801461046F0E770472B
:102C30002DE9F04104460068C66805694FF00007B9
:102C4000A90713D5B10711D5F91E0161012020771D
:102C5000206880698007204602D0FFF7E8FF04E083
:102C600000F0A4F8204600F036F92777680716D55B
:102C7000700714D521686FF00400086102202077E6
:102C80002068806910F4407F204602D0FFF7CFFF14
:102C900004E000F08BF8204600F01DF927772807A4
:102CA00015D5300713D521686FF00800086104209E
:102CB00020772068C0698007204602D0FFF7B7FF61
:102CC00004E000F073F8204600F005F92777E806E5
:102CD00016D5F00614D521686FF0100008610820A1
:102CE00020772068C06910F4407F204602D0FFF7AB
:102CF0009EFF04E000F05AF8204600F0ECF8277739
:102D0000E80708D0F00706D021686FF001000861DD
:102D1000204600F02FF9280608D5300606D5216890
:102D20006FF0800008612046FFF712FE680608D5A4
:102D3000700606D521686FF040000861204600F05B
:102D40001AF9A8060AD5B00608D521686FF0200048
:102D500008612046BDE8F041FFF7FBBDBDE8F0810A
:102D600000B585B0002100910191029103910068A6
:102D70000B49884211D10B48816941F004018161FE
:102D80008069694600F00400049040200090022011
:102D9000019003900448FFF7C7F905B000BD00009B
:102DA000000400400010024000080140704770B568
:102DB000044690F83C0000260D4601280FD0012063
:102DC00084F83C006AB1042A1DD0082A2FD00C2AAE
:102DD0003FD00126002084F83C00304670BD022020
:102DE00070BD206800F08CFE2068816941F0080108
:102DF00081612068816921F0040181612068816915
:102E00002A69114311E0206800F0A2FE2068816960
:102E100041F4006181612068816921F480618161F0
:102E2000206881692A6941EA02218161D2E720682C
:102E300000F0BAFE2068C16941F00801C161206854
:102E4000C16921F00401C1612068C1692A69114387
:102E500011E0206800F0D4FE2068C16941F40061EF
:102E6000C1612068C16921F48061C1612068C169C4
:102E70002A6941EA0221C161ACE710B5040003D020
:102E800094F83D0010B107E0012010BD002084F847
:102E90003C00204600F01EF8022084F83D00211D71
:102EA000206800F0D1FD012084F8460084F83E003F
:102EB00084F83F0084F8400084F8410084F8420020
:102EC00084F8430084F8440084F8450084F83D0009
:102ED000002010BD7047704710B50446022249B16A
:102EE00004290ED0082913D094F84100012816D0E7
:102EF000012010BD94F83E000128F9D184F83E204D
:102F00000FE094F83F000128F2D184F83F2008E058
:102F100094F840000128EBD184F8402001E084F8C7
:102F200041200122206800F0CBFD0F492068884233
:102F300003D1426C42F4004242642068884208D0C7
:102F4000B0F1804F05D00949884202D00849884233
:102F500004D1816801F00701062903D0016841F01E
:102F600001010160002010BD002C01400004004060
:102F7000000800407047704738B5044690F842009A
:102F8000202801D0022038BD51B14AB10120206370
:102F900000206063204600F0E9FF216B012901D089
:102FA000012038BD21680A684968009121680C3108
:102FB00051E8002F42F0100241E80023002BF5D128
:102FC00038BD00000C4910B5884213D10B480C4C99
:102FD00010F8011B217001F0EFF8C4E904010A2286
:102FE00006490548FFF7C8FF06480068016821F058
:102FF0000401016010BD00005401002048000020C1
:10300000000000209C01002070470000F8B5016816
:1030100004460868CA684B6910F00F0F4FF00005AE
:1030200059D003F0010602F49077374365D0C10709
:1030300005D0D10503D5616C41F001016164410700
:1030400005D5D90703D0616C41F0020161648107A5
:1030500005D5D90703D0616C41F004016164010713
:1030600007D502F02001314303D0616C41F0080123
:103070006164616C00293AD0800604D5900602D5BF
:10308000204600F0B6FE20684069616CC0F38010F5
:10309000090700D460B3204600F076FE206840693E
:1030A000400621D52068143050E8001F21F040016F
:1030B00040E80012002AF5D1E06BA8B16D494163E8
:1030C000E06BFEF7C3FE002811D0E06B416B01B04E
:1030D000BDE8F040084783060FD593060DD520467E
:1030E000BDE8F84000F085BE2046FFF78DFFF8BD33
:1030F0002046FFF789FF6564F8BD266B2023012E6B
:103100007CD1C6067AD5D60678D50868486800907E
:1031100048694FF00206400640D5E16B08684068F8
:103120000004000CE8D0A28D8242E5D9E0858869D0
:1031300020282DD020680C3050E8001F21F4807129
:1031400040E80012002AF5D12068143050E8001F32
:1031500021F0010140E80012002AF5D12068143066
:1031600050E8001F21F0400140E80012002AF5D18C
:1031700084F84230256320680C3050E8001F21F0AD
:10318000100140E80012002AF5D1E06BFEF73BFE8B
:103190006663A08DE18D401A81B22AE0A08DE18D99
:1031A000401A81B2E08D0028A6D00029A4D0226860
:1031B0000C3252E8000F20F4907042E80007002F14
:1031C000F5D12068143050E8002F22F0010240E8C9
:1031D0000027002FF5D184F84230256320680C3099
:1031E00050E8002F22F0100240E80023002BF5D118
:1031F00066632046FFF7E6FEF8BDFFE705062BD520
:10320000150629D594F841002128F5D1A068B0F51C
:10321000805F01D12069B0B1206A411C2162216820
:1032200000784860E08C401E0004000CE084E3D18C
:103230002068C16821F08001C1602068C16841F048
:103240004001C160D8E7206A0088C0F308004860E8
:10325000206A801C2062E5E74006CDD55006CBD51C
:10326000CA68204622F04002CA6084F8413000F06B
:10327000F5F8C1E78B3C000870B5040004D094F861
:103280004100002510B106E0012070BD84F84050D7
:10329000204600F023F8242084F841002068C1680B
:1032A00021F40051C160204600F004FE206801694D
:1032B00021F4904101612068416921F02A014161B6
:1032C0002068C16841F40051C1606564202084F821
:1032D000410084F842006563002070BDF0B585B000
:1032E00000240646009401940294039400682D493A
:1032F000884254D12C48816941F4804181618169BF
:1033000001F480410491816941F004018161806987
:10331000264D00F0040004904FF40070009002204D
:1033200001900320039069462846FEF7FDFE28150C
:10333000CDE90004694628460294FEF7F5FE1D4DCE
:103340001B488027C5E90004C5E902472C616C6170
:10335000AC612846EC61FEF76FFE08B1FEF7B6F9E6
:10336000F5636E62134D12484435143801C51020C0
:1033700091C5104845F8104944306C61AC61EC616E
:10338000FEF75AFE08B1FEF7A1F9B5630022114617
:1033900025206E62FFF72AF82520FFF719F805B0FF
:1033A000F0BD00000038014000100240000801405C
:1033B000580002409C010020704770472DE9F843F7
:1033C000044690F84100984616460D46202802D043
:1033D0000220BDE8F88385B17EB100206064212021
:1033E00084F84100FEF796FFA6848146E684A06833
:1033F0002027B0F5805F02D003E00120E9E72069D3
:1034000010B12E4600250EE000260CE0802120465B
:1034100000F0F4FDA8B9C6B116F8010B21684860A8
:10342000E08C401EE084E08C4B464FF00002CDF86B
:1034300000800028EAD14FF04001204600F0DEFD78
:1034400040B184F841700320C3E735F8020BC0F3A4
:103450000800E3E784F841700020BAE77047FEE710
:103460000F4810B50D4901600321416000214FF460
:1034700010228160C0E90312416101760122427687
:103480008176C17601774177FEF78CFB002803D067
:10349000BDE81040FEF71AB910BD000000640040FE
:1034A000540000200D4808B5416941F00101416117
:1034B0004069002200F00100009011460E20FEF746
:1034C00095FF0E20FEF784FF002211460F20FEF725
:1034D0008DFFBDE808400F20FEF77ABF00100240C4
:1034E00070B586B0002418480094019402940394A7
:1034F000816941F020018161816901F0200104911D
:10350000816941F004018161816901F00401049144
:10351000816941F00801816180690C4E00F008006A
:103520004FF460550490002229463046FEF7ECFE29
:1035300001200095CDE90104022003906946304640
:10354000FEF7F2FD06B070BD00100240000C014015
:1035500010B586B000241748009401940294039497
:1035600004941349059401604721C0E901144FF602
:10357000FF71C0E9031444618461FFF71FFA08B1C9
:10358000FEF7A4F84FF48050009069460948FFF711
:10359000E0FA08B1FEF79AF8049404A905480594E6
:1035A000FFF7D8F9002801D0FEF790F806B010BD5B
:1035B000002C01407C00002010B586B00024164885
:1035C000009401940294039404944FF08041059474
:1035D000016041F61F41C0E901141321C0E9031441
:1035E0008461FFF7EBF908B1FEF770F84FF48050F3
:1035F000009069460848FFF7ACFA08B1FEF766F894
:10360000049404A904480594FFF7A4F9002801D004
:10361000FEF75CF806B010BDC400002010B58EB0F7
:1036200000240794089409940A940B941C2168467A
:103630000C94FCF7D7FD1E481C4901604721C0E9E6
:10364000011442F20F71C0E903148461FFF7B6F967
:1036500008B1FEF73BF84FF48050079007A91448D3
:10366000FFF777FA08B1FEF731F81148FFF705FCCC
:1036700008B1FEF72BF80B940BA90D480C94FFF73B
:1036800069F908B1FEF722F86020CDE90004029440
:103690000022694606480494FFF789FB08B1FEF74B
:1036A00015F80348FFF75CFB0EB010BD00040040A6
:1036B0000C0100200C4810B50A4901604FF4E131BB
:1036C0004160002181600C22C160C0E90412816167
:1036D000C161FFF7D1FD002803D0BDE81040FDF720
:1036E000F5BF10BD0038014054010020FEE7000086
:1036F0002DE9FC5F01F07FFB314C0022234601F0F5
:10370000B7F9DFF8C0A0DFF8C0B0564652465F46B2
:103710005B4601F0D7FB01F0BDF8DFF8B09005463D
:10372000D9F8040001F0F8FD0022234601F0A0F9C9
:1037300032463B4601F0C6FB01F0ACF8244E014690
:10374000B060284602F0DEF820F0004421488442B0
:103750002ADD8046444527DD1F492048CDE9000188
:1037600000232A461946194800F056FFD9F80400EC
:1037700001F0D2FD0022124B01F07AF952465B466D
:1037800001F0A0FB07460C46284601F0C5FD3A466D
:10379000234601F0D7FC21F0004101F07BF80446FC
:1037A0000120FEF7AFFCD5E70D4800900023019003
:1037B0002A461946054800F02FFF7560BDE8FC9FBA
:1037C00000806640182D4454FB2109405802002017
:1037D00000000020C2B8323E6666E63F000040406E
:1037E0000000C8412DE9FC5F01F005FB314C0022CF
:1037F000234601F03DF9DFF8C0A0DFF8C0B056461F
:1038000052465F465B4601F05DFB01F043F8DFF88E
:10381000B0900546D9F8040001F07EFD0022234651
:1038200001F026F932463B4601F04CFB01F032F83C
:10383000244E0146B060284602F064F820F00044AF
:10384000214884422ADD8046444527DD1F4920481F
:10385000CDE9000100232A461946194800F0DCFE94
:10386000D9F8040001F058FD0022124B01F000F9D4
:1038700052465B4601F026FB07460C46284601F0FF
:103880004BFD3A46234601F05DFC21F0004101F07A
:1038900001F804460120FEF735FCD5E70D480090FD
:1038A000002301902A461946054800F0B5FE7560D0
:1038B000BDE8FC9F00806640182D4454FB21094060
:1038C0005802002000000020C2B8323E6666E63F83
:1038D000000040400000C84170B504460888164604
:1038E0000D4640BA1023124A124900F089FF606069
:1038F0006888102340BA104A104900F081FFA06088
:10390000A888102340BA0E4A0E4900F079FFE06003
:10391000E88840BA01F086FA0B4A0C4B01F0D2FA63
:1039200000F0B8FF2061C6F30440A07670BD00002F
:1039300000003444000034C40000F0410000F0C135
:1039400000004041000040C19A9999999999B93F66
:10395000FEE77047704700001CB500781B4C40F034
:1039600090506060080A8DF8001000248DF8010066
:103970008DF802408DF80340662B02D0732B11D0D6
:103980001BE01348110E130C01704370140A84706D
:10399000C2708DF804208DF805408DF806308DF842
:1039A00007100AE0104601F02FFE8DF804008DF894
:1039B00005408DF806408DF80740054B6A46083BE8
:1039C00002490448FDF796FE1CBD0000400200209D
:1039D0003000002054000020FEF7A2BC30B58FB0AC
:1039E00028216846FCF7FEFB14210AA8FCF7FAFB25
:1039F00001210804CDE9001000240294022504915D
:103A0000CDE907504FF4E01009906846FEF7FCFD41
:103A100008B172B6FEE70F20CDE90A054FF48060C9
:103A2000CDE90C4002210AA80E94FEF711FD0028F2
:103A300001D072B6FEE70FB030BD70470148FFF706
:103A4000F7B80000C4000020F0B50268194B1A4C0A
:103A50001A4D4FF08047984205D0B84203D0A0429B
:103A600001D0A84203D122F070064A68324398423E
:103A700005D0B84203D0A04201D0A84203D122F41D
:103A80004074CA6822434C6922F0800222430260DB
:103A90008A68C2620A688262984201D10969016338
:103AA000012141610169C90703D0016921F00101C8
:103AB0000161F0BD002C01400004004000080040FE
:103AC00010B501F01F030121046A99408C43046280
:103AD000016A9A401143016210BD10B5846842EA40
:103AE000032224F47F440A432243826010BD82688B
:103AF00022F070020A4342F0070181607047000023
:103B000030B5036A026A22F00102026242688469E7
:103B100024F073050C682C4323F002058B682B43BB
:103B20000A4DA8420BD123F00805CB6822F440725D
:103B30002B434D6923F0040315438A692A434260ED
:103B4000846149684163036230BD0000002C01407C
:103B500030B5026A036A23F0100303624368846984
:103B60000D6824F4E64444EA05248D6822F020021E
:103B700042EA05120B4DA8420ED1CD6822F0800218
:103B800042EA05124D6923F4406343EA85038D69D7
:103B900022F0400243EA85034360846149688163FF
:103BA000026230BD002C014030B5036A026A22F483
:103BB000807202624268C46923F4007324F07305C2
:103BC0000C682C438D6843EA05230C4DA8420ED1A6
:103BD000CD6823F4006343EA05234D6922F4405283
:103BE00042EA05128D6923F4806342EA05124260BD
:103BF000C4614968C163036230BD0000002C01400C
:103C000030B5046A026A22F4805202624268C369D3
:103C10000D6823F4E64343EA05238D6824F4005439
:103C200044EA0534064DA84204D14D6922F480428D
:103C300042EA85124260C36149680164046230BD92
:103C4000002C014010B5036A046A24F001040462E8
:103C5000846924F0F00444EA021423F00A020A43BF
:103C60008461026210BD10B5036A046A24F0100476
:103C70000462846923F0A00324F4704444EA02320D
:103C800043EA01118261016210BD10B5406A002152
:103C9000C185C184FFF7B8F910BD70B5446A2068CA
:103CA000406994F84110C0F3C0100025212904D1C7
:103CB00018B1E584204600F08EF82068406994F839
:103CC0004210C0F38010222904D118B1E5852046A6
:103CD00000F05AF8606C40F0100060642046FFF776
:103CE00093F970BD10B50146406A096809684FF044
:103CF000000289062ED4C28501680C3151E8003FCC
:103D000023F4807341E80034002CF5D101681431AC
:103D100051E8003F23F0010341E80034002CF5D1C5
:103D20000168143151E8003F23F0400341E80034BA
:103D3000002CF5D1202180F84210016B012909D116
:103D400001680C3151E8003F23F0100341E80034D2
:103D5000002CF5D14263016B012902D0FFF72CFB47
:103D600010BD818DFFF72EF910BD10B5406A0121FD
:103D70004163016B012902D0FFF71FFB10BD818D4C
:103D80004908FFF71FF910BD01680C3151E8002FF9
:103D900022F4907241E80023002BF5D10168143120
:103DA00051E8002F22F0010241E80023002BF5D159
:103DB000016B012909D101680C3151E8002F22F073
:103DC000100241E80023002BF5D1202180F8421099
:103DD00000210163704701680C3151E8002F22F087
:103DE000C00241E80023002BF5D1202180F84110CA
:103DF000704708B590F84210222901D0022008BD72
:103E000082684FF480539A4201D1016921B1816ADD
:103E10009A421BD04AB10AE00268816A5268C2F332
:103E200008020A80816A891C08E0026972B102688E
:103E3000526802F07F020A70816A491C8162C18D5A
:103E4000491E0904090CC18503D01BE002685268B1
:103E5000F1E70168CA6822F02002CA600168CA68F6
:103E600022F48072CA6001684A6922F001024A6144
:103E7000202180F8421000214163026B012A03D007
:103E8000FFF79AFA002008BD016301680C3151E880
:103E9000002F22F0100241E80023002BF5D1016829
:103EA0000A68D20602D50A6849680091818DFFF739
:103EB00089F8E7E770B5044600680169E26821F413
:103EC0004051114301612169A068084361690843B9
:103ED0002168CA6841F20C639A430243CA602068B1
:103EE0004169A26921F44071114341611E49206872
:103EF000884202D1FEF752FB01E0FEF73FFB00EBE8
:103F0000C00101EB0012606864218000B2FBF0F395
:103F1000B3FBF1F36FF018067343B2FBF0F5B2FB9D
:103F2000F0F605EB8305322303EB0515B5FBF1F540
:103F3000B6FBF1F605F0F00505EB0615B2FBF0F661
:103F4000B2FBF0F0B0FBF1F06FF01802504306EB5B
:103F5000800003EB0010B0FBF1F0216800F00F00CF
:103F60002844886070BD00000038014038B5816287
:103F700004468285002013466064222284F8422091
:103F8000E56B1B4AAA62E56B1A4AEA62E56B1A4ABC
:103F90002A63E26B50630A462168E06B091DFEF755
:103FA00079F82068016840680090206948B120686D
:103FB0000C3050E8001F41F4807140E80012002AE4
:103FC000F5D12068143050E8001F41F0010140E8AD
:103FD0000012002AF5D12068143050E8001F41F08B
:103FE000400140E80012002AF5D1002038BD000051
:103FF000E53C00086B3D00089B3C00082DE9F843B8
:10400000984617460D460446089E24E0701C22D0B0
:10401000FEF780F9A0EB0800B0421AD8CEB12068B4
:10402000C168490717D5802D15D0402D13D00168E0
:10403000C94309070FD40168002540680090204655
:10404000FFF7A2FE0820606484F840500120BDE81C
:10405000F8830320FBE72068006835EA000004D0FD
:104060000020B842D2D00020F1E70120F9E700009B
:104070000148FEF7CBBF0000540100200148FDF7C6
:1040800093BC000054000020FEE70907090E002839
:1040900004DB00F1E02080F80014704700F00F000E
:1040A00000F1E02080F8141D704740F2013200203A
:1040B0004FF0E04101F0D0BC024A0020110701F0AE
:1040C000CBBC000001FDFFFF10B50446D1E90001A3
:1040D00000F002F8206010BDF8B504460D466A46AF
:1040E00000F038F900987E30009000281EDC002295
:1040F00013462046294600F013FE17D0002140F653
:1041000008004FF0000006462046294600F0C2FB9A
:10411000044640F6080006EA00014FF0000034F0C3
:10412000004004BF0220FCF78CF829E00098FF282B
:1041300028DB002108464FF0000000F44006002272
:1041400013462046294600F0BBFF8CBF0025012501
:104150000220FCF776F84FF0FF4446B1002D0CBF6B
:104160004FF400004FF48000B04218BF084C042107
:1041700008464FF00000002D04BF84F00040F8BD59
:104180002046F8BD20462946BDE8F84000F082BB35
:10419000FFFF7F7F10B504460A46D4E900031946A5
:1041A00000F046F9C4E9000110BD30380A2801D2F8
:1041B000012070470020704730B583B00446FCF7FB
:1041C0003BF805460020CDE900000246214668463E
:1041D000FCF75CF82846FCF734F8DDE9000103B091
:1041E00030BD00002DE9F0471546DDF820801E4661
:1041F00030B30024DFF8F49022464FF48051484653
:10420000FEF782F83A4A3B4B2846314600F030FC34
:104210000022394B00F056FE022201F01DFC05463B
:104220000E464FF40057B8F1010F0BD058EA0400C6
:1042300024D0B8F1000F56D1002C54D000244AE00D
:104240000124D7E7002410E0002239464846FEF753
:104250005BF81E20FDF722FA012239464846FEF798
:1042600053F81E20FDF71AFA641C204600F0C3FD27
:104270002A46334600F0EAFD35D2E5E7002410E097
:10428000002239464846FEF73FF81920FDF706FAA6
:10429000012239464846FEF737F81920FDF7FEF9A6
:1042A000641C204600F0A7FD2A46334600F0CEFDF0
:1042B00019D2E5E7002239464846FEF725F81920CD
:1042C000FDF7ECF9012239464846FEF71DF81920A2
:1042D000FDF7E4F9641C204600F08DFD2A463346C4
:1042E00000F0B4FDE6D3BDE8F0870000000C01400B
:1042F000D7A3703D0AD7324000E0A5402DE9F04138
:1043000005461F4616460C46104601F0FBFA80464D
:104310003146284601F0C4FA01D2354605E021466F
:10432000284601F0BDF900D225460120B840401EC4
:1043300001F08AF906462146284601F0E3FA3146A3
:1043400001F0E2F9414601F081F8BDE8F04101F0E9
:104350003FB9000010B5144600222260114A21F036
:1043600000439342A8BF10BD53EA000208BF10BD2E
:10437000B3F5801FA8BF226807DA362201F06CFB74
:104380006FF0350221F000432260DFF81CC06FF3AC
:104390001E510CEB23531A4441F0FF5141F00051E0
:1043A000226010BD0000F07F02FCFFFFF8B5134E45
:1043B0000D460446316840F2217048634FF4FA77A5
:1043C0003846FDF79FFE002022462B460090FFF75F
:1043D00009FF6420FDF796FE316840F2C94048634A
:1043E0003846FDF78FFE012022462B460090FFF74E
:1043F000F9FEBDE8F8400A20FDF784BE0C0100205C
:1044000070B50D4609490446002304200B60C1E93C
:1044100001300820C1E9033025701146204600F024
:10442000B3F92046BDE8704000F0D4B94002002046
:104430002DE9F04106460C4640F2FF75174635EA75
:1044400014502BD000221346304600F069FC25D0D2
:104450003A463046214601F0FFFA06460C4635EA58
:10446000145010D000221346304600F059FC15D1EC
:104470000220FBF7E6FEFFF71FFE0A46214662F325
:104480001E01BDE8F0810220FBF7DBFEFFF70DFE09
:104490000A46214662F31E01BDE8F08130462146FE
:1044A000BDE8F0818CB0FDF743FFFFF797FAFFF707
:1044B00017F8FEF7F7FFFFF74BF8FFF77DF8FFF768
:1044C000F9F8FEF7CDFFFFF7A9F8012000260990C3
:1044D000CDE907600E20059601960A900296039694
:1044E0000496069601A94048FDF76CF93E48FDF791
:1044F00057FC02213C48FDF7EBF83C48FEF7EAFA8E
:104500004FF4FA70FDF7FEFD00227F213848FFF7D7
:1045100077FF374800F046F900224FF40061354834
:10452000FDF7F2FE3448FEF749FA3448FEF746FA42
:104530003248FEF7A7FA3148FEF79FFC00212F48CA
:10454000FEF7CAFC0A222E492E48FEF715FD2E481A
:104550000068016821F0040101600020FFF7C8F83D
:104560000520FDF7CFFD0020FFF7C2F8244F274CB0
:1045700030252078732816D067281BD070281ED0CD
:104580006E2829D06628F4D1D4E9040100F004FC97
:10459000FFF7AEF83D702570FF2303221CA11948D8
:1045A000FEF70CFFE5E700221A4B01200096FFF70B
:1045B00019FE08E0D4E90401FFF7F8FE03E0D4E9AE
:1045C000040100F0A7F8FF23032211A10D48FEF714
:1045D000F5FE3D702570CCE7D4E9040100F0DCFB6A
:1045E000FFF700F9D6E7000054000020C4000020C7
:1045F00058020020000C01407C0000200C0100202B
:1046000048000020540100209C01002000000020F0
:10461000310D0A00008046402DE9FC5F9146DDE93E
:104620000C85314E314F9A468B4604461023324654
:1046300039464846FFF762FE000A8DF80000102355
:10464000324639464846FFF759FE294E294F8DF824
:1046500001001023324639465046FFF74FFE000A4C
:104660008DF802001023324639465046FFF746FEC9
:10467000214E8DF803001023324600214046FFF7FB
:104680003DFE000A8DF8040010233246002140460A
:10469000FFF734FE194E8DF8050010233246002135
:1046A0002846FFF72BFE000A8DF80600102332463D
:1046B00000212846FFF722FE8DF807001023104A3C
:1046C00010495846FFF71AFE4FF0807141EA00206A
:1046D00021780E4B08430C496A4648600C48FDF7A8
:1046E00009F8BDE8FC9F000000004841000048C1F7
:1046F0000000F0410000F0C10000FA430000A040BB
:1047000000004041000040C140020020280000207D
:10471000540000202DE9F8430446012000900D4686
:1047200022460B460020FFF75DFD4FF4FA70FDF7BF
:10473000E9FC134F40F22170396848634FF4487028
:10474000FDF7E0FC0026DFF83C80324643460120BE
:104750000096FFF747FD396840F2C94048630022E0
:1047600043462046294600F0EDFC02460B46012058
:104770000096FFF737FDBDE8F8430A20FDF7C2BCFD
:104780000C0100200000144010B50446084600F05B
:1047900073FF02462046BDE81040732347F205012F
:1047A000FFF7DAB81CB500210091019101218DF8C5
:1047B00000100078044940F0C060044B48606A462D
:1047C0000348FCF797FF1CBD400200202800002092
:1047D000540000201CB5002100910191007805498A
:1047E00040F04070044B48606A460448FCF782FF82
:1047F0001CBD0000400200202800002054000020C2
:104800002DE9F041012407469C400E461046641EE7
:1048100001F078F80546204600F02EFF04463846A1
:1048200000F02AFF294600F06FFF214600F00EFE3F
:104830003146BDE8F04100F09BBD000010B50029F5
:104840000AD00878002807D005487844FCF738F8E3
:10485000002801D0002010BD0248784410BD00009F
:10486000961300008E13000010B500290AD00878B6
:10487000002807D005487844FCF722F8002801D02A
:10488000002010BD0248784410BD000086130000CF
:104890007E13000021F00042A2F16052B2F5801FA9
:1048A00001F0004328BFD2F17F6C0BD95FEA001CF6
:1048B00043EAC20242EB507018BF704728BF20F095
:1048C00001007047B2F5801FBCBF184670474FEA21
:1048D000410C1CF5001F02D2084600F0DCBF70B589
:1048E00000F09AFB00000089FFF7F6BF4FF0004090
:1048F000A0F580007047000010B591EA030F48BF93
:1049000083F0004300F12684841A71EB030C05D276
:10491000121943EB0C03001B61EB0C01DFF824E1DF
:104920004FEA1154A4EB135C1EEA430F18BF9EEA32
:10493000445F73D023EA0E03DCF1200E21EA045118
:1049400043F4801332D322FA0CFE10EB0E0023FA4C
:104950000CFE41EB0E01CCF1200E03FA0EFE10EB23
:104960000E0051F10001B1F5801FCCF1200E32D2C2
:1049700001EB045112FA0EF2BDE8104058BF704727
:10498000401C38BF5FEA420218BF7047002814BFBE
:1049900020F0010041F100014FEA410313F5001F2F
:1049A00038BF7047A1F1C04100F084BB012A43EB3E
:1049B0000302ACF1200CDCF11F0E32BF4FF0000EF1
:1049C00023FA0CF310EB030041EB0451B4EB115F3D
:1049D000D0D0A1EB045101F5801149085FEA300005
:1049E00001EB04510ED350F1000038BF12FA0EFE55
:1049F00008D1BDE81040C9E7401C38BF5FEA420259
:104A0000CAD1C3E7BDE810404FEA410313F5001FC8
:104A100038BF7047A1F1C04100F04CBB9EEA445F33
:104A200008D011EA5E0FBDE8104004BF01F000415C
:104A300000207047BDE8104070B500F0EDFA00BFEF
:104A400064FBBE3E0000E0FF02494FF0000000F0B2
:104A5000D1BF00BF0000F87F491058BFC1F14041ED
:104A60005B1058BFC3F140438B42EFF300807047A7
:104A70002DE9C04130B4DFF8A0C23CEA111418BFE0
:104A80003CEA131400F0EC8081EA03051CEA1114DF
:104A900044EAD57418BF1CEA131500F0C780A4EBD4
:104AA00005044FF0004545EAC12145EAC32341EA28
:104AB000505143EA525304F17F74994204F5003493
:104AC0004FEAC0204FEAC22208BF904200F09C800B
:104AD0004FEA13650FF24016765D4FEA134506FB69
:104AE00005F7C7F1807706FB07F74FEAD737A7FB33
:104AF00003687642C8F58038A7FB06CE38BFA8F118
:104B0000010807FB08E64FF0000EA6FB028CE6FB4F
:104B100003CEDCF1000CCEF1004E38BFAEF1010E39
:104B2000A6FB0C584FF000074FF00005E6FB0E8780
:104B3000A1FB08C6A0FB07CE16EB0E0645F100054B
:104B4000E1FB076515F1E04E7EBFA4F580345FEA16
:104B500046066D4116F1800745F100054FEA17271B
:104B60004FEA066647EA0567A6F1DE46B6F1805FC2
:104B70004FEA15251FD9384624F0010C05EBC47106
:104B8000BCF1FE6F01EB0C1102D8F0BCBDE8008156
:104B900024425CBF01F5801E9EEAC47F02D4F0BCB3
:104BA000BDE80081244238D4F0BCA1F1C041BDE889
:104BB000004100F07FBA4FEAD22242EA43524FEA64
:104BC000D323A7FB02864FEAD02040EA415007FBDF
:104BD00003661EEA0E0F4FEAD12105FB026658BF9D
:104BE000A6EB0056B6EB00564FEA520E4EEAC37ED5
:104BF00018EB0E0E56EB530EBDD518EB02085E41B6
:104C00007F1C55F10005B6E74FF480154FF0000703
:104C10004FF000064FF00008ADE7F0BC4FF0000089
:104C200001F1C04101F00041BDE8008111EA0C1F13
:104C30000CEA131500D00CE013EA0C1F00F02580DD
:104C40004FF00000F0BC81EA030101F00041BDE833
:104C50000081F0BCBDE8004181EA030100F02ABAFE
:104C6000F0BCBDE8004170B500F0D6F9097EFC3E0D
:104C700000F007B881EA03014FF0000001F00041A5
:104C8000704781EA030100F015BAF0BCBDE80041AD
:104C90004FF0000021497047FFFDFBF9F7F5F4F2F2
:104CA000F0EEEDEBE9E8E6E4E3E1E0DEDDDBDAD8C7
:104CB000D7D5D4D3D1D0CFCDCCCBCAC8C7C6C5C425
:104CC000C2C1C0BFBEBDBCBBBAB9B8B7B6B5B4B33C
:104CD000B2B1B0AFAEADACABAAA9A8A8A7A6A5A427
:104CE000A3A3A2A1A09F9F9E9D9C9C9B9A999998EB
:104CF0009797969595949393929191908F8F8E8E8E
:104D00008D8C8C8B8B8A898988888787868585841A
:104D100084838382828181800000FF070000F87F06
:104D200051EA030C17D41CF5801F58BFBCF5801F37
:104D300000F10680994218BF704708BF9042704743
:104D400007D711F5801F58BF13F5801F19D499425A
:104D50007047894270471CF5801F08D5BCF5801F3D
:104D6000F7D58B4218BF704708BF824270474FF497
:104D7000001C1CEB410F38BF1CEB430F01D28B42D0
:104D8000704770B500F048F9922449004FF0005187
:104D90004FF08053FFF760BE4FEA41034FEA535391
:104DA000A3F58063D3F11E03C8BFD3F1210C0CDD42
:104DB0004FF0004242EAC12242EA505232FA03FC6A
:104DC0008CEAE17CACEBE1707047102BC4BF002093
:104DD000704703F5787CBCF1FF3F04D06FF00042D0
:104DE00082EA2100704770B500F016F949922480DC
:104DF00000207047F2E710F0004248BF4042B0FA8E
:104E000080F310FA03F10AD0C3F11D0303F58063A8
:104E10004FEA415002EB035202EBD12170474FF0B1
:104E200000007047B0FA80F310FA03F10AD0C3F122
:104E30001D0303F580634FEA41504FEA035202EB32
:104E4000D12170474FF000007047000051EA030C79
:104E500017D41CF5801F58BFBCF5801F00F10680D9
:104E6000994218BF704708BF9042704707D711F5A5
:104E7000801F58BF13F5801F19D49942704789428B
:104E800070471CF5801F08D5BCF5801FF7D58B42F5
:104E900018BF704708BF824270474FF4001C1CEBDC
:104EA000410F38BF1CEB430F01D28B42704770B5E6
:104EB00000F0B2F8922449004FF000514FF08053B7
:104EC000FFF7CABDDFF848C170B51CEA111E1EBF4E
:104ED0001CEA13159EEA0C0F95EA0C0F00F06F8088
:104EE00081EA030423EA4C134EEAD47E21EA4C11F2
:104EF00041F4801143F48013AE44A1FB024CA0FBAB
:104F00000365AEF17F7E361955EB0C05A1FB034C12
:104F10004CF10003A0FB021C16EB0C06654153F19B
:104F20000003094218BF46F0010613F4007F0BD1BD
:104F30004FEA03314FEA0530340341EA155140EAA4
:104F400016506FF003020AE04FEAC3214FEAC52072
:104F5000F40241EA555140EA56506FF0020202EB6A
:104F60002E4201EB025585EACE710AD05FEA440C6D
:104F700018BF24F0004450F1000041F1000120EA84
:104F8000D47040F2FE7C624500D270BDA84214BFCE
:104F90004FF080444FF04044002E08BF0024BEF183
:104FA000806FA8BFA1F1C041BDE8704080F282804F
:104FB0004FF0000001F1C04101F0004170479EEA4E
:104FC0000C0F0CEA131518BF95EA0C0F06D04FF022
:104FD000000081EA030E0EF0004170BD00F01CF8E5
:104FE0008900013E00F007B800F009B84FEA430C11
:104FF0005FEA5C5C08D081EA030100F05BB84FEA2D
:10500000410C5FEA5C5CF6D14FF00000014970474B
:105010000000FF070000F87F0EF1020E2EF0030ED5
:105020005EF8046B364205D4012A43EB030515F5FF
:10503000001F12D8012841EB010C1CF5001F0CD8F1
:105040000ED14FEAD17C15F5001F0CEB4C0C0CF186
:10505000020C08BF4CEBD37C04E04FF0080C01E0DD
:105060004FEAD37C0CEB4C0526FA05F606F0070652
:10507000B6F1040C06D20EEB860CBDE870404CF085
:10508000010C6047DFE80CF0090B02024FF0004111
:105090004FF00000A1F5002170BD1946104601280F
:1050A00051EB010418BFD4F5001484BF002001F0B7
:1050B000004170BD0808A0F500114FEA31017047AA
:1050C00053EA010C17D41CF5801F58BFBCF5801F94
:1050D00000F106808B4218BF704708BF82427047BC
:1050E00007D713F5801F58BF11F5801F19D48B42C5
:1050F00070479B4270471CF5801F08D5BCF5801F88
:10510000F7D5994218BF704708BF904270474FF4D7
:10511000001C1CEB430F38BF1CEB410F01D299421E
:1051200070470FB40CBC03BCFFF7C1BE91EA030F7C
:1051300010B581F000413FF5E7AB83F0004300F08C
:1051400009B8000010B591EA030F48BF83F000438F
:105150003FF5DAAB841A71EB030C07D212198CF00D
:10516000004C43EB0C03001B61EB0C01DFF8A4E1E6
:105170004FEA1154A4EB135C1EEA430F18BF9EEADA
:10518000445F00F0B08023EA6E03524221EA0451EA
:10519000C3EB6E0338BF5B1EDCF1200E25D322FA71
:1051A0000CFE10EB0E0043FA0CFE41EB0E01CCF1AD
:1051B000200E03FA0EFE10EB0E0051F10001CCF1AF
:1051C000200E29D412FA0EF201EB0451BDE8104072
:1051D00058BF7047401C1CBFB2F1004F70470028F9
:1051E0000CBF491C20F00100704712EB020E43EB8C
:1051F000030218BF4FF0010E4EEA4202ACF1200C40
:10520000DCF11E0E54D943FA0CFE10EB0E0051F1E6
:10521000FF31CCF11E0ED5D50EF1010E12FA0EFEA5
:10522000404141EB010101EB445C5FEA5C5C10D959
:1052300010EBDE7001EB045138BFBEF1004FBDE84A
:10524000104018BF704700280CBF491C20F0010017
:10525000704730D24FEAD42C11F5001124F40064C9
:105260001BD0B1FA81F20B3AA41AA41ED2F120038A
:10527000914030FA03F31943904001EBCC71002CBC
:1052800001EB0451BDE81040A8BF704701F1C041D7
:105290004FF0000001F000417047B0FA80F310FABF
:1052A00003F100D110BDE41A173C4805C90AE4E730
:1052B00001EB045110BD491001EB0451BDE8104051
:1052C0004FEA300002E04FF0000170474A0008BF8B
:1052D0000042F8D0B2F5001F28BF704701F000412E
:1052E0004FF0000070479EEA445F07D011EA5E0F5E
:1052F000BDE8104004BF002100207047BDE8104009
:1053000070B5FFF789FE00BF40DFF63E83F0004135
:10531000104670470000E0FF43004FEAD30C4FEA0D
:105320003C0C43401FBF40070CF1605113F0FE4F8F
:1053300070471CF0006F03D100200CF00041704753
:105340000CF0004343EA507010B540EACC0000F086
:105350005CFA00BF000000924FEA0001FFF7AABE0E
:105360004FF000414FF00000A1F500217047000010
:1053700090EA010F48BF81F0004100F1CA82421A51
:105380003CBF801A89184FEAD0524FF07F4C1CEA7C
:10539000410FA2EBD15318BF9CEA026F00F03B8093
:1053A0004FF0004C4CEA00204CEA012121FA03FCAA
:1053B00010EB0C0C1ED202F1FF325FEA1C2040EB16
:1053C000C25038BF70471CF07F0F4FEA400C18BF27
:1053D000BCF17F4F38BF7047C3F12003994008BF2D
:1053E00020F00100BCF17F4F38BF7047A0F1C040F2
:1053F00000F051BA4FEA3C00000A40EBC25028BF0F
:105400001CF0FF0F4FEA400CE6D018BFBCF17F4FF5
:1054100038BF7047EAE79CEA026F05D010EA5C0FDC
:1054200008BF00F00040704710B500F0EEF900BF73
:1054300064FBBE3E401058BFC0F14040491058BF09
:10544000C1F140418142EFF3008070474FF47F0C7F
:105450001CEAD0121EBF1CEAD11392EA0C0F93EA89
:105460000C0F00F0858090EA010F48BF42F4807273
:1054700040F4000C41F400002CF07F4120F07F400C
:1054800000B58142A2EB03020FF2081CACEB504EB8
:10549000C0F100009EF800E04FEA4E0E00FB0EFC4B
:1054A00038BF49004FEA2C1C02F5FA020CFB0EF340
:1054B0004FEACE1E4FEA112C4FEAC1210EEB635E7C
:1054C00042EB22420EFB0CFC4FEA1C5300FB031183
:1054D0004FEA112C4FEA01310EFB0CFC4FEADC4C79
:1054E00000FB0C11C14228BF09184CEB03335DF8D7
:1054F00004EB10EB410143EBC250B2F57C0F38BF17
:10550000704729D512F0F00F1CBF00F1C04000F029
:1055100000407047008182838485868788898B8CD0
:105520008D8E8F919293959697999A9C9D9FA0A20C
:10553000A3A5A7A8AAACAEB0B2B3B5B7B9BCBEC05C
:10554000C2C5C7C9CCCED1D4D7D9DCDFE2E6E9ECFD
:10555000F0F3F7FAFE0000004FEA400C0CF1807CFB
:10556000BCF17E4F28BF7047B0F1C04000F093B946
:1055700090EA010F0CEAD11348BF42F480726245F1
:1055800038BF634507D213F47F0F16D080EA0100BD
:1055900000F00040704710B500F037F9097EFC3E7E
:1055A00000F005B880EA010000F00040704780EA92
:1055B000010000F0004000F06EB912F47F0F04BF4C
:1055C0000248704780EA010000F065B90000C07F22
:1055D00041000B0ED3F19E0208D950F400034FEAAC
:1055E000032323FA02F048BF4042704710B500F091
:1055F0000CF900BF49922480002070476FF00042F0
:1056000082EA200070470000C10DD1F19E0206DB46
:105610004FEA002343F0004323FA02F070470042B0
:1056200007D54FEA4001B1F1FE4F02D24FF0000022
:10563000704710B500F0E9F84992248000207047C7
:105640006FEA20007047000010F0004148BF404260
:10565000B0FA80F310FA03F2C3F19D030BD051EAC4
:10566000C35101EB1220530638BF704700F101000F
:1056700008BF20F001007047B0FA80F310FA03F27F
:10568000C3F19D030AD0D90501EB1220530638BFA0
:10569000704700F1010008BF20F0010070470000D2
:1056A00050EA010C00F113801CF5000F58BFBCF547
:1056B000000F01D48842704707D710F5000F58BF7C
:1056C00011F5000F15D488427047894270471CF5C8
:1056D000000F04D5BCF5000FF7D5814270474FF09D
:1056E000807C1CEB400F38BF1CEB410F01D2814284
:1056F000704710B500F089F8922449004FF000502F
:105700004FF08051FFF796BE4FF47F0C1CEAD01289
:105710001EBF1CEAD11392EA0C0F93EA0C0F00F0A3
:10572000478090EA010F48BF42F480724FF0004C6E
:105730004CEA00204CEA012102EB0302A0FB01131A
:10574000A2F50002002918BF43F001035B0028BF47
:105750004FEA330342EB22425FEA132C4CEBC25078
:105760002EBFBCEB436FB2F57C0F70474FEA036C62
:10577000BCF1004F08BF20F00100B2F57C0F38BF2C
:1057800070470BD582F0FF0212F5803FC8BF70470B
:1057900000F1C040D8BF00F00040704700F5000C99
:1057A0005FEA4C0C48BF7047B0F1C04000F073B8DE
:1057B00090EA010F0CEAD11348BF42F480726245AF
:1057C00038BF634504D280EA010000F00040704712
:1057D00010B500F01AF800BF8900013E00F007B8CC
:1057E00000F009B85FEA410C5FEA1C6C08D080EA5F
:1057F000010000F050B85FEA400C5FEA1C6CF6D183
:105800004FF00040A0F5800070470EF1020E2EF020
:10581000030E5EF8044B244204D44FEA4102B2F175
:105820007F4F11D84FEA4003B3F17F4F0CD80ED110
:105830004FEAD07CB2F17F4F0CEB4C0C0CF1020C18
:1058400008BF4CEBD17C04E04FF0080C01E04FEABC
:10585000D17C0CEB4C0324FA03F404F00704B4F1FC
:10586000040C06D20EEB840CBDE810404CF0010C89
:105870006047DFE80CF0070802024FF00040A0F597
:10588000800010BD0846420018BFD2F1807288BF68
:1058900000F0004010BDFF2141EAD050C005704724
:1058A00051EA000C00F113801CF5000F58BFBCF545
:1058B000000F01D48142704707D711F5000F58BF80
:1058C00010F5000F15D481427047894270471CF5CE
:1058D000000F04D5BCF5000FF7D5884270474FF094
:1058E000807C1CEB410F38BF1CEB400F01D288427B
:1058F000704780EA010081EA000180EA0100FFF7B9
:10590000F8BE000090EA010F48BF81F000413FF56A
:1059100036AD421A04D882F00042A0EB02001144D6
:105920004FEAD0524FF07F4C1CEA410FA2EBD1530B
:1059300018BF9CEA026F4AD04FF0004C4CEA00209E
:105940004CEA012121FA03FCB0EB0C0C0FD412F04D
:10595000FE0F36D05FEA4C001DD5001240EBC2505E
:1059600038BF70471CF03F0F18BF70470BE0A2F123
:1059700001025FEA1C2040EBC25038BF70471CF0A8
:105980007F0F18BF7047C3F12003994014BF401E1A
:1059900020F00100704780084FEA122308BF7047CB
:1059A000B0FA80FCA2EB0C02CCF1280C60FA0CF0EF
:1059B00093EA122F04BF00EBC25070474FEAC37046
:1059C0007047130A5FEADC1008BF7047F6E79CEAED
:1059D000026F04D010EA5C0F08BF0020704710B5BA
:1059E000FFF713FF40DFF63E81F0004070474FF0B5
:1059F000000070470CF00F03092B08BF082000F0CF
:105A00005F800A2B0BD0082B18BF704708BF1CF013
:105A1000400F0AD04FF000004FF0000170471CF01B
:105A2000400F18BF4FF0004070471CF0100F08D017
:105A300020F0704300F07F4242EAD3014FEA437006
:105A4000704700F0604021F07F4242EA000201F01E
:105A50007F4040EA727070474FF0FF0C4CF4E06CEE
:105A60001CEA11531CBF9CEA030C9445C2BFDA42E6
:105A700001EB02517047002B0DD0BCF1000F0FD08D
:105A8000002A01F00041A4BF41F0E04141F07F61F4
:105A90004FF00000704701F000414FF000007047E8
:105AA00050EA01334FF09B0C18BF4CF0806C7EF431
:105AB000CBAF7047FAF7A4BDFAF7B8BFFBF746B90A
:105AC0001CF4801F11D01CF4E02F03D06FEACC31FE
:105AD000490070474FF04050EFF3008222F07042CF
