:020000040800F2
:10000000180C0020390200081B28000851250008A0
:1000100019280008B30B0008BD2D000800000000DF
:100020000000000000000000000000001F28000881
:10003000B90C0008000000001D2800082128000855
:10004000530200085302000853020008530200083C
:10005000530200085302000853020008530200082C
:10006000530200085302000853020008530200081C
:10007000B50B000853020008C10B0008530200082A
:10008000CD0B0008D90B00085302000853020008EA
:1000900053020008530200085302000853020008EC
:1000A00053020008530200085302000853020008DC
:1000B00053020008530200085302000853020008CC
:1000C00053020008530200085302000853020008BC
:1000D000530200088D2D0008992D0008A52D000859
:1000E000530200085302000853020008530200089C
:1000F000530200085302000853020008530200088C
:10010000530200085302000853020008530200087B
:10011000530200085302000853020008530200086B
:1001200053020008E50B0008F10B00085302000819
:10013000530200085302000853020008530200084B
:10014000530200085302000853020008530200083B
:1001500053020008FD0B0008090C0008B12D00082F
:10016000530200085302000853020008530200081B
:100170005302000853020008530200080000000068
:10018000530200085302000800F002F800F045F89E
:100190000AA090E8000C82448344AAF10107DA45E2
:1001A00001D100F03AF8AFF2090EBAE80F0013F0EF
:1001B000010F18BFFB1A43F00103184778410000F4
:1001C00098410000103A24BF78C878C1FAD8520785
:1001D00024BF30C830C144BF04680C6070470000C1
:1001E0000023002400250026103A28BF78C1FBD840
:1001F000520728BF30C148BF0B6070471FB504F0DD
:1002000075F800F08BFC04000020002103F088FC4E
:10021000401C60601FBD10B510BD00F043FC1146CE
:10022000FFF7ECFF02F0A6FE00F06AFC03B4FFF754
:10023000F2FF03BC00F076FC0948804709480047FC
:10024000FEE7FEE7FEE7FEE7FEE7FEE7FEE7FEE786
:10025000FEE7FEE704480549054A064B70470000E3
:10026000B92800088901000818060020180C002091
:10027000180800201808002053EA020C00F06980DA
:100280002DE9F04B4FF00006002B1FBFB3FA83F5AA
:1002900003FA05F424FA05F65E4012BF1643B2FADB
:1002A00082F502FA05F4C5F120051EBF22FA05FC0D
:1002B00044EA0C04203556EA044C4FEA144418BFB3
:1002C000641C4FF000084FF00009904271EB030CE2
:1002D00039D3002919BFB1FA81F701FA07F6B0FA4C
:1002E00080F700FA07F6C7F120071EBF20FA07FCC7
:1002F00046EA0C062037B6FBF4FCA7EB0507103FD7
:1003000007F01F0BCBF120060CFA0BFB2CFA06F6BC
:1003100044BFB3460026202FA4BF5E464FF0000B1B
:100320005BEA060C08BF4FF0010B19EB0B09ABFBA6
:10033000027C48EB0608C01B06FB02CC0BFB03CC7F
:1003400071EB0C01C1E70B46024641464846BDE849
:10035000F08B13B54FF000004FF00001AFF30080B9
:10036000BDE81C40704700000FB400B58DB010A967
:10037000099000910B904FF0FF300A9000200C90F4
:10038000064878440690064878446A4607900F99D4
:1003900009A800F031F90DB05DF814FB93020000DC
:1003A000AB0200002DE9FF5F4FF0000899461446AC
:1003B00046469169D2E901A7DDF838B0019888472F
:1003C000054659EA0B0005D009E0A1690198761CA1
:1003D00088470546216A284688470028F5D1681CC9
:1003E00003D05FEACA7005D015E04FF0FF3004B0CB
:1003F000BDE8F09F2068011D2160D0F800800AE070
:100400005FEACA7001D108F8015BA169761C019806
:100410007F1E88470546002F1ADD681C18D0B9F1E9
:10042000000F0DD0E81705EBD060421120F01F003F
:1004300059F822102A1A012090400142E0D107E029
:10044000BBF1000FDCD12846216A88470028D7D0AD
:10045000E16901988847BBF1000F07D1002E05DD47
:100460005FEACA7002D1002188F80010A068B84283
:1004700003DDBBF1000F03D017B16FF00100B6E749
:100480003046B4E7014A00F0E7B800004800002019
:1004900010B5431C02E010F8011B71B18107FAD1BD
:1004A0004FF0013202C88C1A8C4314EAC211F9D001
:1004B000C01A0A0603D0C01E10BDC01A10BD0A041F
:1004C00001D0801E10BD0902FCD0401E10BD10B529
:1004D000203AC0F00B80B1E81850203AA0E818503C
:1004E000B1E81850A0E81850BFF4F5AF5FEA027CFD
:1004F00024BFB1E81850A0E8185044BF18C918C06C
:10050000BDE810405FEA827C24BF51F8043B40F80C
:10051000043B08BF7047D20728BF31F8023B48BFF1
:1005200011F8012B28BF20F8023B48BF00F8012B2F
:10053000704702F0FF0343EA032242EA024200F05E
:10054000AFB84FF0000200B51346944696462039E6
:1005500022BFA0E80C50A0E80C50B1F12001BFF47C
:10056000F7AF090728BFA0E80C5048BF0CC05DF8E2
:1005700004EB890028BF40F8042B08BF704748BF30
:1005800020F8022B11F0804F18BF00F8012B7047A4
:1005900010B5044610F0030F08BF11F0030F40F030
:1005A00015804FF0013E121FC0F20E8051F8043B3F
:1005B000A3EB0E0C2CEA030C1CEACE1C08BF40F87F
:1005C000043BF0D0A1F1040102F10402521E08DB49
:1005D00011F8013B002B00F8013BF7D1114600F068
:1005E0005DF8204610BD704770477047026811449F
:1005F0001378016018467047D1600549794451610C
:1006000004497944116200211161114600F072B869
:10061000EDFFFFFFDB000000426842B1016811F806
:10062000013B23B1521EC0E9001218467047012158
:10063000C160881E704742685AB1C368016843B9F7
:1006400083688B4205D0491E521CC0E9001200206D
:1006500070474FF0FF3070472DE9F04115460E46C8
:10066000040002D12C6804B90BA4204600F00CFA57
:100670000444207870B127463146384600F0F4F93A
:100680000444207810B1002004F8010B38462C6097
:10069000BDE8F0810027F9E7000000004FF00002FC
:1006A0000429C0F0128010F0030C3FF44CAFCCF1E1
:1006B000040CBCF1020F18BF00F8012BA8BF20F8F2
:1006C000022BA1EB0C01FFF73EBF5FEAC17C24BF08
:1006D00000F8012B00F8012B48BF00F8012B7047F0
:1006E00010B5044600F004FA0068005D00F0010057
:1006F00010BD00002DE9F34F4FF0000A0C4656469E
:100700008DB001200C9001F10C000B9062690B98E8
:1007100001219047051E2DD0252D2CD0216A884718
:10072000C0B162690B9801219047216A884700286F
:10073000F7D16269411E0B98904700E0761CA169D1
:100740000D988847216A88470028F7D1E1690D98FC
:100750008847DBE7A1690D988847A842074601D181
:10076000761CD3E7E1690D9888477F1C02D1BAF166
:10077000000F6FD06CE162690B9800273D46394647
:1007800090472A2804D162690B98012190470125DE
:10079000DFF8D08262690B9801219047A0F1300107
:1007A0000A290AD24745E5DC07EB870100EB410740
:1007B000303FDFD445F01005ECE7E90601D46FF0D7
:1007C00000476C280AD04C2814D0682815D06A2815
:1007D0000DD074281CD07A281AD01DE062690B98BD
:1007E000012190476C2802D045F0040514E045F043
:1007F00002050DE045F020050AE062690B98012131
:100800009047682802D045F0080505E045F40065EA
:1008100062690B9801219047C4E9015765283DD0D2
:1008200019DC58287AD00CDC452837D004DC252880
:1008300026D041289ED131E046282FD0472899D193
:100840002CE05B2877D0612828D063287CD06428EE
:1008500023D15AE0F7E06F2848D008DC66281DD085
:1008600067281BD0692821D06E2816D127E0702870
:1008700045D0732868D0752847D078280DD14DE031
:10088000A1690D988847252805463FF469AFE169BD
:100890000D9888476D1C3FF46AAFD9E00D99234647
:1008A0006A466FF00100AFF30080C6E045F04000FB
:1008B00023464FF000026060A80736D43EE0E80708
:1008C0007FF447AF2068011D21600068290501D52C
:1008D00006701BE7290701D5068017E7A90703D58E
:1008E000F117C0E9006111E706600FE745F040002D
:1008F00023464FF008026060A80716D41EE040F6B9
:100900000E0125EA0100606016E045F04000234634
:100910004FF00A026060A80707D40FE045F04000DE
:100920006060A80708D5234610220D996FF00100DA
:10093000AFF3008081E007E0102223460D996FF0AD
:100940000100AFF3008078E04FF0000963284F46C4
:10095000C8464B46CB4602D05B2807D039E0207909
:10096000C00601D40120A060012732E06269D4F8FA
:100970000CB00B98012190475E2807D14FF0010978
:1009800049466269D4F80CB00B989047216939B98F
:1009900000210A4603AB43F82120491C0829FADB51
:1009A000D8B3216949B308F1010862690B980121A4
:1009B00090475D28F4D1B9F1000F09D0002003A9B8
:1009C00051F82020D24341F82020401C0828F7DBB2
:1009D00003AB2069002820794FEA40701ED05B46A7
:1009E0002246CDF80080CDE901970D9900286FF0DF
:1009F000010020DAAFF300801FE0C11703AA00EB6B
:100A0000D1614B1121F01F0102EB8302411A1368DF
:100A10000120884003431360C7E719E00D9922467F
:100A200000286FF00100009702DAAFF3008004E0C5
:100A3000FFF7B8FC01E0AFF3008000280ADA401CA1
:100A400006D10C9820B14FF0FF300FB0BDE8F08F09
:100A50005046FAE7E90701D10AF1010A06440020ED
:100A60000C9053E6CCCCCC0C30B503461D781DB1B0
:100A70000A4603E0AC4201D1181A30BD12F8014B0E
:100A8000002CF7D15B1CF1E730B503461D783DB172
:100A90000A4612F8014B1CB1AC42FAD15B1CF5E7D7
:100AA000181A30BD754600F035F8AE4605006946A7
:100AB000534620F00700854618B020B5FFF7CAFB63
:100AC000BDE820404FF000064FF000074FF000084F
:100AD0004FF0000B21F00701AC46ACE8C009ACE8D0
:100AE000C009ACE8C009ACE8C0098D4670470000F9
:100AF00010B500F013F8001D10BD00BF2530000038
:100B000010B50446AFF300802046BDE81040FFF763
:100B10008DBB000000487047B805002000487047B2
:100B2000D805002001491820ABBEFEE726000200D0
:100B30004FF0013C50F8042B51F8043B9A4221D16C
:100B4000A2EB0C03934313EACC1317D150F8042BF8
:100B500051F8043B9A4215D1A2EB0C03934313EADC
:100B6000CC130BD150F8042B51F8043B9A4209D115
:100B7000A2EB0C03934313EACC13DBD04FF000003D
:100B8000704700BFD01A01BAB1FA81F101F0180123
:100B900022FA01F0CB40C1F12001DBB2C0B2C01A91
:100BA0002CFA01F3D11A914311EAC311E6D170472F
:100BB0007047FEE7014800F0DDB80000380400206F
:100BC000014800F0D7B8000098040020014800F068
:100BD000D1B80000D8030020014800F0CBB80000D5
:100BE00078030020014800F0C5B80000F804002098
:100BF000014800F0BFB8000018030020014800F0D1
:100C0000B9B8000058050020014800F0B3B8000052
:100C1000B802002001681823CAB2103AB2FBF3F2FE
:100C2000054B6FF30901032A9B5CC36500D9091DBD
:100C300081650846704700001443000810B501465E
:100C400000208B698A6A4FF0C07453B1B3F5005F1E
:100C500015D072B1012A0CD0022A0AD0032A09D178
:100C600004E01AB1012A06D0022A03D1C96AC901D7
:100C700000D5012010BDC96AA142FAD010BD002ADA
:100C8000F7D0012AF2D0022AF3D0032AF3D010BD04
:100C900030B50468256825F4802525600468636004
:100CA0008368402B036803D099600068C26030BD40
:100CB0009A600068C16030BD704772B6FEE72DE9EA
:100CC000F0410446876D00F0DBFA064694F83500E3
:100CD0000025022806D08020606584F83450012069
:100CE000BDE8F0812068016821F0160101602068EC
:100CF000416921F080014161206C08B9A06C20B1EC
:100D00002068016821F0080101602068016821F075
:100D1000010101600CE000F0B3FA801B052807D93F
:100D200020206065032084F8350084F83450D7E72C
:100D300020680068C007EED194F85C103F2088401E
:100D4000B860012084F8350084F834500020C7E7EB
:100D500090F83510022903D08021416501207047A9
:100D6000052180F835100068016821F0010101605B
:100D7000002070472DE9F84304464FF00009CDF8F4
:100D8000009063484FF41651A56D0068B0FBF1F771
:100D90002E6894F85C10082000FA01F131420FD05F
:100DA00021680A6852070BD50A6822F004020A601B
:100DB00094F85C108840A860606D40F001006065A8
:100DC00094F85C104FF0010808FA01F0304208D0A6
:100DD00021684969090604D5A860606D40F00200E9
:100DE000606594F85C1004208840304208D0216887
:100DF0000968890704D5A860606D40F0040060654B
:100E000094F85C1010208840304218D0216809689E
:100E1000090714D5A86020680168490304D5006853
:100E2000000308D5A16C07E00168C90503D4016877
:100E300021F008010160216C09B12046884794F82F
:100E40005C1020208840304231D021680968C906F2
:100E50002DD5A86094F8350005282068016806D0D3
:100E6000490347D5006800031DD4616C1CE021F0E4
:100E7000160101602068416921F080014161206C08
:100E800008B9A06C20B12068016821F00801016058
:100E900094F85C103F208840A86084F8358084F87E
:100EA0003490216D1FE0E16B09B120468847606DE9
:100EB00000282BD0606DC00714D0052084F83500C1
:100EC0002068016821F0010101600098401C009039
:100ED000B84203D820680068C007F6D184F835808E
:100EE00084F83490E16C002910D001B02046BDE8B0
:100EF000F04308470168C905D5D4016821F0100105
:100F0000016084F8358084F83490CCE7BDE8F8833C
:100F1000440000202DE9F041044600F0B1F90646F6
:100F20005CB1022084F83500002584F83450206834
:100F3000016821F0010101600DE00120BDE8F081B0
:100F400000F09EF9801B052805D92020606503204C
:100F500084F83500F2E720680068C007F0D1226805
:100F6000116820480140D4E901031843D4E903364D
:100F70003343184363691843A3691843E36918436B
:100F8000236A18430843616A042903D1D4E90B1387
:100F900019430843106020684069666A20F0070121
:100FA00030460E43012704280CD1A06A0643E06AAC
:100FB00040B12046FFF742FE20B14020606584F832
:100FC0003570BAE7206846612046FFF723FE94F8A3
:100FD0005C203F2191408160656584F83570002078
:100FE000ACE700003F8010F02DE9F0410446866D2B
:100FF00090F83400002501280DD0012084F8340039
:1010000094F835700020012F07D084F834000225B1
:101010002846BDE8F0810220FBE7022784F83570FE
:1010200060652046FFF734FE94F85C103F2088404E
:10103000B0602068016841F016010160206C20B1A9
:101040002068016841F0080101602068016841F0F2
:1010500001010160DCE7000070B5044600F010F902
:101060000546601C02D004480078044400F008F9EA
:10107000401BA042FAD370BD380000202DE9F84F84
:10108000DFF8BCA10022012503264FF00F090AF169
:10109000040BAAF1040E00BF0B6805FA02F423400A
:1010A000A34270D10F7907F00307012F01D0022F5F
:1010B00016D187684FEA420806FA08FC27EA0C07AF
:1010C000D1F80CC00CFA08FC4CEA070CC0F808C0B8
:1010D0004768A7430C79C4F3001494403C43446030
:1010E0000C79E443A4070AD0C4684FEA420C06FA1C
:1010F0000CF7BC438F6807FA0CF72743C7600C79DD
:1011000004F00304022C12D1D40800EB840CDCF8A8
:1011100020405707FF0E09FA07F824EA0804D1F81F
:10112000108008FA07F848EA0408CCF82080046820
:101130004FEA420C06FA0CF7BC430F7907F003079D
:1011400007FA0CF7274307604C6814F4403F70D04F
:101150003C4C276847F480472760246822F0030747
:1011600004F480440094384C07EB040CDCF8084885
:1011700097074FEA177809FA08F7BC43334FB8428C
:1011800002D1002724E054E0314FB84201D10127B9
:101190001EE0304FB84201D1022719E02E4FB8426D
:1011A00001D1032714E02D4FB84201D104270FE0ED
:1011B0002B4FB84201D105270AE02A4FB84201D18E
:1011C000062705E0284FB84201D1072700E008278D
:1011D00007FA08F72743CCF80878DAF800405746B2
:1011E000D1F804C09C435FEACC2C00D51C433C6082
:1011F000DBF800405F46D1F804C09C435FEA8C2CCA
:1012000000D51C433C60DEF800407746D1F804C0AE
:101210009C435FEA8C3C00D51C433C60084F083F70
:101220003C68D1F804C09C435FEACC3C00D51C4329
:101230003C60521C102AFFF42FAFBDE8F88F00006D
:10124000083C0140443802400030014000000240A8
:101250000004024000080240000C0240001002405E
:101260000014024000180240001C024000690840BF
:1012700000D0012070470AB1816170470904FBE783
:1012800001488068704700003800002002488168EB
:101290000278114481607047380000200B4810B577
:1012A000016841F400710160016841F480610160EE
:1012B000016841F480710160032000F06FF80F2095
:1012C00000F006F800F024F8002010BD003C0240B9
:1012D00070B50D4D04464FF47A712878B1FBF0F0EB
:1012E0000A490968B1FBF0F000F00AFB48B9102C7C
:1012F00007D200222146501E00F030F800206C601A
:1013000070BD012070BD00003800002044000020A6
:101310000A4808B5016841F480410160006800F4A2
:10132000804000900548001F016841F08051016035
:10133000006800F08050009008BD00004438024072
:10134000002809DB00F01F020121914040098000C4
:1013500000F1E020C0F8001170470000F0B40E4B1F
:101360001B680C46C3F30223C3F10705042D00D903
:101370000425191D072901D2002300E0DB1E0126E8
:1013800006FA05F1491E214099409E40761E1640FE
:101390003143F0BC01F013BD0CED00E0064900F054
:1013A000070208684FF6FF03184040EA0220034A8C
:1013B00010430860704700000CED00E00000FA05E3
:1013C0002DE9F0470E46050065D0DFF81481D8F806
:1013D0000000F7B200F00700B04207D288F80070B2
:1013E000D8F8000000F00700B04254D128683D4C06
:1013F000810712D5400703D5206840F4E0502060F3
:101400002878000703D5206840F4604020602068F9
:10141000A96820F0F000084320602878C0072DD08C
:10142000304968680839012812D0022813D00328EF
:1014300011D00968890700292DDA216821F00301FC
:1014400001432160FFF71CFF814641F2883A0EE01C
:1014500009688903EFE709688901ECE7FFF710FFE6
:10146000A0EB0901514502D90320BDE8F0872068AF
:10147000696800F00C00B0EB810FEFD1D8F80010D4
:10148000404601F00701B14207D90770006800F03B
:101490000700B04201D00120E7E72878400705D5D2
:1014A0002068E96820F4E0500843206028780007AD
:1014B00006D52068296920F4604040EAC100206018
:1014C00000F038F82168084AC1F30311515CC840A4
:1014D0000649086006480068FFF7FAFE0020C4E7E6
:1014E000003C0240083802401C4300084400002031
:1014F0003C0000200448054900680968044AC1F31B
:101500008221515CC84070474400002008380240E6
:101510002C4300080448054900680968044AC1F3DF
:101520004231515CC84070474400002008380240F6
:101530002C430008154810B5006810F00C02144840
:1015400013D04110042A0FD0082A0ED10F4C241FAB
:101550002268236802F03F025B0207D52068C0F3CF
:101560008810A0FB010106E0084610BD2168C1F308
:101570008811A1FB00010023FEF77EFE2168C1F364
:101580000141491C4900B0FBF1F010BD0838024090
:101590000024F4002DE9F84F04006ED02078DFF825
:1015A0004C93C007A9F104054AD009F10400016871
:1015B000C1F38101012908D00068C0F3810002282D
:1015C0000AD1D9F80000400206D52868800337D533
:1015D00060680028E1D033E06068B0F5803F10D04B
:1015E000B0F5A02F286810D020F48030286028683B
:1015F00020F4802028606068A8B1FFF741FE06460D
:101600000DE0286840F48030F4E740F48020286042
:10161000F7E700BFFFF734FE801B642873D8286803
:101620008003F7D50CE0FFF72BFE064605E000BF70
:10163000FFF726FE801B6428F0D828688003F7D4C3
:101640002078DFF8AC8280074FF0000A3ED5A7482B
:10165000001D016811F00C0F08D00068C0F3810074
:1016600002280BD1D9F80000400207D4286880076F
:1016700016D5E068012800D112E033E1E068B8B186
:101680000120C8F80000FFF7FBFD064605E000BF9B
:10169000FFF7F6FD801B0228C0D828688007F7D521
:1016A0002868216920F0F80040EAC10028600DE0B8
:1016B000C8F800A0FFF7E4FD064604E0FFF7E0FDF0
:1016C000801B02281FD828688007F7D420780007DD
:1016D00022D5864F87486169703771B10121016059
:1016E000FFF7CEFD064604E0FFF7CAFD801B022887
:1016F00009D838688007F7D50EE0C0F800A0FFF7DA
:10170000BFFD064605E082E0FFF7BAFD801B022818
:101710007DD838688007F7D42078400768D5DFF88F
:10172000CCB100270BF13C0BDBF80000C0000BD460
:10173000DBF8001041F08051CBF80010DBF800001E
:10174000012700F0805000906B4E3068C00510D427
:10175000306840F480703060FFF792FD009005E043
:10176000FFF78EFD0099401A022850D83068C00556
:10177000F6D55E4EA0686C3601280FD0052830687B
:1017800010D020F001003060306820F0040030609C
:10179000A068B8B1FFF774FD00900FE0306840F02A
:1017A0000100F4E740F004003060F7E7FFF768FD60
:1017B0000099411A41F28830814266D8306880072A
:1017C000F4D50EE0FFF75CFD009007E0FFF758FD51
:1017D0000099411A41F28830814256D8306880071A
:1017E000F4D42FB1DBF8001021F08051CBF80010B9
:1017F000A069C8B33D49091D0968C1F381010229E7
:101800004AD00228504607D0C8F8600000E03CE00B
:10181000FFF736FD04463BE04746C8F86000FFF797
:101820002FFD064605E000BFFFF72AFD801B0228BA
:101830002BD828688001F7D4D4E907010843A16AAE
:101840002E4A490802EB0141626A41EA82110843CB
:1018500094F82C1040EA0161C9F8001001203866A4
:10186000FFF70EFD044606E03EE000BFFFF708FD6F
:10187000001B022809D828688001F7D534E000BF92
:10188000FFF7FEFC001B022802D90320BDE8F88FF9
:1018900028688001F4D427E00128F7D0D9F80000A7
:1018A000E26900F4800191421CD1226A00F03F01FC
:1018B000914217D147F6C071626A0140B1EB821FB5
:1018C00010D1A26A4FF0FF3300F4403103EB520213
:1018D000B1EB024F06D194F82C1000F07060B0EB21
:1018E000016F01D00120D1E70020CFE7043802408A
:1018F00000004742800E4742007000400000FFFF9A
:1019000010B5401EB0F1807F01D3012010BD4FF013
:10191000E02460610F21601701F051FA0020A061FE
:1019200007202061002010BD70B590F83C20012AEE
:1019300032D0012480F83C40022280F83D20036828
:101940005A689D6822F070060A6832435A60134B49
:1019500002689A4214D0B2F1804F11D0104B9A42D3
:101960000ED0104B9A420BD00F4B9A4208D00F4B1F
:101970009A4205D00E4B9A4202D00E4B9A4204D1A5
:10198000496825F080031943916080F83D400021AB
:1019900080F83C10084670BD022070BD0000014078
:1019A0000004004000080040000C0040000401401A
:1019B000004001400018004010B5040003D094F826
:1019C0003D0010B107E0012010BD002084F83C006C
:1019D000204600F01FF8022084F83D00211D2068F9
:1019E00000F072FF012084F8460084F83E0084F87D
:1019F0003F0084F8400084F8410084F8420084F8F5
:101A0000430084F8440084F8450084F83D00002039
:101A100010BD000008B50068B0F1804F08D105483E
:101A2000016841F001010160006800F001000090D0
:101A300008BD00004038024090F83D10012901D057
:101A400001207047022180F83D100068114988424A
:101A500014D0B0F1804F11D00F4988420ED00F49F9
:101A600088420BD00E49884208D00E49884205D0E2
:101A70000D49884202D00D49884204D1816801F0A5
:101A80000701062903D0016841F00101016000202F
:101A900070470000000001400004004000080040C2
:101AA000000C0040000401400040014000180040CC
:101AB00001680A6A41F211131A4207D10A6A9B109F
:101AC0001A4203D10A6822F001020A60012180F85B
:101AD0003D100020704770B5044690F83C0000258A
:101AE000012817D0012684F83C60022084F83D00CC
:101AF0002068826822F0770222F47F4282600868C0
:101B0000502838D00DDC20284FD005DC90B31028A9
:101B100011D14AE0022070BD302846D040280AD1B9
:101B20003BE060282FD070280DD0B0F5805F03D047
:101B3000B0F5005F12D0012584F83D60002084F8E4
:101B40003C00284670BDCB68D1E90121206800F037
:101B50001FFF2068816841F0770109E0CB68D1E977
:101B60000121206800F014FF2068816841F4804161
:101B70008160E1E719E0CA684968206800F01AFF4F
:101B80005021206806E0CA684968206800F023FFF9
:101B90006021206800F006FFCEE7CA684968206827
:101BA00000F008FF40212068F4E722680146104653
:101BB000F0E7704770470000F8B501680446086810
:101BC000CA684B6910F00F0F4FF0000559D003F0B1
:101BD000010602F49077374365D0C10705D0D105DF
:101BE00003D5216C41F001012164410705D5D907D6
:101BF00003D0216C41F002012164810705D5D9078A
:101C000003D0216C41F004012164010707D502F0E3
:101C10002001314303D0216C41F008012164216C83
:101C200000293AD0800604D5900602D5204600F05F
:101C30006CFF20684069216CC0F38010090700D454
:101C400060B3204600F02CFF20684069400621D593
:101C50002068143050E8001F21F0400140E80012D5
:101C6000002AF5D1A06BA8B16C490165A06BFFF704
:101C70006FF8002811D0A06B016D01B0BDE8F040F5
:101C8000084783060FD593060DD52046BDE8F840DA
:101C900000F03BBF2046FFF78DFFF8BD2046FFF761
:101CA00089FF2564F8BD266B2023012E79D1C60655
:101CB00077D5D60675D5086848680090486940060B
:101CC00040D5A16B086840680004000CEAD0A28DE2
:101CD0008242E7D9E085C869B0F5807F2DD02068C1
:101CE0000C3050E8001F21F4807140E80012002AF7
:101CF000F5D12068143050E8001F21F0010140E8C0
:101D00000012002AF5D12068143050E8001F21F09D
:101D1000400140E80012002AF5D184F83E302563E6
:101D200020680C3050E8001F21F0100140E800123C
:101D3000002AF5D1A06BFEF7C2FFA08DE18D401AFD
:101D400081B229E0A08DE18D401A81B2E08D00289A
:101D5000A8D00029A6D020680C3050E8002F22F42B
:101D6000907240E80026002EF5D12068143050E82B
:101D7000002F22F0010240E80026002EF5D184F861
:101D80003E30256320680C3050E8002F22F010020E
:101D900040E80023002BF5D12046FFF70AFFF8BDED
:101DA000FFE705062BD5150629D594F83D00212817
:101DB000F5D1A068B0F5805F01D12069B0B1206A8B
:101DC000411C2162216800784860E08C401E0004BC
:101DD000000CE084E3D12068C16821F08001C1607B
:101DE0002068C16841F04001C160D8E7206A0088DE
:101DF000C0F308004860206A801C2062E5E74006C6
:101E0000CDD55006CBD5CA68204622F04002CA6024
:101E100084F83D3000F09AFBC1E70000FB29000880
:101E200070B5040004D094F83D00002510B106E020
:101E3000012070BD84F83C50204600F023F8242097
:101E400084F83D002068C16821F40051C16020463B
:101E500000F0BCFE2068016921F490410161206816
:101E6000416921F02A0141612068C16841F40051B3
:101E7000C1602564202084F83D0084F83E000020E5
:101E800070BD00002DE9F04F87B00546142168466B
:101E9000FEF757FBDF48DE4B2A68DE491038002486
:101EA0004FF002084FF003094FF0080E9A4230D16C
:101EB0000A6842F480120A60096801F480110591F1
:101EC000016841F004010160016801F0040105911D
:101ED000016841F0080101600068CDE9024900F0A5
:101EE000080005909814CDE9000875466946CDF8BC
:101EF00010E0C948FFF7C2F80420CDE90008CDE999
:101F0000024969460495C548FFF7B8F807B0BDE82F
:101F1000F08FC34BDFF8FCB240271E150BF1040B0A
:101F20004FF0070C4FF0006A9A4257D1DBF80020BF
:101F300042F01002CBF80020DBF8001001F0100195
:101F40000591016841F001010160006802AA00F0FA
:101F5000010005904FF4C060CDE9000882E810123E
:101F60006946B048FFF78AF8DFF8C082AE494046BC
:101F7000C8F80870C0E90346C8F81440C8F818400B
:101F8000C8F81C40C8F82040C8E9001AC8F8244026
:101F9000FEF7C0FF08B1FEF790FEA44FA248C5F8B7
:101FA000348060377838C8F838503860C7E901A401
:101FB000C7E903467C61BC61FC613C6238467C62D7
:101FC000FEF7A8FF08B1FEF778FEAF6300221146C6
:101FD0002520BD63FFF7C2F9252056E0944B9A42B5
:101FE00056D10A6842F400320A60096801F40031EF
:101FF0000591016841F001010160006802AA00F04A
:10200000010005900C20CDE9000882E81012694615
:102010008448FFF733F8DFF81482864908F1C008D6
:102020004046C8F80870C0E90346C8F81440C8F82C
:102030001840C8F81C40C8F82040C8E9001AC8F881
:102040002440FEF767FF08B1FEF737FE79487A4F64
:10205000C5F834801838C8F838503860C7E901A48A
:10206000C7E903467C61BC61FC613C6238467C6226
:10207000FEF750FF08B1FEF720FEAF6300221146C5
:102080002620BD63FFF76AF92620FFF759F93DE7DF
:102090006A4B9A425DD10A68A34642F480220A60E4
:1020A000096801F480210591016841F00201016095
:1020B000006802AA00F0020005904FF44060CDE9EC
:1020C000000882E8101269465D48FEF7D7FFDFF886
:1020D0006881584908F1600878394046C8F800100E
:1020E000C0E901A4C0E90346C8F81440C8F8184084
:1020F000C8F81C40C8F82040C8F82440FEF70AFF82
:1021000008B1FEF7DAFD4C4CC5F838804948C034B8
:10211000C8F838504838A760C4E9000AC4E903B6D3
:10212000C4F814B0C4F818B0C4F81CB0C4F820B097
:102130002046C4F824B0FEF7EDFE08B1FEF7BDFD61
:102140006C63002211462720A563FFF707F92720BB
:102150009BE73C498A429AD1DBF8002042F02002FA
:10216000CBF80020DBF8001001F020010591016898
:1021700041F004010160006802AA00F0040005902B
:10218000C020CDE9000882E8104269462248FEF7E7
:1021900075FF2549DFF8B080903940464FF0206A3E
:1021A000C8F80010C0E901A4C0E90346C8F814400B
:1021B000C8F81840C8F81C40C8F82040B146C8F814
:1021C0002440FEF7A7FE08B1FEF777FD1E4EC5F8C6
:1021D00038806036C8F83850C6E90274C6E90494FD
:1021E000B4611148F461346218387462C6E9000AB7
:1021F0003046FEF78FFE08B1FEF75FFD6E630022EA
:1022000011464720B563FFF7A9F847203DE70000D6
:10221000005000404038024000080240000C0240DC
:102220000010014000000240B8640240B8020020E3
:1022300000440040A0600240D80300200048004055
:102240000004024000140140F80400202DE9F84F7A
:10225000044690F83E009A4616460D46202853D173
:10226000FDB1F6B194F83C0001284DD0012084F86E
:102270003C0000272764222084F83E002763FEF7F5
:10228000FFFFA6858146E685A0684FF4805840454B
:1022900001D1206940B12E465FF0000584F83C7002
:1022A00027E00120BDE8F88F0026F7E74B46002223
:1022B00020212046CDF800A000F02BFD08B103201E
:1022C000F0E726B1A06840451BD038B108E020688F
:1022D0004068C0F3080025F8020B07E0206980B1D0
:1022E0002068406800F07F0006F8010BE08D401E7A
:1022F000E085E08D0028D9D1202084F83E00002020
:10230000D0E720684068EFE70220CBE790F83E3046
:10231000202B0ED159B152B190F83C30012B08D08E
:10232000012380F83C300023036300F0D5BC01207A
:1023300070470220704700002DE9F0410646006812
:102340002849294D3027294C88420ED12078312840
:1023500006D160780D2803D16868401C686027703A
:10236000032222492248FFF7D1FF224930688842E0
:102370000CD1A07A312803D1E07A0D2800D1A772C0
:102380001A4903220A311C48FFF7C0FF1B49306875
:1023900088420FD1207D312806D1607D0D2803D1E0
:1023A000A868401CA86027751049032214311448FE
:1023B000FFF7ACFF13493068884211D1A07F312864
:1023C00006D1E07F0D2803D1E868401CE860A777BC
:1023D000BDE8F041054903221E310B48FFF796BFC7
:1023E000BDE8F08100100140080000204C000020F2
:1023F000A801002000440040EC01002000480040FB
:102400003002002000140140740200202DE9F8433E
:10241000044690F83D001F4616460D4620284CD134
:10242000C5B1BEB194F83C00012846D0012084F823
:102430003C004FF00008C4F84080212084F83D00A3
:10244000FEF71EFFA6848146E684A068B0F5805F93
:1024500003D004E00120BDE8F883206928B12E46AE
:102460005FF0000584F83C800EE00026FAE780214A
:10247000204600F04EFCA0B9AEB116F8010B216861
:102480004860E08C401EE084E08C4B464FF0000238
:1024900000970028EBD14FF04001204600F039FCB6
:1024A00030B10320D7E735F8020BC0F30800E6E7A8
:1024B000202084F83D000020CDE70220CBE700007B
:1024C00070B5044690F83D00202836D191B38AB308
:1024D00094F83C00012830D0012084F83C002162AF
:1024E000A284E28400252564212084F83D00636BEA
:1024F0001348D863636B13481864636B1248D8643D
:10250000606B134605652668606B321DFEF76CFD37
:1025100021686FF04000086084F83C502068143057
:1025200050E8001F41F0800140E80012002AF5D178
:10253000002070BDFFE70120FBE70220F9E7000063
:10254000552A0008972A00080B2A00087047704790
:10255000FEE70000294808B5016841F480010160E8
:10256000016801F480010091016841F400110160EB
:102570000068002200F40010009011460C20FEF7C5
:10258000EDFE0C20FEF7DCFE002211460E20FEF7C9
:10259000E5FE0E20FEF7D4FE002211461020FEF7C5
:1025A000DDFE1020FEF7CCFE002211461120FEF7C2
:1025B000D5FE1120FEF7C4FE002211463920FEF799
:1025C000CDFE3920FEF7BCFE002211463A20FEF770
:1025D000C5FE3A20FEF7B4FE002211464520FEF764
:1025E000BDFE4520FEF7ACFE002211464620FEF758
:1025F000B5FEBDE808404620FEF7A2BE30380240D6
:10260000F0B587B014216846FDF79BFF21480025EF
:10261000016841F080010160016801F080010591CD
:10262000016841F001010160016801F001010591BB
:10263000016841F002010160016801F002010591A9
:10264000016841F004010160016801F00401059195
:10265000016841F00801016000680F4F00F00800B8
:102660000590002202213846FEF705FE01260224CD
:102670000096CDE9015469463846FEF7FFFCCDE9E6
:10268000004669463846CDE90245FEF7F7FC07B03B
:10269000F0BD0000303802400000024010B586B0A6
:1026A00000241648009401940294039404944FF07B
:1026B00080410594016044F29F11C0E90114611E3C
:1026C000C0E903148461FFF777F908B1FEF7F5FA62
:1026D0004FF48050009069460848FFF7FCF908B1B4
:1026E000FEF7EBFA049404A904480594FFF71CF9DB
:1026F000002801D0FEF7E1FA06B010BD1C01002051
:102700000C4810B50A4901604FF4E13141600021E5
:1027100081600C22C160C0E904128161C161FFF7D0
:102720007FFB002803D0BDE81040FEF7C6BA10BDFD
:1027300000500040640100200C4810B50A490160B7
:102740004FF4E1314160002181600C22C160C0E999
:1027500004128161C161FFF763FB002803D0BDE86B
:102760001040FEF7AABA10BD00100140A8010020D9
:102770000C4810B50A4901604FF4E1314160002175
:1027800081600C22C160C0E904128161C161FFF760
:1027900047FB002803D0BDE81040FEF78EBA10BDFD
:1027A00000440040EC0100200C4810B50A490160CB
:1027B0004FF4E1314160002181600C22C160C0E929
:1027C00004128161C161FFF72BFB002803D0BDE833
:1027D0001040FEF772BA10BD0048004030020020E1
:1027E0000C4810B50A4901604FF4E1314160002105
:1027F00081600C22C160C0E904128161C161FFF7F0
:102800000FFB002803D0BDE81040FEF756BA10BDFC
:102810000014014074020020FEE7FEE77047704795
:10282000FEF734BD30B593B030216846FDF789FE20
:1028300014210CA8FDF785FE1D480025016841F014
:1028400080510160006800F08050119019480168C3
:1028500041F4804101600068022400F4804011903E
:1028600001200090000401908001CDE9064008AAF3
:102870000420A82182E813000B906846FEF78AFE28
:1028800008B172B6FEE70CA90F2081E831004FF4C1
:10289000A0500F904FF48050109005210CA8FEF727
:1028A0008FFD002801D072B6FEE713B030BD0000E6
:1028B00040380240007000400248016841F4700155
:1028C0000160704788ED00E0F0B50268254C264DA8
:1028D000264E274F274B4FF0804CA04209D0604531
:1028E00007D0A84205D0B04203D0B84201D09842E8
:1028F00004D122F0700E4A6842EA0E02A0421BD0B8
:10290000604519D0A84217D0B04215D0B84213D0B4
:10291000984211D0184DA8420ED0184DA8420BD0A5
:10292000174DA84208D0174DA84205D0164DA84211
:1029300002D0164DA84203D122F44075CA682A433A
:102940004D6922F080022A4302608A68C2620A68E6
:102950008262A04201D0984201D10969016301213C
:102960004161F0BD0000014000040040000800404B
:10297000000C0040000401400040014000440140C0
:102980000048014000180040001C004000200040AA
:1029900010B5846842EA032224F47F440A432243A8
:1029A000826010BD826822F070020A4342F0070183
:1029B0008160704710B5036A046A24F00104046260
:1029C000846924F0F00444EA021423F00A020A4362
:1029D0008461026210BD10B5036A23F01003036224
:1029E0008369046A23F4704343EA023224F0A003AB
:1029F00043EA01118261016210BD10B5806B0021B4
:102A0000C185C184FFF7D6F810BD70B5846B20680E
:102A1000406994F83D10C0F3C0100025212904D16D
:102A200018B1E584204600F062F82068406994F807
:102A30003E10C0F38010222904D118B1E58520464C
:102A400000F02EF8206C40F0100020642046FFF7C4
:102A5000B1F870BD10B50146806B09680968C905F9
:102A600016D40021C1840168143151E8002F22F0EE
:102A7000800241E80023002BF5D101680C3151E8B8
:102A8000002F42F0400241E80023002BF5D110BD99
:102A9000FFF75CFD10BD10B5806BFFF758FD10BD52
:102AA00001680C3151E8002F22F4907241E80023B4
:102AB000002BF5D10168143151E8002F22F00102FA
:102AC00041E80023002BF5D1016B012909D10168F0
:102AD0000C3151E8002F22F0100241E80023002BB6
:102AE000F5D1202180F83E10002101637047016874
:102AF0000C3151E8002F22F0C00241E80023002BE6
:102B0000F5D1202180F83D10704708B590F83E10AF
:102B1000222901D0022008BD82684FF480539A42D6
:102B200001D1016921B1816A9A421BD04AB10AE000
:102B30000268816A5268C2F308020A80816A891CAD
:102B400008E0026972B10268526802F07F020A70FE
:102B5000816A491C8162C18D491E0904090CC18525
:102B600003D019E002685268F1E70168CA6822F0F0
:102B70002002CA600168CA6822F48072CA600168D3
:102B80004A6922F001024A61202180F83E10016B5F
:102B9000012903D0FFF7D0FB002008BD002101630D
:102BA00001680C3151E8002F22F0100241E80023A7
:102BB000002BF5D101680A68D20602D50A68496877
:102BC0000091818DFEF7F5FFE6E7000070B5044641
:102BD00000680169E26821F44051114301612169F3
:102BE000A068E26908436169114308432168CA6823
:102BF00049F20C639A430243CA6020684169A269A2
:102C000021F440711143416131492068884202D06A
:102C10003049884202D1FEF77DFC01E0FEF76AFCF4
:102C2000E2690023192164253226B2F5004F62685B
:102C300028D0A0FB0101930F9200FDF71DFB014678
:102C4000B0FBF5F06FF01802504301EB800006EB8B
:102C50000010B0FBF5F000F0F002B1FBF5F002EB74
:102C60000012B1FBF5F06FF01803584301EB800040
:102C700006EB0010B0FBF5F000F00F0021681044E7
:102C8000886070BDA0FB010192185B41FDF7F4FA6A
:102C90000146B0FBF5F00201B1FBF5F06FF018034F
:102CA000584301EB800006EBC000B0FBF5F000F0EC
:102CB000F80002EB4002B1FBF5F0584301EB800055
:102CC00006EBC000B0FBF5F000F00700D6E700000F
:102CD000001001400014014081628285C2850021FC
:102CE0000164222280F83E2080F83C10016921B165
:102CF0000168CA6842F48072CA6001684A6942F099
:102D000001024A610068C16841F02001C1600020F1
:102D100070472DE9F041984617460E460446069D39
:102D200027E0681C25D02DB1FEF7AAFAA0EB080019
:102D3000A8421ED920680C3050E8001F21F4D07141
:102D400040E80012002AF5D12068143050E8001F36
:102D500021F0010140E80012002AF5D1202084F87A
:102D60003D0084F83E00002084F83C000320BDE8CC
:102D7000F0812068006836EA000004D00020B842E4
:102D8000CFD00020F3E70120F9E700000148FEF76B
:102D900013BF0000A80100200148FEF70DBF00008E
:102DA000EC0100200148FEF707BF000030020020C0
:102DB0000148FEF701BF000074020020FEE709078A
:102DC000090E002804DB00F1E02080F800147047B1
:102DD00000F00F0000F1E02080F8141D70470000A3
:102DE0002DE9FC430024651E234627460094264611
:102DF0002146EC464FF00109CDF8044000EB81027A
:102E00009269B2F1FF3F0BD06AB1A2F10108B8F1AB
:102E1000050F17D81CF80280B8F1000F12D104E09A
:102E20000D46641C04E05B1C02E00CF80290761C6A
:102E3000491C0629E2DB012B04DC012C02D10BB971
:102E4000052E02D00020BDE8FC8300EB85008761E1
:102E50000120F8E7FCB500256C1E009529460126E7
:102E60006B46019550F82120571C05D0571E052FA1
:102E700011D89F5C7FB902E00C466D1C00E09E54A7
:102E8000491C0629EEDB012D05D10122995C21B1F7
:102E9000521C062AFADD0020FCBD40F82420012047
:102EA000FCBD000010B5FEF7EBF901F05BF80A4C31
:102EB00041EC100B84ED080B94ED061B53EC112B29
:102EC00001F02AF99FED051B53EC112B00F0F2FEE7
:102ED000C4E90A0110BD0000080000200000000045
:102EE00000408F4001280BD0042809D0022809D0C7
:102EF000052807D0032807D0062805D000207047F2
:102F0000012070470220704703207047F0B500266B
:102F100088B03246049604AB0124059650F822107E
:102F20004D1E062D21D25D5CFDB9521C5C54062A53
:102F3000F4DB0023009601961D461A464FEA0D0663
:102F400000EB8201896929B14F1E052F0DD8775CEE
:102F50005FB901E05B1C01E074546D1C521C062A31
:102F6000EEDB012B01D1052D02D0002008B0F0BD11
:102F70000120FBE72DE9FC5FFEF790F9FFF752FC1B
:102F8000FFF73EFBFFF7E6FAFFF7D6FBFFF7F0FB94
:102F9000FFF70AFCFFF724FCFFF7B2FBFFF77EFB0D
:102FA0000322F749F748FFF7B1F9F54903220A313F
:102FB000F548FFF7ABF9F24903221431F348FFF764
:102FC000A5F9EF4903221E31F148FFF79FF90522C9
:102FD000F0A1ED48FFF774FAEF4800F073FBEF48FB
:102FE000FEF7EAFCEE4E012202213046FEF743F9DD
:102FF000DFF88CA3EB4C0AF1A00A4FF001084FF068
:103000000A0900274FF0060BAAF178050121304686
:10301000FEF72CF9012803D1607808B9042060700C
:1030200060781A28F2D2DFE800F00D0E18252E3451
:1030300039405E6C7399A0BAF2F1F0EFEEEDECEB73
:10304000EAE9E8E7E2E7CE4878212830FDF779FAA7
:10305000A760E7606760022021E247F23050CDE9C7
:103060000070C74805230122CFA1A03000F030FB3B
:10307000032014E2C249283101F1780000F0B4FACB
:10308000677000224DE000F0B5FCC4F80480052014
:1030900005E260680128B9D1676022E2686E032802
:1030A00001DB1620FBE10720F9E1A96B686F88427C
:1030B00001D1E96E06E0686E05EB8000006C05EB5F
:1030C0008000816A686E05EB8000006C0AEB80026C
:1030D00093686B6752F8042C2A67E760676000F01A
:1030E000FFFB0820DBE1E06801288FDB6068012836
:1030F0008CDBA760E76067600920607084F800805F
:1031000084E700F08FFC00F0F5FC84F801907DE787
:10311000FFF7C8FEA068012808DBA7600C206070DC
:10312000012202213046FEF7A6F86FE79FEDA10BC2
:1031300053EC102B94ED0A0B51EC100B00F0B6FF82
:10314000DED89648FEF7B4FC4FF08040476200227C
:1031500002213046FEF78FF80B20A0E1C4F808806A
:1031600084F8019000F0C6FC50E7296FA86B8142FB
:1031700001D1E86E06E0686E05EB8000006C05EB9F
:103180008000C06938B1052805D00320217881422C
:1031900003D00D2083E10220F8E70F207FE1296FA3
:1031A000A86B814201D1E86E06E0686E05EB8000F5
:1031B000006C05EB8000C069009048B3052828D05A
:1031C0000320E7606760009900F03EFB05227BA1C9
:1031D0006D48FFF775F94FF4FA70FDF73DFF009861
:1031E000C8B101281AD002281BD003281CD00428FB
:1031F0001DD005281ED022E098E194E18EE17CE10B
:103200004FE126E107E1EDE07CE054E036E018E034
:10321000FFE70220D5E7052269A10DE005226AA19A
:103220000AE005226AA107E005226BA104E005225D
:103230006AA101E005226AA15548FFF741F90E2075
:103240002DE1606801288FDBE06801288CDBE760F6
:103250006760296FA86B814201D1E86E06E0686E55
:1032600005EB8000006C05EB8000C06920B10528EB
:1032700002D00320207090E70220FBE72B6FA86BA1
:10328000984201D1EA6E0CE05FF0010055F8201081
:10329000994203D105EB8000C26902E0401C062878
:1032A000F4DDA760E760676035491846283100F013
:1032B000DDFB1020F3E0686EAB6B05EB80002A6F3E
:1032C000006C934205EB8000C069014600D1E86EB6
:1032D000A0F1010CBCF1030F0AD8D4F808C0BCF16E
:1032E000020F05DBA760934200D0E9661120D6E00B
:1032F00010B105287FF4A6AEA0680228A3DBA76062
:103300006760F3E7696FA86B814201D1E86E06E060
:10331000686E05EB8000006C05EB8000806A009011
:1033200038B1052805D003202178814203D012202E
:1033300002E00220F8E71420607000F05BFA0098C9
:1033400060B101280DD0022811D0032812D0042822
:1033500013D00528CED1052221A104E0052218A111
:1033600001E0052218A10A48FFF7AAF84EE6052257
:1033700017A1F8E7052218A1F5E7052217A1F2E742
:103380004C000020A8010020EC01002030020020A9
:103390007402002068300000640100201C0100203D
:1033A0000000024008000020524551554553540A80
:1033B00000000000000000000000084076323000ED
:1033C000412D343500000000412D3638000000004A
:1033D000412D3233000000004132330041363800C5
:1033E00041343500696FA86B814201D1E96E06E076
:1033F000686E05EB8000006C05EB8000816A41B1CE
:10340000052906D05FF0030000F01EFA6760132064
:1034100045E00220F8E760680128A7DBE0680128A2
:10342000A4DBE7606760696FA86B814201D1E86E39
:1034300006E0686E05EB8000006C05EB8000806A9A
:1034400028B1052803D003202070142027E0022093
:10345000FAE7A96B686F81420BD16B6EE96E05EBE1
:1034600083031B6C05EB8303DB6999420DD10A468C
:103470000BE0012155F82130834203D105EB810196
:10348000CA6902E0491C0629F4DDE7606760A168AB
:103490000229C2DBA760264900F0E8FA1520607017
:1034A000B4E5686EAB6B864605EB80006A6F006C16
:1034B000934205EB8000806A014600D1E86EA0F1DE
:1034C000010CBCF1030F0FD8D4F808C0BCF1020FF7
:1034D0000ADBA7606760934200D0E9660EF1010045
:1034E000686684F801B091E508B10528D8D1A068D4
:1034F0000228D5DBA7606760F0E705220DA10E4822
:10350000FEF7DEFF05220DA10D48FEF7D9FF0522CB
:103510000CA10D48FEF7D4FF1720C0E76068012812
:10352000BEDB1820BBE70020BDE8FC9FFEE70000E3
:103530007400002061353000A801002041300000F7
:103540007402002076300000EC01002070B50D46BA
:1035500004464FF0FF3692B0324630212846FCF741
:10356000E8FF3F2221466846FDF712F800208DF85B
:103570003F00044619A1684626E011AB10AA18A125
:10358000FCF7F2FE02281DD19DF8441078290CD0DA
:10359000B1F130019DF84000A0F13102052A06D8B2
:1035A00005EB800040F8C41C0BE03146F2E7A0F1C7
:1035B0006102052A06D805EB8000A0F58050C0F80E
:1035C000941E641C05A10020FCF75CFF0028D4D1E8
:1035D0000C2C01D012B070BD0120FBE72C000000C4
:1035E00025633A2563000000F0B587B00C46054618
:1035F0001C2233496846FCF76AFF00204FEA0D039E
:1036000005EB8001896909B143F82100401C0628B7
:10361000F6DB00220120A26353F82010491C4CD095
:10362000401C0628F8DD00210327481C55F82160BE
:1036300044F8206004EB800E53F826C0CEF81CC07E
:10364000D4F838C0B44506D1401E90FBF7F607FB0E
:103650001600401CE063491C0629E6DBE06BFFF71F
:1036600041FC034600210120984203D004EB81066F
:10367000491C3064401C0328F6DD04EB8100002166
:1036800003640B4604EB830004EB8107006C491CC8
:10369000C61C05EB80005B1C50F8040CF86405EBBD
:1036A000860004EB810650F8040C491CF064032BDF
:1036B000E8DB6266E26607B0F0BDA063B3E7000036
:1036C000F84200080149086070470000000000202F
:1036D0002DE9FF4FB9B00D46DDE9469B4021684614
:1036E000FCF72FFF0024621E30211CA8FCF721FFED
:1036F0000026B246FDF7C4FDDFF8F480074665B149
:10370000D8F8000048B12846FCF7C2FE82B2642314
:103710002946D8F80000FEF779FE6D46B9F1000F92
:1037200015D0FDF7ADFDC11B594510D92EB1302282
:103730001CA93998FCF7CBFE05E04FF0FF32302191
:103740003998FCF7F6FE00203DB0BDE8F08F0A2363
:10375000012236A9D8F80000FEF778FD0028DDD157
:103760009DF8D8000A2807D00D28D7D03F2C39D291
:103770002855641CE4B2D1E70020285510A96846FA
:10378000FFF7E4FE70B30126302210A91CA8FCF755
:103790009EFE0AF1010A10A8FFF7B8FB10B1302213
:1037A00010A91AE03B98E8B1302210A928A8FCF72C
:1037B0008EFE002428A8FFF713FB00B101243C99DA
:1037C0008A4503D328A8FFF745FB00B954B128A8C0
:1037D000FFF79CFB30B1302228A93998FCF777FE1F
:1037E0000120B1E7002440216846FCF7AAFE95E7D6
:1037F000000000200E4810B5416E4FF00A0200EBA9
:103800008101096C00EB8100C06970B109A10A480F
:10381000FEF756FE094881680029FCD0BDE810403B
:10382000052207A10448FEF74BBE06A1EFE7000002
:1038300074000020663200003002002008000020E2
:1038400067323600663000001B4A30B413695C1ED4
:10385000022C03D8012901DB022906DDDB1E012B26
:1038600005D8032903DB042901DC012300E0002340
:1038700053611278824201D1002B1BD1022808D05B
:10388000032817D1012915DB03290EDC05220BA122
:1038900004E039B105290DD105220AA130BC0B483D
:1038A000FEF70EBE05220AA1F8E7042902D105227F
:1038B00009A1F3E730BC70470800002061323836B8
:1038C0002E3500006132363800000000A8010020CB
:1038D00061323639000000006132383300000000E8
:1038E00070B5354C06460025606E40B104EB800093
:1038F000C06B04EB8000856A681C00D1E56E0A206D
:10390000FDF7AAFB0A222DA12D48FEF7D9FD0A20BA
:10391000FDF7A2FB012E04D0022E05D0032E06D007
:103920000AE00A2227A104E0052227A101E00A22D9
:1039300026A12848FEF7C4FD606E50B14DB10A22A1
:1039400025A12648FEF7BCFD626E4FF4FA701AB14D
:1039500009E00A2222A1F4E7216C012909D00329F8
:1039600007D0022919D040F2DC512DB1012D03D02E
:1039700007E04FF4487010E004EB82031B6C012B4E
:1039800004D0042D04D0052D02D006E0084604E042
:1039900004EB8202126C032AF8D0FDF75DFB0A22C9
:1039A00010A10748FEF78CFDBDE870400A220EA169
:1039B0000F48FEF785BD000074000020763300003C
:1039C000EC0100204135300041300000412D3532FE
:1039D0000000000074020020663200003002002067
:1039E00066300000682D320061382E35000000007E
:1039F000A801002010B50A2207A10848FEF760FDC3
:103A00004FF4FA70FDF728FBBDE810400A2202A12E
:103A10000348FEF755BD000073000000300200208F
:103A2000EC01002010B50A220BA10C48FEF748FD5E
:103A30003220FDF711FB0A2209A10A48FEF740FDDA
:103A40004FF47A70FDF708FBBDE810400A2206A18A
:103A50000448FEF735BD0000673131003002002018
:103A600068300000EC0100207631300070B5184C51
:103A70000D4606465AB1501E032819D80A2215A130
:103A80001648FEF71DFDA0680028FCD019E00522AD
:103A900013A11248FEF714FDA0680028FCD010E026
:103AA00010A100E010A1BDE870400C48FEF708BD71
:103AB000052A0CD10DA10948FEF702FDA0680028D7
:103AC000FCD0A86B4FF00A02B042EBD1E8E770BD22
:103AD000080000206E2D3138300000003002002038
:103AE0006E39330070323100703333006E2D39314E
:103AF00000000000084910B5096800204862FDF781
:103B0000BFFB00F02FFA054AC2E90601BDE81040EC
:103B10000148FDF791BF00001C01002008000020B3
:103B200010B500290AD00878002807D00548784445
:103B3000FCF7FEFF002801D0002010BD02487844A9
:103B400010BD0000260800001E08000010B591EA14
:103B5000030F48BF83F0004300F1E682841A71EB43
:103B6000030C05D2121943EB0C03001B61EB0C0193
:103B7000DFF824E14FEA1154A4EB135C1EEA430F73
:103B800018BF9EEA445F73D023EA0E03DCF1200ED7
:103B900021EA045143F4801332D322FA0CFE10EBD5
:103BA0000E0023FA0CFE41EB0E01CCF1200E03FABD
:103BB0000EFE10EB0E0051F10001B1F5801FCCF1AB
:103BC000200E32D201EB045112FA0EF2BDE8104081
:103BD00058BF7047401C38BF5FEA420218BF7047A9
:103BE000002814BF20F0010041F100014FEA410319
:103BF00013F5001F38BF7047A1F1C04100F050BA63
:103C0000012A43EB0302ACF1200CDCF11F0E32BFA2
:103C10004FF0000E23FA0CF310EB030041EB0451BC
:103C2000B4EB115FD0D0A1EB045101F5801149082C
:103C30005FEA300001EB04510ED350F1000038BFB1
:103C400012FA0EFE08D1BDE81040C9E7401C38BF8B
:103C50005FEA4202CAD1C3E7BDE810404FEA410320
:103C600013F5001F38BF7047A1F1C04100F018BA2A
:103C70009EEA445F08D011EA5E0FBDE8104004BF21
:103C800001F0004100207047BDE8104070B500F021
:103C9000B9F900BF64FBBE3E0000E0FF491058BF09
:103CA000C1F140415B1058BFC3F140438B42EFF379
:103CB000008070472DE9C04130B4DFF8A0C23CEA73
:103CC000111418BF3CEA131400F0EC8081EA0305DC
:103CD0001CEA111444EAD57418BF1CEA131500F04D
:103CE000C780A4EB05044FF0004545EAC12145EA31
:103CF000C32341EA505143EA525304F17F7499427D
:103D000004F500344FEAC0204FEAC22208BF9042B7
:103D100000F09C804FEA13650FF24016765D4FEA83
:103D2000134506FB05F7C7F1807706FB07F74FEA57
:103D3000D737A7FB03687642C8F58038A7FB06CEC5
:103D400038BFA8F1010807FB08E64FF0000EA6FBFC
:103D5000028CE6FB03CEDCF1000CCEF1004E38BF46
:103D6000AEF1010EA6FB0C584FF000074FF0000516
:103D7000E6FB0E87A1FB08C6A0FB07CE16EB0E06DE
:103D800045F10005E1FB076515F1E04E7EBFA4F5A6
:103D900080345FEA46066D4116F1800745F1000563
:103DA0004FEA17274FEA066647EA0567A6F1DE469F
:103DB000B6F1805F4FEA15251FD9384624F0010C73
:103DC00005EBC471BCF1FE6F01EB0C1102D8F0BC25
:103DD000BDE8008124425CBF01F5801E9EEAC47FDD
:103DE00002D4F0BCBDE80081244238D4F0BCA1F17B
:103DF000C041BDE8004100F053B94FEAD22242EA87
:103E000043524FEAD323A7FB02864FEAD02040EA71
:103E1000415007FB03661EEA0E0F4FEAD12105FB56
:103E2000026658BFA6EB0056B6EB00564FEA520E9C
:103E30004EEAC37E18EB0E0E56EB530EBDD518EBB3
:103E400002085E417F1C55F10005B6E74FF480156E
:103E50004FF000074FF000064FF00008ADE7F0BC50
:103E60004FF0000001F1C04101F00041BDE80081C8
:103E700011EA0C1F0CEA131500D00CE013EA0C1F1A
:103E800000F025804FF00000F0BC81EA030101F052
:103E90000041BDE80081F0BCBDE8004181EA0301BA
:103EA00000F0FEB8F0BCBDE8004170B500F0AAF823
:103EB000097EFC3E00F007B881EA03014FF00000E4
:103EC00001F00041704781EA030100F0E9B8F0BC5D
:103ED000BDE800414FF0000021497047FFFDFBF9AC
:103EE000F7F5F4F2F0EEEDEBE9E8E6E4E3E1E0DE2D
:103EF000DDDBDAD8D7D5D4D3D1D0CFCDCCCBCAC89F
:103F0000C7C6C5C4C2C1C0BFBEBDBCBBBAB9B8B7C5
:103F1000B6B5B4B3B2B1B0AFAEADACABAAA9A8A8B8
:103F2000A7A6A5A4A3A3A2A1A09F9F9E9D9C9C9B86
:103F30009A99999897979695959493939291919031
:103F40008F8F8E8E8D8C8C8B8B8A898988888787C2
:103F50008685858484838382828181800000FF0737
:103F60000000F87FB0FA80F310FA03F10AD0C3F131
:103F70001D0303F580634FEA41504FEA035202EB01
:103F8000D12170474FF000007047000051EA030C48
:103F900017D41CF5801F58BFBCF5801F00F10680A8
:103FA000994218BF704708BF9042704707D711F574
:103FB000801F58BF13F5801F19D49942704789425A
:103FC00070471CF5801F08D5BCF5801FF7D58B42C4
:103FD00018BF704708BF824270474FF4001C1CEBAB
:103FE000410F38BF1CEB430F01D28B42704770B5B5
:103FF00000F008F8922449004FF000514FF0805330
:10400000FFF74CBE0EF1020E2EF0030E5EF8046BAD
:10401000364205D4012A43EB030515F5001F12D8DB
:10402000012841EB010C1CF5001F0CD80ED14FEA02
:10403000D17C15F5001F0CEB4C0C0CF1020C08BFE9
:104040004CEBD37C04E04FF0080C01E04FEAD37C4A
:104050000CEB4C0526FA05F606F00706B6F1040C43
:1040600006D20EEB860CBDE870404CF0010C6047A8
:10407000DFE80CF0090B02024FF000414FF00000A6
:10408000A1F5002170BD19461046012851EB01042D
:1040900018BFD4F5001484BF002001F0004170BDAA
:1040A0000808A0F500114FEA3101704753EA010CEE
:1040B00017D41CF5801F58BFBCF5801F00F1068087
:1040C0008B4218BF704708BF8242704707D713F56D
:1040D000801F58BF11F5801F19D48B4270479B4237
:1040E00070471CF5801F08D5BCF5801FF7D5994295
:1040F00018BF704708BF904270474FF4001C1CEB7C
:10410000430F38BF1CEB410F01D2994270470FB4E7
:104110000CBC03BCFFF76BBF10B591EA030F48BF9F
:1041200083F000433FF51AAD841A71EB030C07D2FC
:1041300012198CF0004C43EB0C03001B61EB0C01DB
:10414000DFF8A4E14FEA1154A4EB135C1EEA430F1D
:1041500018BF9EEA445F00F0B08023EA6E0352422B
:1041600021EA0451C3EB6E0338BF5B1EDCF1200E65
:1041700025D322FA0CFE10EB0E0043FA0CFE41EBA5
:104180000E01CCF1200E03FA0EFE10EB0E0051F1E1
:104190000001CCF1200E29D412FA0EF201EB0451E9
:1041A000BDE8104058BF7047401C1CBFB2F1004F23
:1041B000704700280CBF491C20F00100704712EB2B
:1041C000020E43EB030218BF4FF0010E4EEA42020B
:1041D000ACF1200CDCF11E0E54D943FA0CFE10EBAE
:1041E0000E0051F1FF31CCF11E0ED5D50EF1010EAE
:1041F00012FA0EFE404141EB010101EB445C5FEA23
:104200005C5C10D910EBDE7001EB045138BFBEF1DD
:10421000004FBDE8104018BF704700280CBF491C74
:1042200020F00100704730D24FEAD42C11F5001174
:1042300024F400641BD0B1FA81F20B3AA41AA41E34
:10424000D2F12003914030FA03F31943904001EB7F
:10425000CC71002C01EB0451BDE81040A8BF7047A1
:1042600001F1C0414FF0000001F000417047B0FA89
:1042700080F310FA03F100D110BDE41A173C480591
:10428000C90AE4E701EB045110BD491001EB0451E8
:10429000BDE810404FEA300002E04FF000017047E7
:1042A0004A0008BF0042F8D0B2F5001F28BF70478F
:1042B00001F000414FF0000070479EEA445F07D0D4
:1042C00011EA5E0FBDE8104004BF002100207047D6
:1042D000BDE8104070B5FFF795FE00BF40DFF63E29
:1042E00083F00041104670470000E0FF4FF040703F
:1042F000E1EE100A70470000FFFFFFFFFFFFFFFF26
:10430000FFFFFFFFFFFFFFFFFFFFFFFFFFFFFFFFBD
:10431000FFFFFFFF00061016000610160000000049
:104320000000000001020304060708090000000065
:104330000102030464440008000000204C00000057
:10434000C4010008B04400084C000020CC0B000061
:10435000E00100081001000043000000F8FFFFFF2B
:104360000040404040404040404041414141414088
:10437000404040404040404040404040404040403D
:1043800040050202020202020202020202020202CC
:1043900002202020202020202020200202020202D1
:1043A0000202909090909090101010101010101029
:1043B0001010101010101010101010100202020235
:1043C0000202888888888888080808080808080879
:1043D0000808080808080808080808080202020275
:1043E000400000000000000000000000000000008D
:1043F00000000000000000000000000000000000BD
:1044000000000000000000000000000000000000AC
:10441000000000000000000000000000000000009C
:10442000000000000000000000000000000000008C
:10443000000000000000000000000000000000007C
:10444000000000000000000000000000000000006C
:10445000000000000000000000000000000000005C
:10446000000000000000000000000000000100004B
:10447000000000000000000000000000FFFFFFFF40
:10448000000000000000000000000000000000002C
:10449000000000000000000000000000010000001B
:1044A00010000000000000000024F40000000000E4
:040000050800018965
:00000001FF
